:020000040800F2
:1000000020460020D102000823290008CB20000848
:10001000F127000869040008092E0008000000000C
:100020000000000000000000000000000D020008B9
:100030006B04000800000000690200080D2C000895
:10004000EB020008EB020008EB020008EB020008DC
:10005000EB020008EB020008EB020008EB020008CC
:10006000EB020008EB020008EB020008EB020008BC
:10007000EB020008EB020008EB020008EB020008AC
:10008000EB020008EB020008EB020008EB0200089C
:10009000EB020008EB020008EB020008EB0200088C
:1000A000EB020008312D0008EB020008EB0200080B
:1000B000EB020008EB020008EB020008EB0200086C
:1000C000EB020008EB020008EB020008EB0200085C
:1000D000EB020008EB020008EB020008EB0200084C
:1000E000EB020008EB020008EB020008EB0200083C
:1000F000EB020008EB020008EB020008EB0200082C
:10010000EB020008EB020008EB020008EB0200081B
:10011000EB020008EB020008EB020008EB0200080B
:10012000EB020008EB020008EB020008EB020008FB
:10013000EB020008EB020008EB020008EB020008EB
:10014000EB020008EB020008EB020008EB020008DB
:10015000EB020008EB020008EB020008EB020008CB
:10016000EB020008EB020008EB020008EB020008BB
:10017000EB020008EB020008EB02000800000000A0
:10018000EB020008EB020008EB020008EB0200089B
:10019000EB020008EB020008EB020008EB0200088B
:1001A000EB020008EB020008EB020008EB0200087B
:1001B000EB020008EB020008EB020008EB0200086B
:1001C000EB020008EB02000800000000EB02000850
:1001D000EB020008EB020008EB020008EB0200084B
:1001E000EB020008EB020008EB020008EB0200083B
:1001F000EB020008EB020008DFF80CD000F0EEF88C
:1002000000480047B9350008204600202D4B1968EA
:100210000868B0E8F04F80F30988BFF36F8F4FF0A4
:10022000000080F311887047000000000848006853
:10023000006880F308884FF0000080F3148862B6ED
:1002400061B6BFF34F8FBFF36F8F00DF00BF00BFFA
:1002500008ED00E0DFF80C00016841F47001016076
:10026000704700BF88ED00E0EFF30980BFF36F8FA8
:10027000144B1A681EF0100F08BF20ED108A20E9F9
:10028000F04F106009B44FF0500072B680F311883F
:10029000BFF34F8FBFF36F8F62B604F0C9F94FF011
:1002A000000080F3118809BC19680868B0E8F04FB5
:1002B0001EF0100F08BFB0EC108A80F30988BFF35E
:1002C0006F8F704730000020EFF30580704700000B
:1002D0000648804706480047FEE7FEE7FEE7FEE7E0
:1002E000FEE7FEE7FEE7FEE7FEE7FEE7DD2C00089F
:1002F000F90100082DE9F05F0546002092469B4673
:1003000088460646814640241BE02846414647462B
:10031000224600F053F853465A46C01A914110D372
:1003200011461846224600F03AF82D1A67EB0108EC
:100330004F4622460120002100F031F817EB00095A
:100340004E41201EA4F10104DFDC484631462A4616
:100350004346BDE8F09F40EA01039B0703D009E054
:1003600008C9121F08C0042AFAD203E011F8013BA1
:1003700000F8013B521EF9D27047D2B201E000F8FA
:10038000012B491EFBD270470022F6E710B5134639
:100390000A4604461946FFF7F0FF204610BD202A02
:1003A00004DB203A00FA02F1002070479140C2F1CC
:1003B000200320FA03F3194390407047202A04DBFE
:1003C000203A21FA02F00021704721FA02F3D040CE
:1003D000C2F120029140084319467047064C074D70
:1003E00006E0E06840F0010394E807009847103405
:1003F000AC42F6D3FFF704FFEC5100080C520008A2
:1004000070B5134D0221284600F0BCFA01210446C4
:10041000284600F0B7FA44EA40040E484FF4004181
:1004200000F0B0FA042144EA80040B4800F0AAFA74
:10043000102144EAC004094800F0A4FA102144EA5B
:100440000014074800F09EFA44EA401070BD000016
:100450000024024000200240000402400008024044
:10046000001C024000F093BAFEE770472DED088BA8
:100470008CB003F004FB0B90FFF7C2FF9E490222F1
:10048000C88005A89D4901F043FF002205A8114638
:1004900001F026FF0022012105A801F021FF002222
:1004A000022105A801F01CFF0022032105A801F08C
:1004B00017FF9249022208A84C3101F029FF0022BF
:1004C00008A8114601F00CFF01228D4D14022846A8
:1004D000214600F063FA00222846802100F05EFAEF
:1004E00001222846402100F059FA874D8548874A65
:1004F000B5EE000A68650115A5F858104315E865C2
:10050000A5F860306866A5F86840DFED810A2A64C6
:10051000012713689FED7F1A01EE903A7B4B7E48CE
:10052000F8EE611A243B7D49C414861461EE801AEA
:1005300061EEA01AC5ED111A85F8507085ED131AF9
:100540001F600123C5F8D000A5F8D440C5F8D80035
:10055000734AA5F8DC60C5F8E020A5F8E430C5F8DA
:10056000BC1070480A681C466C4E194601EE902A71
:10057000243E6D4B8022F8EE611A61EE801A61EE26
:10058000A01AC5ED301A85F8CC40140285ED321A58
:1005900031604026C5F84C01C104A5F85021C5F8CA
:1005A0005431A5F85841C5F85C01DFF880C1A5F8C1
:1005B0006061C5F838C15E484B6A01265D4A01EEAC
:1005C000903A2023F8EE611A61EE801A61EEA01ACB
:1005D000C5ED4F1A85F8486185ED511A0E60082166
:1005E000C5F8C8011024A5F8CC31C5F8D001A5F88C
:1005F000D4110121C5F8D801A5F8DC41C5F8B42112
:1006000010684C4BF2EE08AA243BB1EE02BA9FED03
:100610004AAA9FED4A8ADFED4A8A9FED4A9ADFEDAA
:100620004A9A01EE900AF8EE611A21EE800A20EE55
:10063000200A85ED6E0A85F8C41185ED701A1960DF
:100640005FF0000401222146C4EB441005EB800654
:10065000304602F021F90021304602F02DF90497CE
:1006600030461AEE103A1BEE102A1AEE901A8DEC54
:10067000048A02F0A5F9641CE4B2042CE2D3DFF88A
:1006800088804FF47A67DFF8C4901B4EA8F14008C9
:100690005FF0000408EB8401C4EB441291ED000A02
:1006A00005EB820005A902F0A5F8317808A839F811
:1006B0001120002101F014FEB088B84207D37078F1
:1006C000012804D100227069114603F033FA641C3A
:1006D000E4B2042CDED3B1883046B94201D2491CC1
:1006E00081800022B069114603F024FA01210BA891
:1006F00003F0B9F9CCE700000000002094000020CE
:100700000024024000000240F002002024040040C7
:10071000000000453946713F0008024024040140B2
:10072000000C024000280240001802402400004053
:1007300000140240240C00400000000000F07F453F
:1007400000F07FC500C0CC436F12833A44500008CC
:10075000017C9FED0C0A012913D10168086800B2E1
:1007600000EE900AF8EEE00AF0EEE00A10EE902AB1
:10077000B2F1804F03DB00EE100AB8EEC00A002091
:10078000086070470000000070B5044600F00CF9E6
:100790000546601C02D004480078044400F004F9C7
:1007A000401BA042FAD370BD240000202DE9F84F71
:1007B000DFF89CE100224FF001084FF0030B4FF0EF
:1007C0000F0A00BF0B6808FA02F42340A34271D15C
:1007D0004D68022D01D0122D0FD1D5080E69570793
:1007E00000EB8505A9462D6AFF0E0AFA07FCBE40FC
:1007F00025EA0C052E43C9F820600F7955000668DC
:100800000BFA05FC07F0030726EA0C06AF40374356
:1008100007604E68012E05D0022E03D0112E01D0A4
:10082000122E0ED18668CF6826EA0C06AF403743F9
:10083000876046680F79A643C7F300179740374390
:100840004760C4688E6824EA0C04AE402643C66044
:100850004C68E40075D53F4C256845F4804525601B
:10086000246822F00306950704F4804400943A4C6F
:100870002D0F2644D6F80848DFF8E0C00AFA05F73D
:10088000604524EA070401D100272EE0344FB84226
:1008900001D1012729E0334FB84201D1022724E0DA
:1008A000314FB84201D103271FE0304FB84202D187
:1008B00004271AE045E02E4FB84201D1052714E085
:1008C0002C4FB84201D106270FE02B4FB84201D17F
:1008D00007270AE0294FB84201D1082705E0284F31
:1008E000B84201D1092700E00A27AF4027437546E7
:1008F000C6F808784E68DEF80040F60324EA0304E0
:1009000000D51C43124E2C60361D4D683468AD0373
:1009100024EA030400D51C430D4F346008374D68AA
:100920003C68ED0224EA030400D51C43084D3C60FA
:100930000C354E682C68B60224EA030400D51C432B
:100940002C60521C102AFFF43DAFBDE8F88F000068
:10095000003C0140443802400030014000000240A9
:100960000004024000080240000C02400010024057
:100970000014024000180240001C02400020024007
:10098000002402400069084000D0012070474269FD
:1009900031EA020200D10904816170470AB1816124
:1009A00070470904FBE700000148806870470000B9
:1009B0002400002030B590F84120202A24D190F85E
:1009C0004020012A20D0012380F84030242280F8E2
:1009D0004120202300240268156825F001051560D8
:1009E0000268156825F480551560026815680D4386
:1009F000156001680A6842F001020A6080F841301F
:100A000080F84040002030BD022030BD30B590F865
:100A10004120202A22D190F84020012A1ED0012313
:100A200080F84030242280F84120202400250268EC
:100A3000136823F0010313600268136823F47063E2
:100A400043EA0121116001680A6842F001020A606C
:100A500080F8414080F84050002030BD022030BD79
:100A600070B5040004D094F84100002510B106E0F0
:100A7000012070BD204684F8405000F0DFF82420AB
:100A800084F841002068016821F001010160D4E987
:100A9000001020F0706008612068816821F4004136
:100AA0008160E06821680128A06806D040F4044015
:100AB0008860E068022803D006E040F40040F7E7D1
:100AC00021684FF40060486020212068114A436883
:100AD000134343602068C26822F40042C26054F8A5
:100AE000106B0DCC104340EA0320F06054F81C3C1E
:100AF000D4E900021043186054F81C0D026842F05B
:100B000001020260656484F84110256384F8425054
:100B1000002070BD008000022DE9F84F044690F8D7
:100B200041001F469046DDF828A08B4620287ED144
:100B300094F8400001287AD0012084F84000FFF7A3
:100B400033FF0122064619230090D103204601F00D
:100B500029FBE0BB0025212184F84110102084F8F6
:100B6000420065646785618DFF2732484FF0007948
:100B7000C4F82480FF294FF08078656303D9278566
:100B80003A46009039E0618D218500903AE059465F
:100B9000204601F0F1FA13E001F058FBB8B9606AA1
:100BA000216800788862606A401C6062608D401E27
:100BB0006085208D401E80B22085618D01B168B1B5
:100BC000608D3246514600282046E5D100E002E023
:100BD00001F015FBD0B10120BDE8F88F002253468B
:100BE00080212046009601F0DDFA0028F3D1608DC7
:100BF000FF2804D927853A4600954346C7E7608D0C
:100C0000208500954B4694F82820C0E720682021D5
:100C1000094AC161206843681340436084F8411069
:100C200084F84250002084F84050D5E7FFE70220C6
:100C3000D2E700000020008000E800FEF0B587B099
:100C4000044614216846FFF79FFB26681220204CBB
:100C50000123204F03221E4904251034BE4219D11E
:100C60000E6846F002060E600968CDE9023201F016
:100C700002010591C0210495CDE90010164869468E
:100C8000FFF794FD206840F400102060206800F415
:100C900000101AE0114FBE4218D10E6846F020062F
:100CA0000E600968CDE9002001F020010C48CDE973
:100CB0000232CDE904516946FFF778FD206840F41F
:100CC00080002060206800F48000059007B0F0BD2F
:100CD00030380240005400400004024000580040F8
:100CE0000014024002488168027811448160704714
:100CF00024000020032010B500F08CF8002000F044
:100D000005F800F03DF8002010BD000010B50022ED
:100D10000146192088B000F05DF8192000F04CF869
:100D20001348016841F001010160006805A900F065
:100D300001000690684600F0E9FB00F007FC0D4951
:100D4000400000220C4CB0FBF1F10C4840F2E733BC
:100D50000460C0E90332491EC0E9011200F0CCFF73
:100D600010B1012008B010BD044800F0E1FFF9E720
:100D70004438024040420F0000000140EC040020D3
:100D80000C4882B0016841F080510160006800F0B9
:100D9000805000900748001D016841F480410160C7
:100DA000006800220F2100F480400090901E02B0E5
:100DB00000F010B840380240002809DB410900F07B
:100DC0001F028900012001F1E0219040C1F80001DB
:100DD000704700000E4BF0B41B680D46C3F30223AE
:100DE000C3F10706042E00D90426191D072901D2D4
:100DF000002300E0DB1E012404FA06F19C40491E9A
:100E00002940641E994014402143F0BC02F015B8FB
:100E10000CED00E0064900F0070210B54FF6FF04A4
:100E20000868044B204040EA02201843086010BDC7
:100E30000CED00E00000FA051848F8B5016841F033
:100E4000805101600068164C00F0805000902068CE
:100E500040F480302060FFF7A7FD4FF47A76054616
:100E600005E000BFFFF7A0FD401BB0420FD860684F
:100E7000C003F7D5206840F400302060FFF794FDF0
:100E8000054606E0FFF790FD401BB04201D9032064
:100E9000F8BD60688003F5D50020F8BD40380240F9
:100EA000007000402DE9F84F04460078DFF82494E4
:100EB0004FF000063746C0070ED0D9F8001021F4D5
:100EC0000001C9F80010D9F80010626B1143C9F88D
:100ED0000010606B00B90126FE4D206884350003C8
:100EE0000ED5E16B286820F4401008432860E06BC1
:100EF000B0F5801F01D010B102E0012600E001270B
:100F000020684FF4800BC0020CD5216C286820F4B7
:100F1000400008432860206C584501D1012601E0BB
:100F200000B901272068C10100D50126800666D5D9
:100F3000E8483830016841F0805101600068DFF80E
:100F400098A300F080500090DAF8001041F480710E
:100F5000CAF80010FFF728FD804605E0FFF724FDE2
:100F6000A0EB080064287DD8DAF80000C005F5D5AC
:100F7000DFF8608308F16808D8F8000010F44070CA
:100F80002AD0218E01F44071814225D0D8F800107A
:100F9000D8F8002021F4407142F48032C8F80020D3
:100FA000D8F8002022F48032C8F80020C8F80010D9
:100FB000D8F80000C0070FD0FFF7F6FC824607E024
:100FC000FFF7F2FCA0EB0A0141F288308142CAD857
:100FD000D8F800008007F3D5206BC0F30121032966
:100FE0007ED0D9F8001021F4F811C9F80010228E33
:100FF000D8F80010C2F30B021143C8F80010207893
:10100000C00607D5286820F0807028602868A16B8A
:10101000084328602188AF488830490405D5626EAE
:10102000016821F44031114301602188090405D58C
:10103000A26E016821F44021114301602168C903B7
:1010400005D5E26E016821F4401111430160216869
:10105000890305D5226F016821F440011143016025
:10106000217800E034E1490605D5626C016821F081
:101070000301114301602178090605D5A26C0168BE
:1010800021F00C01114301602188C90505D5E26CEE
:10109000016821F03001114301602188890505D5DF
:1010A000226D016821F0C0011143016021884905CA
:1010B00005D5626D016821F44071114301602188FA
:1010C000090505D5A26D016821F440611143016055
:1010D0002188C90407D5E26D016821F4405100E080
:1010E0005FE0114301602188890405D5226E016803
:1010F00021F44041114301602168490205D5A26FE6
:10110000016821F080611143016021684FF0006A9D
:10111000890209D5E26F016821F000611143016085
:10112000E16F514500D1012721680A0700D5012749
:10113000490305D5626F016821F0407111430160D8
:101140002168090206D5D4F88020016821F0805179
:10115000114301602168490106D5D4F88420016853
:1011600021F00051114301602068000106D5D4F838
:101170008810286820F00070084328602068C000AC
:1011800006D5D4F88C10286820F0806008432860C9
:10119000DFF84891012E0ED02068B0F1007F0AD010
:1011A0008FE04F4AD9F80030104023F4F812024380
:1011B000C9F800201BE7D9F800004E4620F08060F7
:1011C000C9F80000FFF7F0FB804605E0FFF7ECFBF5
:1011D000A0EB080064287BD830680001F6D42178A1
:1011E0003C487C30C90712D0616B81B9237A6268B0
:1011F0000168D0F800C09201C1F3014142EA014206
:10120000CCF3036142EA016141EA037101602168A4
:101210000A0303D5E26BB2F5801F04D0C9021AD5C8
:10122000216C594517D16368016894F80CC00268B5
:101230009B01C1F3014143EA0141C2F3027241EA59
:101240000C6141EA027101602968626A21F01F01A4
:10125000521E114329602168C90110D5238A626892
:101260000168D0F800C09201C1F3036142EA034271
:1012700042EA0162CCF3027142EA01710160216825
:1012800089010CD56168228A237B94F808C0890102
:1012900041EA024141EA036141EA0C7101603168AF
:1012A000B04641F080613160FFF77EFB064604E006
:1012B000FFF77AFB801B64280AD8D8F800000001E9
:1012C000F6D5E7B3D9F800004E4620F0805009E08B
:1012D0007BE0000008380240007000400038024007
:1012E000FFFCFF0FC9F80000FFF75EFB074604E0B4
:1012F000FFF75AFBC01B642867D83068C0438000E2
:10130000F6D5216835480A0301D5E26B1AB1C90246
:101310001DD5216CD9B963690168277E02689B01DC
:10132000C1F3014143EA0143C2F3027143EA076298
:1013300042EA0171016029686FF0FF0300E04BE0B1
:10134000A26A21F4F85103EB0222114329602168BB
:10135000890212D5E16F51450FD1238C6269016872
:1013600007689201C1F3036142EA034242EA016263
:10137000C7F3027142EA017101602178090716D5AD
:1013800061690268D0F800C08B01277FC2F3036255
:10139000CCF3014143EA014141EA026141EA0771AC
:1013A00001602868E16A20F4403008432860306812
:1013B00040F080503060FFF7F7FA044608E000BFC5
:1013C000FFF7F2FA001B642802D90320BDE8F88F6A
:1013D0003068C0438000F3D40020F7E7883802402B
:1013E0002DE9F04705000F4663D0444E306800F009
:1013F0000F00B84209D2306820F00F003843306047
:10140000306800F00F00B84253D128683C4C810787
:1014100012D5400703D5206840F4E05020602878BA
:10142000000703D5206840F460402060A968206868
:1014300020F0F000084320602878C0072AD0304907
:1014400068680839012810D00968022810D0890777
:1014500000292EDA216821F0030101432160FFF702
:10146000A3FA804641F288390DE009688903EFE765
:101470008901EDE7FFF798FAA0EB0801494502D989
:101480000320BDE8F0876868216801F00C01B1EB2A
:10149000800FEFD1306800F00F00B8420BD93068F0
:1014A00020F00F0038433060306800F00F00B84281
:1014B00001D00120E5E72878400705D5E9682068D4
:1014C00020F4E050084320602878000706D52869FA
:1014D000216821F4604141EAC000206000F046F834
:1014E0002168084AC1F30311515CC84006490860ED
:1014F0000020FFF70BFC0020C3E70000003C024087
:101500000838024090500008200000200D4A0F23A8
:1015100030B503604FF4E0540B4B156805F003053C
:101520004560156805F0F0058560156805F4E0551F
:10153000C560126804EAD2020261186800F00F0068
:10154000086030BD08380240003C024004490548AC
:1015500009680068044AC1F34231515CC8407047D1
:101560000838024020000020A0500008154910B59E
:101570001548096811F00C0213D04110042A0FD04D
:10158000082A0ED10F4C241F2268236802F03F0264
:101590005B0207D52068C0F38810A0FB010106E0BC
:1015A000084610BD2168C1F38811A1FB000100238A
:1015B000FEF7A0FE2168C1F30141491C4900B0FBC0
:1015C000F1F010BD083802400024F4002DE9F84F76
:1015D00005004FF000076ED02878DFF82093A9F1BE
:1015E000040AC007AAF104044CD0D9F800104846F8
:1015F000C1F38101012908D00068C0F381000228ED
:101600000AD1DAF80000400206D52068800339D5F7
:1016100068680028DFD035E06868B0F5803F0BD0FF
:1016200010B1B0F5A02F11D0206820F480302060D8
:10163000206820F4802002E0206840F480302060A0
:10164000686890B1FFF7B0F906460AE0206840F4F8
:1016500080202060F0E700BFFFF7A6F9801B642818
:1016600072D820688003F7D50CE0FFF79DF9064695
:1016700005E000BFFFF798F9801B6428F0D82068C8
:101680008003F7D42878800742D5D9F8001048465F
:1016900011F00C0F08D00068C0F3810002280BD1B4
:1016A000DAF80000400207D42068800718D5E868FF
:1016B000012800D114E01EE1E8680028206817D056
:1016C00040F001002060FFF76FF9064605E000BF1B
:1016D000FFF76AF9801B0228C2D820688007F7D577
:1016E0002869216821F0F80141EAC00020600FE07C
:1016F00020F001002060FFF757F9064605E000BF23
:10170000FFF752F9801B02281ED820688007F7D403
:101710002878000729D5794869696C300029804606
:10172000016812D041F001010160FFF73DF9064662
:1017300005E000BFFFF738F9801B022804D8D8F86D
:1017400000008007F6D510E089E021F0010101607A
:10175000FFF72AF9064604E0FFF726F9801B022866
:101760007DD8D8F800008007F6D4287840076BD5DC
:10177000DFF8888108F13808D8F80000C0000BD4E1
:10178000D8F8001041F08051C8F80010D8F80000D7
:10179000012700F08050009059480168C90512D413
:1017A0000168834641F480710160FFF7FDF8064649
:1017B00005E000BFFFF7F8F8801B64284FD8DBF87E
:1017C0000000C005F6D54D4EA868683601280AD03D
:1017D00008B1052811D0306820F001003060306871
:1017E00020F0040002E0306840F001003060A8689A
:1017F000A0B1FFF7D9F883460CE0306840F0040050
:101800003060F0E7FFF7D0F8A0EB0B0141F2883031
:10181000814268D830688007F4D50EE0FFF7C4F83D
:10182000834607E0FFF7C0F8A0EB0B0141F28830D8
:10183000814258D830688007F4D42FB1D8F800100E
:1018400021F08051C8F80010A869E0B3D9F8001061
:10185000C1F3810102294ED00228206800E042E055
:1018600020F08070206003D0FFF79EF805463DE031
:10187000FFF79AF8064604E0FFF796F8801B022867
:1018800031D820688001F7D4D5E90921DFF874C088
:10189000D5E9070695F830304F0895F82C103043FD
:1018A0000CEB074545EA8212104340EA016040EA2A
:1018B0000370CAF80000206840F080702060FFF7D5
:1018C00073F8054605E014E0FFF76EF8401B0228A8
:1018D00009D820688001F7D50BE000BFFFF764F856
:1018E000401B022802D90320BDE8F88F2068800140
:1018F000F4D40020F8E70120F6E7000008380240A1
:10190000007000400000FFFF2DE9F047040005D003
:1019100094F85D000025A56218B107E00120BDE83C
:10192000F087204684F85C5000F050F8022284F8DA
:101930005D204FF4E0632068016821F04001016000
:10194000E068984201D9002101E04FF48051B0F5E0
:10195000706F02D0984200D0A5624FF00109266B4B
:101960002EB9984201D9226301E0C4F83090D4E93D
:101970000468D4E90102278B46EA0806A36A1043EB
:1019800007F4007830432668D4E907C240EA08002B
:1019900040EA0C00CC460427104318433060D4F8CA
:1019A0001880666B606AE26807EA1847236830436C
:1019B0003A431043084358602068C16921F400612C
:1019C000C161256684F85DC00020A8E710B586B027
:1019D000044614216846FEF7D7FC12492068884265
:1019E0001DD11148016841F480510160006800F484
:1019F000805005900C481438016841F001010160E5
:101A000000680221002200F001000590E02003237D
:101A100005248DE81F0005486946FEF7C7FE06B09D
:101A200010BD000000300140443802400000024078
:101A30002DE9F05F8B4690F85C1000271D460A9E4A
:101A40000129924604464FF001090ED0012084F886
:101A50005C00FEF7A9FF804694F85D0061680128EC
:101A60000CD0B1F5827F07D102E00220BDE8F09FE3
:101A7000A16809B9042801D00227FFE0BBF1000FDB
:101A800024D0BAF1000F21D005B394F85D000428EA
:101A900002D0052084F85D00A4F844500020A587FA
:101AA0004FF4E062C4F838B0C4F840A0E1682066A2
:101AB0009142E0642065A4F84650E58701D8012DE5
:101AC00006D92068416821F4805105E00127D5E05E
:101AD0002068416841F480514160206801684906EE
:101AE00003D4016841F040010160E0689042606801
:101AF00045D908B1012D3AD1A06B21680088C86092
:101B0000A06B801CA063E08F401EE0872FE0206860
:101B1000816889070FD5E18F69B1B9F1010F0AD149
:101B2000A26B4FF000091188C160A06B801CA063FC
:101B3000E08F401EE08720688168C9070FD0B4F8A5
:101B4000461061B1C0684FF00109226C1080206C12
:101B5000801C2064B4F84600401EA4F84600FEF73E
:101B600023FFA0EB0800B04201D3701C74D1E08FBA
:101B70000028CCD1B4F846000028C8D175E008B1DF
:101B8000012D6BD1E08F21680128A06B07D9008857
:101B9000C860A06B801CA063E08F801E06E0007808
:101BA0000873A06B401CA063E08F401EE08755E0E7
:101BB0002068816889071AD5E18FC1B1B9F1010F99
:101BC00015D1E18F0129A16B07D90988C160A06BEC
:101BD000801CA063E08F801E06E009780173A06B73
:101BE000401CA063E08F401EE0874FF00009206892
:101BF0008168C90728D0B4F8461029B3B4F8461054
:101C0000012914D9C068216C0880206C801C2064D4
:101C1000B4F84600801EA4F84600B4F84600012837
:101C200010D82068416841F4805141600AE0007B8F
:101C3000216C0870206C401C2064B4F84600401EE3
:101C4000A4F846004FF00109FEF7AEFEA0EB080035
:101C5000B04202D3701C01D018E0BEB1E08F002862
:101C6000A6D1B4F846000028A2D14246314620460B
:101C700000F012FF10B1202020660127012084F817
:101C80005D000021384684F85C10EFE60327F5E795
:101C9000704770477047000070B590F83C20012AEB
:101CA00024D0134C012580F83C50022280F83D20BE
:101CB00002685368A242966802D00E4CA24203D139
:101CC0004C6823F4700323430C6823F07003896885
:101CD0001C435460002326F0800602683143916063
:101CE00080F83D5080F83C30184670BD022070BD31
:101CF000000001400004014010B5040003D094F836
:101D00003D0010B107E0012010BD002084F83C0028
:101D1000204600F00CF8022084F83D002068211DC8
:101D200001F00CF8012084F83D00002010BD704740
:101D30000168094ACB6843F00103CB6001688868F9
:101D40001040062806D0B0F5803F03D0086840F068
:101D50000100086000207047070001002DE9F041F4
:101D600004000D4603D094F83D0018B108E00120AE
:101D7000BDE8F081002084F83C00204600F042F8E5
:101D80001F4A022084F83D0020688168114081606C
:101D90002068211D00F0D2FF226840F20336AF69AF
:101DA00040F60C4C2B684FF2F00EA86891680B437C
:101DB0009169B14341EA07210843D5E9031720EAB5
:101DC0000C00D5E9076C20EA0E00D2F820E03F01B4
:101DD00040EA062668686D69314347EA0C3793602C
:101DE00023680F4301229F612EF0AA0141EA0513E7
:101DF00021681843086284F83D200020B8E70000FD
:101E0000F8BFFEFF70B586B0044614216846FEF7A1
:101E1000BBFA3E480021246803253C4A10380223BF
:101E2000B4F1804F1ED03A4EB44234D1146844F01D
:101E300002041460126802F002020592026842F085
:101E400004020260006800F004000590C0200090C9
:101E5000CDE90131CDE903132E486946FEF7A6FC12
:101E600006B070BD146844F001041460126802F0FA
:101E700001020592026842F001020260006800F06F
:101E80000100059001200095CDE90131CDE9031055
:101E900021486946E2E7214EB44219D1146844F062
:101EA00008041460126802F008020592026842F009
:101EB00080020260006800F0800005904FF44060EE
:101EC0000090CDE90131CDE9031315486946C5E716
:101ED000144A9442C4D10D4A121D146844F00204FD
:101EE0001460126802F002020592026842F48072E5
:101EF0000260006800F48070059060200090CDE9D9
:101F00000131CDE9031508486946A7E7403802408A
:101F1000000400400008024000000240000C0040A5
:101F2000001C02400004014000200240704770B5D0
:101F30000446006800250169C943890715D4C168B2
:101F4000C943890711D4EA1E026101212177206863
:101F500080698007204602D0FFF7E8FF04E000F028
:101F6000A7F8204600F0A5F8257720680169C94345
:101F7000490717D4C168C943490713D402216FF038
:101F80000402026121772068806910F4407F2046B6
:101F900002D0FFF7CBFF04E000F08AF8204600F003
:101FA00088F8257720680169C943090716D4C168F4
:101FB000C943090712D404216FF008020261217796
:101FC0002068C0698007204602D0FFF7AFFF04E019
:101FD00000F06EF8204600F06CF825772068016963
:101FE000C943C90617D4C168C943C90613D4082117
:101FF0006FF01002026121772068C06910F4407F01
:10200000204602D0FFF792FF04E000F051F820468E
:1020100000F04FF8257720680169C943C90708D146
:10202000C168C943C90704D1891E0161204600F077
:1020300041F820680169C943090609D4C168C94348
:10204000090605D46FF0800101612046FFF721FEEB
:1020500020680169C943C90509D4C168C943090693
:1020600005D46FF4807101612046FFF711FE2068EE
:102070000169C943490609D4C168C943490605D461
:102080006FF040010161204600F01EF820680169F0
:10209000C94389060BD4C168C943890607D46FF0C8
:1020A000200101612046BDE87040FFF7F3BD70BD1F
:1020B0007047704700680349884201D1FEF712BE9D
:1020C00070470000000001407047FEE701688A6920
:1020D000D243920701D400228A6200688169C94311
:1020E000C90703D0816941F0010181617047000097
:1020F0002DE9F0410446006890460E468069C043D1
:10210000C00635D40025202720688069C04380069A
:1021100016D5701CF8D0FEF747FCA0EB0800B042C3
:1021200001D8002EF0D1606C84F8405040F02000BF
:10213000606484F8417084F842500120BDE8F08169
:1021400021681020C8612068C7612046FFF7BEFFE4
:102150002068084942680A404260606C40F0040010
:10216000606484F8417084F8425084F84050E4E799
:102170000020E3E700E800FE70B50068C1F3090144
:10218000074E41EA0241049C4FF4806542681943BE
:1021900005EA54553543AA4321430A43426070BDC2
:1021A000FF63FF032DE9F0411D4617460E46044626
:1021B000DDF8188008E0681C06D0FEF7F5FBA0EB00
:1021C0000800A8420BD855B12068806936EA0000A3
:1021D00013D00020B842EED00020BDE8F081626C40
:1021E000002084F84000202142F02002626484F83C
:1021F000411084F842000120EFE70120EAE770B5C2
:1022000016460D4604460DE0324629462046FFF7A5
:102210006FFF08B1012070BDFEF7C6FB801BA8420E
:1022200007D835B120688069C0438006ECD400200F
:1022300070BD626C002084F84000202142F0200232
:10224000626484F8411084F84200E3E770B51646F2
:102250000D4604460FE0324629462046FFF748FF68
:1022600008B1012070BD681C05D0FEF79DFB801BE6
:10227000A84207D835B120688069C0438007EAD4F6
:10228000002070BD626C002084F84000202142F0E4
:102290002002626484F8411084F84200E1E7000003
:1022A0000D4C00270D4E4FF400650EB54FF0FF3872
:1022B00061694246684601F0F3FB01222946304637
:1022C000FEF76CFB012001F0C7FB002229463046D7
:1022D000FEF764FBA780EBE700000020001402403B
:1022E0001301417112098271C37100F028B841F0E5
:1022F00030014171130983711201C27100F01FB8DE
:1023000041F06003437182710021C17100F017B880
:1023100070B5154604460F2201604121FFF7F0FF1A
:1023200045F004012046BDE87040AFF3008041F065
:102330007001417100228271C271AFF3008038B523
:10234000202101714FF47A720092421D0468032328
:102350002046FEF7E1FB38BD2DE9F04F87B0142190
:102360006846FEF711F88748016841F020010160D6
:10237000016801F020010591016841F4807101605C
:10238000016801F480710591016841F080010160EC
:10239000016801F080010591016841F001010160CF
:1023A000016801F001010591016841F0040101603B
:1023B000016801F004010591016841F0020101602A
:1023C000016801F002010591016841F400710160AA
:1023D000016801F400710591016841F00801016094
:1023E000016801F008010591016841F040010160B8
:1023F000016801F040010591016841F480610160CC
:10240000006800224FF4E04100F4806005905E48CF
:10241000FEF7C4FA5D4D002240F638012846FEF76B
:10242000BDFADFF86CB1AE14002231465846FEF713
:10243000B5FA4FF4E077574800223946FEF7AEFA76
:102440004FF4E068544800224146FEF7A7FA4FF4E3
:10245000C059524800224946FEF7A0FA50480022CF
:102460000121FEF79BFA4FF4064A4E4800225146DE
:10247000FEF794FA4C480022C021FEF78FFA0024A0
:102480006946B80100900120CDE901043E4803945B
:10249000FEF78CF940F63800009001206946CDE93E
:1024A000010428460394FEF781F910253F48CDE941
:1024B000005469460294FEF779F938486946CDE937
:1024C00000540294FEF772F904206946CDE9000435
:1024D00058460294FEF76AF9E8026946CDE900041D
:1024E00029480294FEF762F903206946CDE9000409
:1024F00028480294FEF75AF901200096CDE901041C
:10250000694658460394FEF751F901200097CDE93A
:102510000104204869460394FEF748F90121CDF8EB
:102520000080CDE901141C4869460394FEF73EF98A
:102530000121CDF80090CDE90114184869460394B3
:10254000FEF734F9012001468DE81300144869466E
:102550000394FEF72BF90121CDF800A0CDE9011479
:10256000104869460394FEF721F9C02001218DE847
:1025700013000D4869460394FEF718F907B0BDE84B
:10258000F08F00003038024000200240001402406A
:102590000004024000240240000002400008024003
:1025A000000C02400018024000280240001C0240BB
:1025B0000E48002110B50C4C01230D4A0460C0E9FF
:1025C0000121C0E9033141618161C1610162FEF70E
:1025D00047FA06480021FEF7EDF9BDE81040034830
:1025E0000021FEF713BA00000054004094000020C0
:1025F0000D0300600E48002110B50C4C01230D4A5C
:102600000460C0E90121C0E9033141618161C16118
:102610000162FEF725FA06480021FEF7CBF9BDE876
:10262000104003480021FEF7F1B9000000580040B7
:10263000E00000200D03006070B510484FF44075B5
:1026400000210D4C4FF482761823C0E90215016178
:102650006215E0E805460725082680E80E00C160FF
:102660000161C0E90515C0E907160448FFF74CF9F8
:10267000A014606070BD0000003001402C010020FB
:1026800030B58DB024216846FDF77EFE1148002448
:1026900001214FF6FF73099403228D070A940B94CE
:1026A000C0E90054C0E90243046184610092CDE9AD
:1026B000014103940494CDE90541694607940894C7
:1026C000FFF74CFB034809A909940B94FFF7E4FAC0
:1026D0000DB030BD9001002030B58DB0242168468A
:1026E000FDF752FE124800244FF6FF730F4D099478
:1026F00001210A9403220B94C0E90054C0E902436B
:10270000046184610092CDE9014103940494CDE910
:102710000541694607940894FFF720FB044809A97E
:1027200009940B94FFF7B8FA0DB030BD00040040D7
:10273000D001002030B58DB024216846FDF724FE7D
:10274000124800244FF6FF730F4D099401210A949B
:1027500003220B94C0E90054C0E902430461846180
:102760000092CDE9014103940494CDE90541694605
:1027700007940894FFF7F2FA044809A909940B9406
:10278000FFF78AFA0DB030BD000C004010020020A7
:1027900010B58CB024216846FDF7F6FD13480024DF
:1027A000114A4FF6FF73099401210A940B940260B9
:1027B00003224460C0E902430461446184610092E1
:1027C000CDE9014103940494CDE90541694607949C
:1027D0000894FFF7C3FA054809A909940A940B94D1
:1027E000FFF75AFA0CB010BD00040140500200205F
:1027F000FEE7000070B5044690F87A000D4620B35D
:10280000DFED1B0A9FED1B1A04F1400020EE200AA9
:10281000C0EE010AC4ED1C0A94ED060AFDF798FF0C
:10282000F0EE400A84ED1D0A94ED1C0A204600F0EB
:1028300079F894ED090AB0EEC00A10EE100AB0F172
:10284000814F0ADB94ED090A0BE094F86C102846DE
:10285000BDE870400022FFF743BD9FED070A84EDFD
:10286000090A29462046BDE8704000F030B8000053
:102870000000C046B8E529430000000080F87A1047
:102880000029B0F85810436D03D001221846FEF716
:1028900085B80022FAE700009FED060A80F86C1068
:1028A000114680F87A2080ED1C0A80ED1D0AFFF7A2
:1028B000E5BF000000000000436E0129B0F8681079
:1028C00003D001221846FEF769B80022FAE770B576
:1028D00004460D462DED028BB0EE408AC06DB5EE7C
:1028E000C08AB4F86010F1EE10FA05DB0122FEF7A1
:1028F00055F8BCEEC80A06E00022FEF74FF8B0EE2D
:10290000C80ABCEEC00A10EE100A82B2A4F8782001
:1029100094F86C102846BDEC028BBDE87040FFF7C0
:10292000E6BC704790F83010012904D0C0ED0A0AC7
:1029300080ED090A704730EE601AD0ED0B1A90ED69
:10294000012A80ED070A90ED050A41EE021A80ED9A
:10295000081AC0ED0B1AF4EEC01AF1EE10FA09DCF9
:10296000B1EE400AF4EEC01AF1EE10FA02D390ED87
:102970000B0A01E080ED0B0A90ED003AD0ED0A2A37
:1029800090ED022A01EE030A30EEE21AD0ED031AAE
:1029900001EE020A80ED090AB4EEE10AF1EE10FA46
:1029A00002DDC0ED091A08E090ED041AB4EEC10A88
:1029B000F1EE10FA01D280ED091AC0ED0A0A704753
:1029C0000FB41C2270B505A904460C9DFDF7C3FC8D
:1029D0009FED070A84F8305084ED080A84ED090A57
:1029E00084ED0A0A84ED0B0A70BC5DF814FB00004C
:1029F000000000000EB500F0E9FE00F0FBFE002133
:102A00001E22084600F0D4FF062000F0C5FE02207A
:102A100000F0BDFF012000F0ABFF01221B48510276
:102A2000FDF7BCFF1A481E21FDF7AEFC194C4FF014
:102A3000FF3632466846A16901F032F800F0D6FE52
:102A40004106E070F5D513491148891C00F056FF86
:102A500000F0B4FE00F095FEE0880D4D0D4A00EB4D
:102A600080001C32284405F1200101F05BFBE08866
:102A700000EB8000284400F095FD2070E08800EB1A
:102A80008000405D00F001006070D2E70018024055
:102A90009002002000000020F8B515460E460446BE
:102AA0000B464FF4C0510092002200F019F888B98B
:102AB0000022334680212046009500F05CF848B99A
:102AC000002233464FF4C0612046009500F008F81C
:102AD000002804D0206E40F0200020660320F8BDBE
:102AE0002DE9F0474FF4C0681D4617460E46DDF845
:102AF000209004460CE0464501D107B9007B681CD4
:102B000006D0FDF751FFA0EB0900A84208D23DB165
:102B1000206881683140B942EDD10020BDE8F087DE
:102B20002068416821F0E00141606068B0F5827F73
:102B30000BD1A068B0F5004F02D0B0F5806F04D182
:102B40002068016821F040010160A06AB0F5005FD3
:102B500009D12068016821F40051016020680168F2
:102B600041F400510160012184F85D10002084F8D7
:102B70005C000320D2E72DE9F0411D4617460E46C2
:102B80000446DDF8188008E0681C06D0FDF70CFF4D
:102B9000A0EB0800A8420BD255B12068806836EA45
:102BA000000030D00020B842EED10020BDE8F08116
:102BB0002068416821F0E00141606068B0F5827FE3
:102BC0000BD1A068B0F5004F02D0B0F5806F04D1F2
:102BD0002068016821F040010160A06AB0F5005F43
:102BE00009D12068016821F4005101602068016862
:102BF00041F400510160012184F85D10002084F847
:102C00005C000320D2E70120CDE70000502010B582
:102C100072B680F31188BFF34F8FBFF36F8F62B628
:102C200002F0A6F818B104494FF080500860002067
:102C300080F3118810BD000004ED00E030B5B7B09E
:102C4000342124A8FDF7A0FB142131A8FDF79CFB3B
:102C500090216846FDF798FB1E48016841F08051BD
:102C60000160006800F0805036901B48016841F414
:102C70004041016000680224042300F44040369083
:102C800001202C93D82582050104CDE92A42CDE903
:102C90002D542F94CDE9240124A8FEF797FCFEF7CC
:102CA000CBF8E2024FF4A0510025CDE9341231AA4D
:102CB0000F20072182E8310031A8FEF791FB4FF485
:102CC000404019951A9500906846FEF7EBF837B02A
:102CD00030BD00004038024000700040104A30B55E
:102CE0001048146800210F4B44F47004146008333A
:102CF00005680D4A0D4C45F0010505601960036833
:102D0000051D1340074A03600C322C600568E3057B
:102D1000034C25F480250560803C1160236030BDA4
:102D200088ED00E000380240FFFFF6FE103000247E
:102D30000148FFF7FCB80000EC040020F0B5274B79
:102D40004FF0804E264D02689842264E264F274C63
:102D500009D0704507D0A84205D0B04203D0B84290
:102D600001D0A04205D1D1F804C022F070024CEA93
:102D7000020298421BD0704519D0A84217D0B04229
:102D800015D0B84213D0A04211D0194DA8420ED090
:102D9000184DA8420BD0184DA84208D0174DA84294
:102DA00005D0174DA84202D0164DA84203D1CD68D8
:102DB00022F440722A434D6922F080022A430260C5
:102DC00098428A68C2620A68826201D0A04201D138
:102DD0000969016301214161F0BD0000000001406B
:102DE0000004004000080040000C004000040140C6
:102DF00000400140004401400048014000180040EC
:102E0000001C004000200040FEE703B40198410090
:102E1000009850EAC12018BF04204A0D18BF40F0A6
:102E2000010040F2FF72B2EB515F08BF40F00200B8
:102E3000012808BF052002B07047090700284FEAA3
:102E4000116104DB00F1E02080F80014704700F00D
:102E50000F0000F1E02080F8141D70470000000012
:102E600010B529499FED261B2DED020B84B0059866
:102E700020F000408842D8BF9DED040B2DDD234992
:102E8000884209D1049840B94FF0010000F078FB66
:102E900000F04EFB06B010BD05DB9DED040B30EEDF
:102EA000000B06B010BD68469DED040B00F0BCF8A9
:102EB00010F0030004BF9DED021B9DED000B0CD034
:102EC00001280ED09DED021B9DED000B022810D0B5
:102ED000012000F0D9FA06B010BD00F02DFA06B0BE
:102EE00010BD9DED021B9DED000B012000F0CCFA02
:102EF00001E000F021FA06B0B1EE400B10BD000079
:102F00000000000000000000FB21E93F0000F07F0E
:102F100010B529499FED261B2DED020B84B00598B5
:102F200020F000408842DCBF00209DED040B2EDD28
:102F30002249884209D1049840B94FF0010000F0BD
:102F40001FFB00F0F5FA06B010BD05DB9DED040B8C
:102F500030EE000B06B010BD68469DED040B00F08E
:102F600063F810F003000DD0012814D09DED021B72
:102F70009DED000B022816D000F0DEF906B0B1EE90
:102F8000400B10BD9DED021B9DED000B012000F0DC
:102F90007BFA06B010BD9DED021B9DED000B00F00D
:102FA000CBF906B010BD012000F06EFAE6E7000094
:102FB0000000000000000000FB21E93F0000F07F5E
:102FC00000B52DED028BB1EEC08B83B018EE100A68
:102FD00018EE901A8DED008B002818BF01200843D1
:102FE00020F00040C0F17F6000F1E040C00F14D03D
:102FF00010EE101A10EE900A8DED000B002918BF8C
:103000000121084320F00040C0F17F6000F1E04062
:10301000C00F04BF012000F0B3FAB0EE480B03B0BC
:10302000BDEC028B00BD00002DE9F14F04462DEDF3
:10303000020B2DED048B94B09FED9D0B80ED020BE8
:10304000199E9D4826F0004585420ADC9DED180B2F
:10305000002084ED000B14B0BDEC048B03B0BDE880
:10306000F08F96489FED969B9FED978BA84225DDAC
:1030700097489FED991B9FED9A2B9DED180B002E05
:103080000DDD30EE490B854212BF30EE480B30EEBD
:10309000410B30EE420B84ED000B0120DBE730EEFC
:1030A000090B854212BF30EE080B30EE010B30EEFB
:1030B000020B84ED000B4FF0FF30CCE78A48A842AA
:1030C00053DB9DED180B51EC100B00F05FFA41EC57
:1030D000100BB0EE401B9FED862B9FED870B290D4B
:1030E000DFF81CC201EE020B0120FDEEC00B10EE5A
:1030F000903A00EE903AB8EEE02BB0EE410B02EEC3
:10310000490B22EE081BFC44032830EE411B84EDE2
:10311000001B1DD011EE902A00EB4015113DC2F3AB
:103120000A528A1A954213DA0CEB0012B0EE403BB9
:1031300092ED000B401C20EE021B33EE410B33EEF0
:10314000403B33EE411B92ED023B12EE031BDBE7EB
:10315000002EA8BF1846BFF67EAF94ED000B584274
:10316000B1EE400B84ED000B75E7C6F3130040F49D
:10317000801EC6F30A50A0F2F530471100F01F057B
:10318000C5F12000DDF860B0139000200890099090
:1031900005200DF1080C5B49002D07EB0002794476
:1031A00008BF51F8221009D051F8223001EB8201FA
:1031B000AB404A68139922FA01F11943A1FB0E268C
:1031C000A1FB0B131A449A4234BF0123002303EBE3
:1031D00006080CEB8003D3E901A60E448E4234BFEF
:1031E0000121002192448A4411B1924502D903E0A1
:1031F000924501D2012100E00021C3E901A641442A
:103200004CF82010011EA0F10100C4DC04989DEDD3
:10321000050A00F10050810F04989FED3B4B8000A0
:1032200001EE100ADDED060A9DED072AB8EEC13B5E
:10323000B8EE401BB8EE600BB8EE422B002021EE3A
:10324000041B9FED334B20EE040B9FED334B22EE1E
:10325000042B30EE024B34EE014B34EE034B8DED7C
:10326000004B00909DED004B199834EE433B10F05D
:10327000004F33EE411B31EE400B32EE401B9DED13
:10328000000B9FED272B20EE020B9FED272B01EE6D
:10329000020B9DED001B9FED262B01EE020B1CBFC8
:1032A0004942B1EE400B84ED000B0846D3E6000026
:1032B0000000000000000000FB21E93F7CD9024033
:1032C00000004054FB21F93F3163621A61B4D03DE4
:1032D000FB21F93F000000000000601A61B4D03DFE
:1032E0007370032E8A19A33BFB21394100000000B3
:1032F00083C8C96D305FE43F000000000000E03F7C
:10330000CE1F0000661F0000000000000000103EFD
:10331000000000000000103C000000000000103A17
:103320003326A611460B113C182D4454FB21F93DC0
:1033300000000054FB21F93D10B52DED040B2DEDDF
:10334000068B82B0B0EE41AB09989FED299B20F02F
:103350000044B4F1795F0FDA9DED080BBDEEC00BB0
:1033600010EE100A002801BFB0EE490B02B0BDEC10
:10337000068B04B008BF10BD9DED080B1E4806214A
:1033800020EE008BB0EE480B784400F045F820EEBC
:10339000080B9DED081B1C48844228EE000B01EE33
:1033A0004A0B9FED171B28EE011BBCBF31EE400BF3
:1033B00039EE400B16DB1548A042BCBF9FED142B25
:1033C0008DED002B06DBA4F500100190002000908D
:1033D0009DED002B31EE421B39EE422B31EE400BBE
:1033E00032EE400B02B0BDEC068B04B010BD000005
:1033F000000000000000F03F1C1D00000000000065
:10340000000000000000E03F3333D33F0000E93FFD
:10341000000000000000D23F491E00EBC102B0EEE8
:10342000401B92ED000B31F006020DD0491E00EB5F
:10343000C102B0EE403B92ED002B31F00602B0EE3F
:10344000420B03EE010BF1D1022914D004290AD05A
:10345000062918BF704790ED0A2B00EE012B90ED66
:10346000080B02EE010B90ED062B00EE012B90ED08
:10347000040B02EE010B90ED022B00EE012B90ED00
:10348000000B02EE010B704731B504462DED040B25
:103490002DED068BB0EE419B07989DED060B20F0BD
:1034A0000040B0F1795F0DDA51EC100BFFF7ADFC85
:1034B000042808BF00F048F89DED060BBDEC068B14
:1034C00005B030BD20EE008B1348052128EE00AB7F
:1034D000B0EE480B7844FFF79FFF9FED111B8CB1B6
:1034E0009FED112B29EE022B0AEE402B9DED060BD2
:1034F00018EE029B0AEE419B30EE490BBDEC068BA9
:1035000005B030BD08EE001B9DED060B0AEE010B69
:10351000BDEC068B05B030BDC81C000000000000EB
:10352000495555555555C5BF000000000000E03F06
:103530009FED031B81EE010B7047000000000000AF
:1035400000000000000000009FED030B20EE000BC8
:1035500070470000000000000000000000000010A4
:1035600002E008C8121F08C1002AFAD1704770474C
:10357000002001E001C1121F002AFBD170470000AA
:1035800001490860704700009000002082B0CDE93A
:10359000000121F0004001909DED000B02B051ECC4
:1035A000100B70470078C0F382007047EFF305807E
:1035B000002800D0012070472DED048B94B0FDF75A
:1035C00099FBFFF73BFBFEF7C7FEFFF735F8FEF769
:1035D000EFFFFFF70FF8FFF753F8FFF77DF8FFF75E
:1035E000A9F8FFF7D5F89FED568BB0EE480BFFF723
:1035F0008FFCB7EEC00B544C84ED000AB0EE480BC4
:10360000FFF72EFCB7EEC00B9FED508A9FED509B4D
:10361000B1EE400A84ED010A84ED028AB0EE490B56
:10362000FFF776FCB7EEC00B84ED030AB0EE490B52
:10363000FFF716FCB7EEC00B9FED479BB1EE400ABB
:1036400084ED040A84ED058AB0EE490BFFF760FCB7
:10365000B7EEC00B84ED060AB0EE490BFFF700FC95
:10366000B7EEC00B9FED3E9BB1EE400A84ED070A1A
:1036700084ED088AB0EE490BFFF74AFCB7EEC00BA9
:1036800084ED090AB0EE490BFFF7EAFBB7EEC00B79
:103690004FF40056344D4FF48058B1EE400A84ED9B
:1036A0000A0A84ED0B8A0024770041462846FCF77D
:1036B000D9FE31462846FCF7D5FE39462846FCF7A8
:1036C000D1FE6420FDF760F8641CE4B20A2CECD350
:1036D000264DD5E90001CDE90F0100210FA800F02A
:1036E000DAF9234C6061D5E90201CDE9110100212D
:1036F00011A800F0D0F91422A06105F1200168465C
:10370000FCF729FE0021684600F042FA1422A0606E
:1037100005F1340105A8FCF71EFE002105A800F004
:1037200037FA1422E06005F148010AA8FCF713FEFD
:1037300000210AA800F02CFA206100F09BF9FEE7B6
:1037400000000060C1B7EE3FC0020020423EA8BDAD
:10375000000000C0C3260240000000C0C32602C013
:1037600000000060C1B7EEBF0020024034500008E6
:1037700000000020842801464FF0000000D0C81C43
:103780007047072010B500F0D7F840F07001BDE891
:103790001040072000F034B910B50528044601D9BF
:1037A000002106E0012000F0C7F80121A14020EA35
:1037B0000101BDE81040012000F022B9FF21E22004
:1037C00000F01EB9FF21E12000F01AB910B5064C37
:1037D000012291022046FDF7E1F800222046611502
:1037E000BDE81040FDF7DAB800180240072000F0ED
:1037F000A3B800000821002010B500F001F93F2116
:10380000012000F0FDF80321022000F0F9F8032167
:10381000084600F0F5F80321042000F0F1F8022139
:10382000052000F0EDF80E21062000F0E9F8002157
:10383000072000F0E5F80021112000F0E1F8002158
:10384000122000F0DDF80021132000F0D9F800214B
:10385000142000F0D5F80021152000F0D1F8002147
:10386000162000F0CDF800211C2000F0C9F800213E
:103870001D2000F0C5F8FFF7A1FFFFF7A3FFFFF73A
:1038800080FF01220248BDE810409102FDF786B892
:103890000018024001B582B04FF47A700123009005
:1038A00001AA034802A9FEF7C3F89DF804000EBD63
:1038B0002C0100202DE9F041DFF83C804FF48066B8
:1038C00015460C460022074631464046FDF766F88D
:1038D0003846FFF7DFFF04E0FF20FFF7DBFF04F8C7
:1038E000010B681EC5B2F7D231464046BDE8F04133
:1038F0000122FDF753B800000018024070B50D46D4
:103900000646072000F018F8C0F34204062C0CD23B
:103910000848005D00F010F8021E287003D06120F6
:103920003146FFF7C7FF204670BD00202870FF20FA
:1039300070BD00002450000870B50C4E4FF4806537
:103940000022044629463046FDF728F804F01F00FF
:10395000FFF7A0FFFF20FFF79DFF01220446294645
:103960003046FDF71BF8204670BD000000180240ED
:1039700010B504460020FFF7DFFF04F0010120F03E
:1039800001000143BDE81040002000F039B810B537
:1039900004460020FFF7D0FF022C06D020F00201E1
:1039A000BDE81040002000F02BB840F00201F7E71E
:1039B0002DE9F04117460E4605460220FFF7BCFFF1
:1039C0000124AC40204300F03F01022000F018F831
:1039D0000A4807F03F01405D00F012F80120FFF7B0
:1039E000ABFF012E06D020EA0401BDE8F041012022
:1039F00000F006B80443E1B2F7E7000024500008E5
:103A00002DE9F041134E4FF4806500220F46044625
:103A100029463046FCF7C2FF202C06D204F01F00D6
:103A200040F02000FFF736FF0AE02046FFF732FFA4
:103A3000E12C08D0E22C06D0E32C04D0FF2C02D0DD
:103A40003846FFF727FF29463046BDE8F0410122FE
:103A5000FCF7A4BF0018024010B500B9012000F027
:103A60000BFD002010BD10B501B9012100F02CFDA7
:103A7000002010BD10B500F09BFD002010BD10B55A
:103A8000FFF794FD18B1BDE8104001F069B9BDE839
:103A9000104001F05FB90022D0E9000100F058BEEB
:103AA0002DE9FF410D004FF000060746CDE9016505
:103AB0001ED0501C344603961FD002B11446FFF7A7
:103AC00075FD69464FF01008E8B1091D284603AAA4
:103AD00001F072F8012813D000960398E8B1144958
:103AE0004FF080500860BFF34F8FBFF36F8F14E02B
:103AF000802031462A46009011E04FF0FF34DEE787
:103B0000CDF80080E9E7091D2246284600F0B0FF05
:103B1000012808D054B1402000909DE8070087E8B4
:103B20000700BDE8FF81CDF80080F6E70020F3E74D
:103B300004ED00E037B582B0054614004FF00000F8
:103B4000009000D10124FFF731FD4FF0000388B150
:103B500003A96A46284600F025FF012811D10098E4
:103B600090B10A494FF080500860BFF34F8FBFF308
:103B70006F8F09E003A92246284600F05BFE01286A
:103B800002D0FF2005B030BD0020FBE704ED00E0CF
:103B90003EB50D460446B0F90800FFF7EBFD02A95B
:103BA0002B46CDE90001228AD4E9001092B201F03F
:103BB00097F8012801D000203EBD02983EBD0000CC
:103BC0002DE9F041184C0F46054666692068001D36
:103BD00000F060FB38B922680121A06992F82C201E
:103BE00091408843A061681C07D137B12168BDE8C6
:103BF000F0410E48091D00F086BB20683544B542EF
:103C00004560216805D2A068091DBDE8F04100F0BB
:103C100062BB6068091D00F05EFB206B854200D22C
:103C20002563BDE8F0810000300000200806002078
:103C30002DE9F041054600F073FB2E4C2E4F206914
:103C4000401C2061206810B1E06940B32DE0256080
:103C50002069012829D1002606EB860007EB8000A9
:103C600000F02BFB761C072EF6D323488C3000F097
:103C700024FB2148A03000F020FB1F48B43000F0A6
:103C80001CFB1D48C83000F018FB1B48DC3000F05E
:103C900014FB19488C3060601430A06005E0E86ABD
:103CA0002168C96A814200D825600120E16A491C67
:103CB000E162E96AA26988401043A06101EB8100DA
:103CC000291D07EB800000F01EFB00F04DFBE069B2
:103CD00000280CD02068E96AC06A884207D20749E8
:103CE0004FF080500860BFF34F8FBFF36F8FBDE878
:103CF000F0810000300000202C05002004ED00E0E1
:103D000030B4026C0B46002A0BD0C16844681144E1
:103D1000C160A14201D30168C160184630BCFCF704
:103D20001ABB30BC70472DE9F041856B1746026C19
:103D30000446002682B1C7B1E068FCF70CFBE168DD
:103D4000206C2268091AE160914202D26168081A67
:103D5000E060022F16D017E02068A8B9606801F073
:103D60006DF80646002060600EE0A068FCF7F3FAEC
:103D7000D4E90110226C1044A060884204D320686A
:103D8000A06001E005B16D1E6D1CA5633046BDE865
:103D9000F08110B50446006B00F0FCFA2046BDE847
:103DA000104000F0F7BA000011484FF4705110B500
:103DB000420706D00E49C01D20F00700411AC1F588
:103DC00070510C4C002301440839A4F1100221F079
:103DD0000701C4E900030C1A11604B600B60C0E9D5
:103DE000001494604FF000415460D16010BD000099
:103DF0001C0600207C000020144E4FF08058144C0C
:103E0000DFF85090A6F1C80712E000BF00F088FA72
:103E1000F068C568281D00F03DFA2069401E206149
:103E2000E068401EE06000F09FFA2846FFF7B1FF0F
:103E3000E0680028EAD138680128F9D9C9F800807B
:103E4000BFF34F8FBFF36F8FF2E70000F405002040
:103E50003000002004ED00E02DE9F0479A4681464D
:103E60006FF00303DDE9098403EB8202089D206BF8
:103E7000104420F00706700709D0502072B680F376
:103E80001188BFF34F8FBFF36F8F62B6FEE7231821
:103E90000A5C83F834200A5C12B1401C1028F6D367
:103EA000002784F84370072D00D30625E562201D06
:103EB000C4E9115700F00CFA04F1180000F008FAF8
:103EC000E764C5F10700A06184F850705246246190
:103ED00049463046646200F00DF9B8F1000F2060E9
:103EE00001D0C8F80040BDE8F087000030B51149A6
:103EF00000E011460A688242FBD34B685C1884429A
:103F000003D14468084623444B6043681D1895421A
:103F100009D1084C103C2468A24209D052681A44C6
:103F200042600A6812680260814200D0086030BDB9
:103F30000460F9E77C00002010B5044600F0F0F9B9
:103F4000A06B28B15FF0000400F00EFA204610BD0F
:103F50000124F9E706484168096829B14168C96840
:103F6000C9684968016370474FF0FF31FAE7000004
:103F7000300000200A484068401C4FF0500072B6E4
:103F800080F3118805D0BFF34F8FBFF36F8F62B6F8
:103F9000FEE7BFF34F8FBFF36F8F62B6FEE70000FF
:103FA000840000202DE9F041044600F0B9F994F9AD
:103FB000455004F1240609E0606A48B1304600F03B
:103FC00091FF08B100F0D4FA6D1E6DB2002DF3DC44
:103FD0004FF0FF3684F8456000F0C6F900F0A0F914
:103FE00094F9445004F1100709E0206948B13846BB
:103FF00000F078FF08B100F0BBFA6D1E6DB2002D25
:10400000F3DC84F84460BDE8F04100F0ADB9000095
:104010002DE9F0410027044600F002FB344E3068E1
:1040200008B9FFF7C1FEF06804424FD1E4B3083489
:10403000600710D004F00700C0F1080004446007D6
:1040400009D0502072B680F31188BFF34F8FBFF3B1
:104050006F8F62B6FEE73CB37068844236D824485E
:10406000103001460D6801E028460D466968A142FE
:1040700002D229680029F7D131688D4226D007681D
:104080002968016008376868011B102911D92819AF
:1040900042070AD0502072B680F31188BFF34F8FC9
:1040A000BFF36F8F62B6FEE710E041606C60FFF710
:1040B0001DFF69687068401A7060B268904200D253
:1040C000B0600020F2681143C5E9000100F046FF2E
:1040D000780709D0502072B680F31188BFF34F8F54
:1040E000BFF36F8F62B6FEE73846BDE8F08100008F
:1040F0006C00002070B5041F094E231F4FF080751F
:1041000021F0010125601C1F1960A0F120010B1F87
:10411000266044380A606FF002051D6070BD000023
:10412000753F00082DE9F041514C15460E462DED26
:10413000048B9FED501ADFED501A4178027994ED0F
:10414000009A0B0602F0C00201F07F0141EA420131
:1041500000EE101AD4ED018AF8EE400A02D580EE86
:10416000810A01E080EEA10A84ED000A81780A0646
:10417000027901F07F0102F0300241EAC20100EE53
:10418000901A04D5F8EE601AC1EE810A03E0B8EE89
:10419000601AC1EE210AC4ED010AC17800790A064D
:1041A00002D5DFED361A01E0DFED351A00F00F0021
:1041B00070EE499A60F3DF1101EE101A30EEE88AD2
:1041C00029EEA90AB8EE412A08EE080A82EE211A61
:1041D000B7EEC00A84ED021AFEF7F2FEB7EEC00B8E
:1041E000284910EE100AC9EE800A884288EE001AAB
:1041F0000DDD9FED250A60EE800A79EE200AC4ED00
:10420000000A21EE000A38EE800A84ED010A204AF5
:104210005FF00000DFED1D0A00EB40030021B0EE6F
:10422000600A02EB830300BF03EB810C04EB810700
:104230009CED001AD7ED001A491CC9B201EE210A03
:104240000329F1D3B5EEC00AF1EE10FA01D801212D
:1042500000E0002106EB80032954401CC0B2042872
:1042600083ED000AD8D3BDEC048BBDE8F0810000DB
:10427000E00400200000C8C20000C84200007AC468
:1042800000007A449A99193E9A99193E000000005C
:10429000C0020020D0E9013201699A60D0E901230F
:1042A0005A604A68824201D182684A6000220261F3
:1042B0000868401E0860086870474FF0FF3300F13F
:1042C00008010022C0E901130260C160016170476A
:1042D00000210161704730B50B685A1C02D000F113
:1042E000080202E0026904E02246546825689D4203
:1042F000FAD953684B6099608A605160086101681F
:10430000491C016030BD42684A6093688B609368C5
:104310005960916008610168491C016070470000A4
:10432000502072B680F31188BFF34F8FBFF36F8FA9
:104330000B4962B64868401C486001280ED1094804
:10434000006810F0FF0F09D0502072B680F311887A
:10435000BFF34F8FBFF36F8F62B6FEE77047000069
:104360008400002004ED00E00949486828B1401E9F
:10437000486001D180F311887047502072B680F3F5
:104380001188BFF34F8FBFF36F8F62B6FEE7000057
:104390008400002070B500282BD0164DA0F1080431
:1043A0006068E968084209D1502072B680F311882C
:1043B000BFF34F8FBFF36F8F62B6FEE722684AB13B
:1043C000502072B680F31188BFF34F8FBFF36F8F09
:1043D00062B6FEE78843606000F022F960686968B1
:1043E000084468602046FFF781FDBDE8704000F09A
:1043F000B5BD70BD6C0000204FF0E02000210161D0
:104400004FF47A728161072303490968B1FBF2F125
:10441000491E4161036170472000002010B5FBF781
:1044200053FF1349102810D300F1E0200A7890F8C8
:10443000F003904209D2502072B680F31188BFF386
:104440004F8FBFF36F8F62B6FEE70A488968006836
:1044500000F4E060884209D9502072B680F31188D8
:10446000BFF34F8FBFF36F8F62B6FEE710BD000042
:10447000840000200CED00E0020010B516D01048BA
:10448000806B48B1502072B680F31188BFF34F8F14
:10449000BFF36F8F62B6FEE700F0C2F8002110464E
:1044A000FFF78EFB00F05AFD002807D105494FF0B9
:1044B00080500860BFF34F8FBFF36F8F10BD0000B7
:1044C0003000002004ED00E070B504000D460DD072
:1044D000B5B1214A906BE8B1502072B680F31188D3
:1044E000BFF34F8FBFF36F8F62B6FEE7502072B6F7
:1044F00080F31188BFF34F8FBFF36F8F62B6FEE773
:10450000502072B680F31188BFF34F8FBFF36F8FC7
:1045100062B6FEE700F084F82368526959199342A5
:1045200004D98B420AD9914202D807E08B42FAD9CA
:10453000881A21600021FFF743FB00E0216000F0B2
:104540000DFD002807D105494FF080500860BFF3EA
:104550004F8FBFF36F8F70BD3000002004ED00E07F
:1045600002498A6A02604969416070473000002050
:1045700001490120486270473000002010B50C4608
:1045800050B10A4909681831FFF7A5FE2046BDE879
:1045900010400121FFF714BB502072B680F3118840
:1045A000BFF34F8FBFF36F8F62B6FEE7300000207E
:1045B000174818A11CB5002480222346CDE90040ED
:1045C000164800F08DFB01280BD0401C1ED1502056
:1045D00072B680F31188BFF34F8FBFF36F8F62B64F
:1045E000FEE7502072B680F31188BFF34F8FBFF300
:1045F0006F8F62B606484FF0FF32343801210263F4
:10460000C1614461BDE81C4000F042B81CBD00001F
:104610006400002049444C4500000000F93D0008BA
:104620000248816B491C8163704700003000002004
:104630001548816B11B1012141627047002141622F
:1046400012498269B2FA82F2C2F11F0202EB8202BF
:1046500051F822306BB101EB820101F108034A6885
:1046600052684A609A4201D152684A60D16801603A
:104670007047502072B680F31188BFF34F8FBFF39D
:104680006F8F62B6FEE70000300000202C0500208E
:104690002B49FF201CB50A780192087008788DF824
:1046A00000009DF800209DF8000002F0F002824218
:1046B00009D0502072B680F31188BFF34F8FBFF33B
:1046C0006F8F62B6FEE79DF8002007201D4C02F0B8
:1046D00050022270A06005E09DF8002052008DF885
:1046E0000020401E9DF800201206F5D40328A0608B
:1046F00009D0502072B680F31188BFF34F8FBFF3FB
:104700006F8F62B6FEE74FF44070A06001980870AA
:104710000D48016841F470010160016841F0704189
:104720000160FFF769FE00206060FBF793FD07481A
:10473000016841F040410160FBF778FD00201CBD9D
:1047400000E400E08400002020ED00E034EF00E011
:1047500070B505000E4613D0E6B105FB06F04830F3
:10476000FFF756FC040009D004F1480120469EB131
:1047700001600121C0E90F5600F010F8204670BD1D
:10478000502072B680F31188BFF34F8FBFF36F8F45
:1047900062B6FEE70020E2E70060EAE72DE9F047B5
:1047A00004008A4629D0FFF7BBFD21680025D4E923
:1047B0000F23D4F840C004F1100810460E46401EE6
:1047C0004FF0FF3902FB031200FB0C10BAF1000F8F
:1047D000A563A66084F8449084F845906260E06028
:1047E00015D04046FFF769FD04F12400FFF765FD91
:1047F000FFF7BAFD0120BDE8F087502072B680F3C4
:104800001188BFF34F8FBFF36F8F62B6FEE7206949
:104810000028EDD0404600F065FB0028E8D00449B0
:104820004FF080500860BFF34F8FBFF36F8FDFE70B
:1048300004ED00E02DE9FF4704001D4682B08A46E2
:104840004FF0000803D0BAF1000F0AD015E0502055
:1048500072B680F31188BFF34F8FBFF36F8F62B6CC
:10486000FEE7206C48B1502072B680F31188BFF388
:104870004F8FBFF36F8F62B6FEE7022D0CD1E06B56
:10488000012809D0502072B680F31188BFF34F8FF2
:10489000BFF36F8F62B6FEE700F04EFA404F4FF065
:1048A00080564FF0000958B9049848B1502072B6AC
:1048B00080F31188BFF34F8FBFF36F8F62B6FEE7AF
:1048C000FFF72EFDA06BE16B884207D3022D05D0C8
:1048D0000498D0B1B8F1000F1AD01EE02A46514614
:1048E0002046FFF720FA616A19B104F1240000F0B4
:1048F000F9FA20B13E60BFF34F8FBFF36F8FFFF720
:1049000033FD012006B0BDE8F087FFF72DFD22E062
:104910006846FFF725FE4FF00108FFF725FDFFF77A
:104920007FFEFFF7FDFC94F94400401C01D184F8A0
:10493000449094F94500401C01D184F84590FFF75C
:1049400013FD04A9684600F08BF930B12046FFF74B
:1049500029FB00F003FB0020D4E7FFF7E1FCA06B8C
:10496000E16B884213D1FFF7FFFC049904F11000BA
:10497000FFF704FE2046FFF715FB00F0EFFA0028D2
:104980009ED13E60BFF34F8FBFF36F8F98E7FFF765
:10499000EBFC2046FFF706FB00F0E0FA90E7000092
:1049A00004ED00E02DE9F04704001F4690468946DB
:1049B00003D0B9F1000F0AD015E0502072B680F391
:1049C0001188BFF34F8FBFF36F8F62B6FEE7206C85
:1049D00048B1502072B680F31188BFF34F8FBFF3F8
:1049E0006F8F62B6FEE7022F0CD1E06B012809D071
:1049F000502072B680F31188BFF34F8FBFF36F8FD3
:104A000062B6FEE7FFF70AFD5020EFF3118672B69B
:104A100080F31188BFF34F8FBFF36F8F62B6A06B27
:104A2000E16B884206D3022F04D0002086F3118860
:104A3000BDE8F08794F945503A4649462046FFF7CD
:104A400072F9681C04D06D1C84F845500120EDE714
:104A5000606A0028FAD004F1240000F043FA00282C
:104A6000F4D0B8F1000FF1D00121C8F80010EDE743
:104A70002DE9F74704008A4683B04FF0000603D0C3
:104A8000BAF1000F0AD015E0502072B680F31188F9
:104A9000BFF34F8FBFF36F8F62B6FEE7206C48B154
:104AA000502072B680F31188BFF34F8FBFF36F8F22
:104AB00062B6FEE700F040F9DFF8F8804FF080576B
:104AC0004FF0000958B9059848B1502072B680F3EC
:104AD0001188BFF34F8FBFF36F8F62B6FEE7FFF70A
:104AE0001FFCA56BC5B151462046FFF709F96D1EA5
:104AF000A563206950B104F1100000F0F3F928B16A
:104B0000C8F80070BFF34F8FBFF36F8FFFF72CFC17
:104B1000012006B0BDE8F087059808B11EB106E097
:104B2000FFF722FC27E06846FFF71AFD0126FFF792
:104B30001BFCFFF775FDFFF7F3FB94F94400401CE5
:104B400001D184F8449094F94500401C01D184F8C7
:104B50004590FFF709FC05A9684600F081F8002898
:104B600020460AD0FFF71EFA00F0F8F92046FFF7BA
:104B7000E3F90028B3D00020CBE7FFF7DDF990B1CF
:104B8000059904F12400FFF7F9FC2046FFF70AFA23
:104B900000F0E4F90028A2D1C8F80070BFF34F8FED
:104BA000BFF36F8F9BE72046FFF7FCF900F0D6F9C3
:104BB00095E7000004ED00E02DE9F0470400904681
:104BC000894603D0B9F1000F0AD015E0502072B623
:104BD00080F31188BFF34F8FBFF36F8F62B6FEE78C
:104BE000206C48B1502072B680F31188BFF34F8F0C
:104BF000BFF36F8F62B6FEE7FFF710FC5020EFF3B4
:104C0000118672B680F31188BFF34F8FBFF36F8F99
:104C1000A76B62B6FFB194F9445049462046FFF7AE
:104C20006FF8681CA7F10107A76304D06D1C84F816
:104C30004450012010E020690028FAD004F110004F
:104C400000F050F90028F4D0B8F1000FF1D00121A4
:104C5000C8F80010EDE7002086F31188BDE8F08762
:104C60002DE9F04105000C4612D0DCB1FFF758FBEE
:104C70001A4E20687269471C6B68A2EB03011BD0B7
:104C80002F68B66AB74219D0934217D8012520E0A1
:104C9000502072B680F31188BFF34F8FBFF36F8F30
:104CA00062B6FEE7502072B680F31188BFF34F8FD3
:104CB000BFF36F8F62B6FEE700250AE0884205D990
:104CC000401A20602846FFF74BFCF5E700202060E3
:104CD0000125FFF749FB2846BDE8F08130000020A0
:104CE0002DE9FF5F994616468A4683469000DDE926
:104CF0000E87FFF78DF905001AD05420FFF788F9C9
:104D0000040012D000212563CDE900874B463246CE
:104D1000CDE9024151465846FFF79EF82046FEF77E
:104D200087FF012004B0BDE8F09F2846FFF732FB63
:104D30004FF0FF30F6E700000548C16919B1806BFC
:104D400018B1002070470120704702207047000012
:104D5000300000200148406970470000300000200A
:104D600010B5FFF75BFB0148406910BD3000002023
:104D70002DE9F0412F4CA06B002740B1206A401C68
:104D80002062606A00B101273846BDE8F08166699B
:104D9000761C666115D16068006848B1502072B613
:104DA00080F31188BFF34F8FBFF36F8F62B6FEE7BA
:104DB0006068A1686160A060A06A401CA062FFF703
:104DC000C9F8DFF87480206B864209D360680068F8
:104DD00080B16068C068C568686886420DD220638B
:104DE0002068C06A00EB800158F821000128C8D96A
:104DF0000127C6E74FF0FF30F1E7281DFFF74AFA19
:104E0000A86A18B105F11800FFF744FAE86A012111
:104E1000A26981401143A16100EB800108EB810090
:104E2000291DFFF770FA2068E96AC06A8142CDD374
:104E30000127CBE7300000202C05002070B5044688
:104E40004FF00001F0B3254D2868844209D050206E
:104E500072B680F31188BFF34F8FBFF36F8F62B6C6
:104E6000FEE7A06C38B1636C401EE26AA0649A420F
:104E700031D050B12FE0502072B680F31188BFF3CB
:104E80004F8FBFF36F8F62B6FEE7201DFFF702FA68
:104E9000134900284FF001000AD1E26A02EB8203B5
:104EA00051F8233023B9AB6900FA02F29343AB61A6
:104EB000626CC2F10703A361E262AB6990401843E0
:104EC000A86100E007E002EB820001EB8000211DF9
:104ED000FFF719FA0121084670BD000030000020DC
:104EE0002C0500202DE9F041C068C468ACB104F184
:104EF00018000746FFF7CEF9164D0126A86BB0B192
:104F000015483946FFF7FFF9E06A2968C96A8842FF
:104F10001ED901206E62BDE8F081502072B680F388
:104F20001188BFF34F8FBFF36F8F62B6FEE7201D6E
:104F3000FFF7B0F9E06AAA6906FA00F11143A96126
:104F4000054900EB8000B43901EB8000211DD9E751
:104F50000020E0E730000020E00500202DE9F047C8
:104F60002D4DA86B0024264638B1FFF7D9F9A86B60
:104F7000401EA863A86B50B149E0502072B680F380
:104F80001188BFF34F8FBFF36F8F62B6FEE7234FD9
:104F900001202969D9B3A7F1B40980463868E8B17E
:104FA000F868C46804F11800FFF774F9201DFFF7D2
:104FB00071F9E16AAA6908FA01F01043A86101EBEE
:104FC000810109EB8100211DFFF79DF92968E06A45
:104FD000C96A8842E2D3C5F82480DFE70CB1FEF746
:104FE000B9FF2C6A44B14746FFF7C2FE00B16F62B9
:104FF000641EF9D100202862686A40B10849012680
:105000004FF080500860BFF34F8FBFF36F8FFFF7F3
:10501000ABF93046BDE8F08730000020E005002005
:1050200004ED00E01112131415160A0B0C0D0E0FEF
:10503000100000001000000002000000100000003E
:10504000020000000000C201EC0149023F026902B7
:105050009202BC02C85100086D0400080100000063
:105060000000000080000000E0510008F529000861
:10507000000000000000000080000000D451000883
:10508000A1220008FFFF00000000000080000000D7
:1050900000000000000000000102030406070809E8
:1050A00000000000010203044C5555555555A53F1D
:1050B0007751C1166CC156BF9015CB19A001FA3EAD
:1050C000AD529C804F7E92BEC4B1B4BD9EEE213ED7
:1050D000D43888BEE9FAA8BD00004054FB21F93F4E
:1050E0003163621A61B4D03D0000601A61B4D03DF2
:1050F0007370032E8A19A33B0000002E8A19A33B6C
:10510000C14920259A837B3900000000000000007F
:105110006E83F9A22915444ED15727FCC0DD34F522
:10512000999562DB4190433CAB6351FE61C5BBDEA8
:105130003A6E24B7E0D24D42EA2E49061C92D109BC
:105140001CEB1DFE3EA729B1F53582E88444BB2E39
:1051500026709CE9417E5FB439D69139F439538386
:105160008B5F849C3B28F9BDFF97F81F0F9805DEE5
:105170008B112FEF1F6D0A5ACF7E366DB709CB27E3
:10518000663F464F2DEA5F9EC7BA27757BF1E5EB78
:10519000F739073DEA92528AB15FFB6B085D8D1FBC
:1051A000A6F810111111813FD561C119A0012ABFC4
:1051B0007DFEB157E31DC73EEB9C2B8AE6E55ABE48
:1051C0007CD5CF5A3AD9E53D6472697665546173EE
:1051D0006B0000006B69636B5461736B000000002F
:1051E000726164696F5461736B0000000C520008B7
:1051F000000000209400000060350008A052000864
:10520000940000208C45000070350008000000006C
:10521000000000000000000000000000000000008E
:105220000000000000000000000000000024F40066
:10523000010000001000000000000000000000005D
:10524000000000000000000000000000000000005E
:10525000000000000000000000000000000000004E
:10526000000000000000000000000000000000003E
:10527000000000000000000000000000000000002E
:10528000000000000000000000000000000000001E
:1052900000000000AAAAAAAA000000000000000066
:04000005080001F9F5
:00000001FF
