:020000040800F2
:1000000010460020D1020008CB280008D7200008A5
:10001000B927000805040008792D00080000000039
:100020000000000000000000000000000D020008B9
:100030000704000800000000690200087D2B00088A
:10004000EB020008EB020008EB020008EB020008DC
:10005000EB020008EB020008EB020008EB020008CC
:10006000EB020008EB020008EB020008EB020008BC
:10007000EB020008EB020008EB020008EB020008AC
:10008000EB020008EB020008EB020008EB0200089C
:10009000EB020008EB020008EB020008EB0200088C
:1000A000EB020008A12C0008EB020008EB0200089C
:1000B000EB020008EB020008EB020008EB0200086C
:1000C000EB020008EB020008EB020008EB0200085C
:1000D000EB020008EB020008EB020008EB0200084C
:1000E000EB020008EB020008EB020008EB0200083C
:1000F000EB020008EB020008EB020008EB0200082C
:10010000EB020008EB020008EB020008EB0200081B
:10011000EB020008EB020008EB020008EB0200080B
:10012000EB020008EB020008EB020008EB020008FB
:10013000EB020008EB020008EB020008EB020008EB
:10014000EB020008EB020008EB020008EB020008DB
:10015000EB020008EB020008EB020008EB020008CB
:10016000EB020008EB020008EB020008EB020008BB
:10017000EB020008EB020008EB02000800000000A0
:10018000EB020008EB020008EB020008EB0200089B
:10019000EB020008EB020008EB020008EB0200088B
:1001A000EB020008EB020008EB020008EB0200087B
:1001B000EB020008EB020008EB020008EB0200086B
:1001C000EB020008EB02000800000000EB02000850
:1001D000EB020008EB020008EB020008EB0200084B
:1001E000EB020008EB020008EB020008EB0200083B
:1001F000EB020008EB020008DFF80CD000F0EEF88C
:1002000000480047C9340008104600202D4B1968EB
:100210000868B0E8F04F80F30988BFF36F8F4FF0A4
:10022000000080F311887047000000000848006853
:10023000006880F308884FF0000080F3148862B6ED
:1002400061B6BFF34F8FBFF36F8F00DF00BF00BFFA
:1002500008ED00E0DFF80C00016841F47001016076
:10026000704700BF88ED00E0EFF30980BFF36F8FA8
:10027000144B1A681EF0100F08BF20ED108A20E9F9
:10028000F04F106009B44FF0500072B680F311883F
:10029000BFF34F8FBFF36F8F62B603F0CBFF4FF00A
:1002A000000080F3118809BC19680868B0E8F04FB5
:1002B0001EF0100F08BFB0EC108A80F30988BFF35E
:1002C0006F8F704724000020EFF305807047000017
:1002D0000648804706480047FEE7FEE7FEE7FEE7E0
:1002E000FEE7FEE7FEE7FEE7FEE7FEE74D2C00082F
:1002F000F90100082DE9F05F0546002092469B4673
:1003000088460646814640241BE02846414647462B
:10031000224600F053F853465A46C01A914110D372
:1003200011461846224600F03AF82D1A67EB0108EC
:100330004F4622460120002100F031F817EB00095A
:100340004E41201EA4F10104DFDC484631462A4616
:100350004346BDE8F09F40EA01039B0703D009E054
:1003600008C9121F08C0042AFAD203E011F8013BA1
:1003700000F8013B521EF9D27047D2B201E000F8FA
:10038000012B491EFBD270470022F6E710B5134639
:100390000A4604461946FFF7F0FF204610BD202A02
:1003A00004DB203A00FA02F1002070479140C2F1CC
:1003B000200320FA03F3194390407047202A04DBFE
:1003C000203A21FA02F00021704721FA02F3D040CE
:1003D000C2F120029140084319467047064C074D70
:1003E00006E0E06840F0010394E807009847103405
:1003F000AC42F6D3FFF704FFE846000808470008C0
:1004000000F0CBBAFEE770472DED088B8CB003F0FF
:10041000A0FABA4D02210B90284600F0B9FA01214A
:100420000446284600F0B4FA4FF4004644EA40047B
:10043000B348314600F0ACFA042144EA8004B148E4
:1004400000F0A6FA44EAC007AF4C1021204600F0A5
:100450009FFA102147EA0017AC4800F099FAAC491E
:1004600047EA40100222488005A8AA4901F035FF5A
:10047000002205A8114601F018FF0022012105A85D
:1004800001F013FF0022022105A801F00EFF002257
:10049000032105A801F009FF9E49022208A84C315A
:1004A00001F01BFF002208A8114601F0FEFE012208
:1004B00028461702394600F077FA002228468021A4
:1004C00000F072FA01222846402100F06DFA924DA8
:1004D0009248DFF84CC2B5EE000AC5F854C00115C9
:1004E000A5F858104315C5F85CC0A5F86030C5F8EC
:1004F00064C0A5F86870DFED8B0A286401270368E3
:100500009FED891A01EE903A844A8849F8EE611A03
:10051000243AC31461EE801A61EEA01AC5ED111AD7
:1005200085F8507085ED131A17608014C5F8D04017
:100530004FF0010CA5F8D430C5F8D840A5F8DC0080
:100540007B4AC5F8E020A5F8E4C0C5F8BC1079489E
:100550000968764C01EE901A243C774A8021F8EE27
:10056000611A61EE801A61EEA01AC5ED301A85F8A5
:10057000CCC085ED321AC4F800C04024C5F84C0147
:10058000C304A5F85011C5F85421A5F85861C5F861
:100590005C01DFF8A8C1A5F86041C5F838C168481A
:1005A0005A6A0126674901EE902A2022F8EE611A64
:1005B00061EE801A61EEA01AC5ED4F1A85F8486108
:1005C00085ED511A1E600823C5F8C8011024A5F84E
:1005D000CC210122C5F8D001A5F8D431C5F8D80145
:1005E000A5F8DC41C5F8B4110868564BB3EE0CAA67
:1005F000243BB1EE0ABADFED54AA9FED548ADFED39
:10060000548ADFED549A9FED549A01EE900AF8EE69
:10061000611A21EE800A20EE200A85ED6E0A85F827
:10062000C42185ED701A1A605FF000040122214692
:10063000C4EB441005EB8006304602F001F90021BE
:10064000304602F00DF904973046CDED029A8DED5B
:10065000039A1AEE903A1BEE102A1AEE101A8DEC3D
:10066000028A02F081F9641CE4B2042CDED3DFF8C4
:10067000A880274E9FED398AA8F1600808F120076D
:10068000234A708844462449103200EB80004039E8
:10069000204403F0A5FB708800EB8000204402F0AA
:1006A00005FF002486ED010A07EB8401C4EB44102A
:1006B00091ED000A05EB800005A902F07FF896EDA8
:1006C000010A0021BCEEC00A10EE100A80B200EE52
:1006D000100AB8EE400A20EE080ABCEEC00A10EE7E
:1006E000100A82B208A801F0E0FD641CE4B2042CF8
:1006F000DAD301210BA803F020F9C1E7002402405E
:10070000002002400004024000080240001C024099
:100710000000002088000020E402002024040040A3
:1007200000000240000000453946713F24040140AA
:10073000000C024000280240001802402400004043
:1007400000140240240C00400000000000F07F452F
:1007500000F07FC500F07F446F12833A9224124369
:10076000017C012902D09FED0A0A704701680868E0
:1007700000B2002801DB024600E04242022A00DA11
:10078000002000EE100A00200860B8EEC00A704792
:100790000000000070B5044600F00CF90546601C2E
:1007A00002D004480078044400F004F9401BA04241
:1007B000FAD370BD180000202DE9F84FDFF89CE156
:1007C00000224FF001084FF0030B4FF00F0A00BF5B
:1007D0000B6808FA02F42340A34271D14D68022D40
:1007E00001D0122D0FD1D5080E69570700EB8505F2
:1007F000A9462D6AFF0E0AFA07FCBE4025EA0C0541
:100800002E43C9F820600F79550006680BFA05FCE5
:1008100007F0030726EA0C06AF40374307604E682F
:10082000012E05D0022E03D0112E01D0122E0ED192
:100830008668CF6826EA0C06AF4037438760466873
:100840000F79A643C7F30017974037434760C46842
:100850008E6824EA0C04AE402643C6604C68E4006F
:1008600075D53F4C256845F480452560246822F005
:100870000306950704F4804400943A4C2D0F264457
:10088000D6F80848DFF8E0C00AFA05F7604524EA20
:10089000070401D100272EE0344FB84201D10127CF
:1008A00029E0334FB84201D1022724E0314FB8424A
:1008B00001D103271FE0304FB84202D104271AE0CC
:1008C00045E02E4FB84201D1052714E02C4FB84225
:1008D00001D106270FE02B4FB84201D107270AE0CC
:1008E000294FB84201D1082705E0284FB84201D16D
:1008F000092700E00A27AF4027437546C6F8087865
:100900004E68DEF80040F60324EA030400D51C43D9
:10091000124E2C60361D4D683468AD0324EA030482
:1009200000D51C430D4F346008374D683C68ED021C
:1009300024EA030400D51C43084D3C600C354E6886
:100940002C68B60224EA030400D51C432C60521C18
:10095000102AFFF43DAFBDE8F88F0000003C0140D5
:1009600044380240003001400000024000040240D0
:1009700000080240000C0240001002400014024037
:1009800000180240001C02400020024000240240E7
:100990000069084000D001207047426931EA020234
:1009A00000D10904816170470AB18161704709046F
:1009B000FBE7000001488068704700001800002035
:1009C00030B590F84120202A24D190F84020012A07
:1009D00020D0012380F84030242280F841202023B9
:1009E00000240268156825F0010515600268156885
:1009F00025F480551560026815680D43156001687F
:100A00000A6842F001020A6080F8413080F84040F4
:100A1000002030BD022030BD30B590F84120202AA2
:100A200022D190F84020012A1ED0012380F84030C6
:100A3000242280F84120202400250268136823F036
:100A4000010313600268136823F4706343EA012111
:100A5000116001680A6842F001020A6080F84140B2
:100A600080F84050002030BD022030BD70B5040039
:100A700004D094F84100002510B106E0012070BDBB
:100A8000204684F8405000F0DFF8242084F841002C
:100A90002068016821F001010160D4E9001020F014
:100AA000706008612068816821F400418160E0681D
:100AB00021680128A06806D040F404408860E068FE
:100AC000022803D006E040F40040F7E721684FF425
:100AD0000060486020212068114A43681343436046
:100AE0002068C26822F40042C26054F8106B0DCC3A
:100AF000104340EA0320F06054F81C3CD4E90002A3
:100B00001043186054F81C0D026842F001020260A4
:100B1000656484F84110256384F84250002070BD5C
:100B2000008000022DE9F84F044690F841001F466E
:100B30009046DDF828A08B4620287ED194F840000E
:100B400001287AD0012084F84000FFF733FF01220A
:100B5000064619230090D103204601F029FBE0BB93
:100B60000025212184F84110102084F8420065649A
:100B70006785618DFF2732484FF00079C4F82480E3
:100B8000FF294FF08078656303D927853A460090A6
:100B900039E0618D218500903AE05946204601F008
:100BA000F1FA13E001F058FBB8B9606A21680078E7
:100BB0008862606A401C6062608D401E6085208D86
:100BC000401E80B22085618D01B168B1608D3246D2
:100BD000514600282046E5D100E002E001F015FB77
:100BE000D0B10120BDE8F88F002253468021204675
:100BF000009601F0DDFA0028F3D1608DFF2804D9BA
:100C000027853A4600954346C7E7608D20850095C5
:100C10004B4694F82820C0E720682021094AC1618A
:100C2000206843681340436084F8411084F84250C0
:100C3000002084F84050D5E7FFE70220D2E700000B
:100C40000020008000E800FEF0B587B004461421C3
:100C50006846FFF799FB26681220204C0123204F9D
:100C600003221E4904251034BE4219D10E6846F0F5
:100C700002060E600968CDE9023201F00201059119
:100C8000C0210495CDE9001016486946FFF794FD90
:100C9000206840F400102060206800F400101AE082
:100CA000114FBE4218D10E6846F020060E6009684A
:100CB000CDE9002001F020010C48CDE90232CDE958
:100CC00004516946FFF778FD206840F480002060F9
:100CD000206800F48000059007B0F0BD3038024075
:100CE000005400400004024000580040001402403C
:100CF0000248816802781144816070471800002022
:100D0000032010B500F08CF8002000F005F800F08A
:100D10003DF8002010BD000010B50022014619204A
:100D200088B000F05DF8192000F04CF81348016815
:100D300041F001010160006805A900F00100069082
:100D4000684600F0E9FB00F007FC0D494000002276
:100D50000C4CB0FBF1F10C4840F2E7330460C0E901
:100D60000332491EC0E9011200F0CCFF10B101208E
:100D700008B010BD044800F0E1FFF9E74438024034
:100D800040420F0000000140E00400200C4882B007
:100D9000016841F080510160006800F080500090CF
:100DA0000748001D016841F480410160006800228D
:100DB0000F2100F480400090901E02B000F010B8A7
:100DC00040380240002809DB410900F01F02890079
:100DD000012001F1E0219040C1F8000170470000BE
:100DE0000E4BF0B41B680D46C3F30223C3F1070694
:100DF000042E00D90426191D072901D2002300E082
:100E0000DB1E012404FA06F19C40491E2940641EA1
:100E1000994014402143F0BC01F0C7BF0CED00E045
:100E2000064900F0070210B54FF6FF040868044BAE
:100E3000204040EA02201843086010BD0CED00E09D
:100E40000000FA051848F8B5016841F080510160CA
:100E50000068164C00F080500090206840F480300C
:100E60002060FFF7A7FD4FF47A76054605E000BF46
:100E7000FFF7A0FD401BB0420FD86068C003F7D554
:100E8000206840F400302060FFF794FD054606E03E
:100E9000FFF790FD401BB04201D90320F8BD606808
:100EA0008003F5D50020F8BD4038024000700040B6
:100EB0002DE9F84F04460078DFF824944FF000063F
:100EC0003746C0070ED0D9F8001021F40001C9F848
:100ED0000010D9F80010626B1143C9F80010606B64
:100EE00000B90126FE4D2068843500030ED5E16B64
:100EF000286820F4401008432860E06BB0F5801F9C
:100F000001D010B102E0012600E0012720684FF473
:100F1000800BC0020CD5216C286820F440000843E7
:100F20002860206C584501D1012601E000B9012755
:100F30002068C10100D50126800666D5E848383012
:100F4000016841F0805101600068DFF898A300F06B
:100F500080500090DAF8001041F48071CAF8001057
:100F6000FFF728FD804605E0FFF724FDA0EB080011
:100F700064287DD8DAF80000C005F5D5DFF8608375
:100F800008F16808D8F8000010F440702AD0218ECB
:100F900001F44071814225D0D8F80010D8F8002023
:100FA00021F4407142F48032C8F80020D8F80020C3
:100FB00022F48032C8F80020C8F80010D8F80000E9
:100FC000C0070FD0FFF7F6FC824607E0FFF7F2FC00
:100FD000A0EB0A0141F288308142CAD8D8F800005B
:100FE0008007F3D5206BC0F3012103297ED0D9F807
:100FF000001021F4F811C9F80010228ED8F8001062
:10100000C2F30B021143C8F800102078C00607D5C0
:10101000286820F0807028602868A16B0843286049
:101020002188AF488830490405D5626E016821F4F3
:101030004031114301602188090405D5A26E016881
:1010400021F44021114301602168C90305D5E26EF6
:10105000016821F44011114301602168890305D51D
:10106000226F016821F4400111430160217800E002
:1010700034E1490605D5626C016821F00301114392
:1010800001602178090605D5A26C016821F00C01E8
:10109000114301602188C90505D5E26C016821F082
:1010A0003001114301602188890505D5226D016851
:1010B00021F0C001114301602188490505D5626D09
:1010C000016821F44071114301602188090505D5AB
:1010D000A26D016821F44061114301602188C904B7
:1010E00007D5E26D016821F4405100E05FE0114353
:1010F00001602188890405D5226E016821F44041F0
:10110000114301602168490205D5A26F016821F0F1
:1011100080611143016021684FF0006A890209D59E
:10112000E26F016821F0006111430160E16F5145F8
:1011300000D1012721680A0700D50127490305D5F9
:10114000626F016821F0407111430160216809025A
:1011500006D5D4F88020016821F080511143016048
:101160002168490106D5D4F88420016821F0005196
:10117000114301602068000106D5D4F88810286862
:1011800020F00070084328602068C00006D5D4F81D
:101190008C10286820F0806008432860DFF84891B0
:1011A000012E0ED02068B0F1007F0AD08FE04F4AA8
:1011B000D9F80030104023F4F8120243C9F8002097
:1011C0001BE7D9F800004E4620F08060C9F8000007
:1011D000FFF7F0FB804605E0FFF7ECFBA0EB080013
:1011E00064287BD830680001F6D421783C487C30F4
:1011F000C90712D0616B81B9237A62680168D0F89F
:1012000000C09201C1F3014142EA0142CCF3036103
:1012100042EA016141EA0371016021680A0303D5D2
:10122000E26BB2F5801F04D0C9021AD5216C594572
:1012300017D16368016894F80CC002689B01C1F380
:10124000014143EA0141C2F3027241EA0C6141EA01
:10125000027101602968626A21F01F01521E114368
:1012600029602168C90110D5238A62680168D0F815
:1012700000C09201C1F3036142EA034242EA016203
:10128000CCF3027142EA01710160216889010CD539
:101290006168228A237B94F808C0890141EA0241EF
:1012A00041EA036141EA0C7101603168B04641F0E6
:1012B00080613160FFF77EFB064604E0FFF77AFBB2
:1012C000801B64280AD8D8F800000001F6D5E7B3DF
:1012D000D9F800004E4620F0805009E07BE0000085
:1012E000083802400070004000380240FFFCFF0F49
:1012F000C9F80000FFF75EFB074604E0FFF75AFB62
:10130000C01B642867D83068C0438000F6D52168C8
:1013100035480A0301D5E26B1AB1C9021DD5216C0B
:10132000D9B963690168277E02689B01C1F3014155
:1013300043EA0143C2F3027143EA076242EA0171E0
:10134000016029686FF0FF0300E04BE0A26A21F41E
:10135000F85103EB0222114329602168890212D55A
:10136000E16F51450FD1238C6269016807689201D2
:10137000C1F3036142EA034242EA0162C7F3027128
:1013800042EA017101602178090716D56169026896
:10139000D0F800C08B01277FC2F30362CCF3014178
:1013A00043EA014141EA026141EA077101602868AC
:1013B000E16A20F4403008432860306840F08050F3
:1013C0003060FFF7F7FA044608E000BFFFF7F2FAD3
:1013D000001B642802D90320BDE8F88F3068C043A1
:1013E0008000F3D40020F7E7883802402DE9F04769
:1013F00005000F4663D0444E306800F00F00B8423D
:1014000009D2306820F00F0038433060306800F0B7
:101410000F00B84253D128683C4C810712D54007D1
:1014200003D5206840F4E05020602878000703D5F9
:10143000206840F460402060A968206820F0F00037
:10144000084320602878C0072AD0304968680839E6
:10145000012810D00968022810D0890700292EDA47
:10146000216821F0030101432160FFF7A3FA8046C0
:1014700041F288390DE009688903EFE78901EDE75A
:10148000FFF798FAA0EB0801494502D90320BDE80F
:10149000F0876868216801F00C01B1EB800FEFD193
:1014A000306800F00F00B8420BD9306820F00F0010
:1014B00038433060306800F00F00B84201D001209E
:1014C000E5E72878400705D5E968206820F4E05072
:1014D000084320602878000706D52869216821F490
:1014E000604141EAC000206000F046F82168084AE7
:1014F000C1F30311515CC840064908600020FFF7A2
:101500000BFC0020C3E70000003C0240083802400A
:1015100094450008140000200D4A0F2330B50360E5
:101520004FF4E0540B4B156805F003054560156852
:1015300005F0F0058560156805F4E055C560126892
:1015400004EAD2020261186800F00F00086030BDA2
:1015500008380240003C0240044905480968006818
:10156000044AC1F34231515CC84070470838024018
:1015700014000020A4450008154910B51548096855
:1015800011F00C0213D04110042A0FD0082A0ED1FA
:101590000F4C241F2268236802F03F025B0207D52C
:1015A0002068C0F38810A0FB010106E0084610BDCA
:1015B0002168C1F38811A1FB00010023FEF79AFE08
:1015C0002168C1F30141491C4900B0FBF1F010BD95
:1015D000083802400024F4002DE9F84F05004FF0D0
:1015E00000076ED02878DFF82093A9F1040AC0071D
:1015F000AAF104044CD0D9F800104846C1F3810187
:10160000012908D00068C0F3810002280AD1DAF865
:101610000000400206D52068800339D5686800289C
:10162000DFD035E06868B0F5803F0BD010B1B0F581
:10163000A02F11D0206820F480302060206820F492
:10164000802002E0206840F480302060686890B11B
:10165000FFF7B0F906460AE0206840F480202060D9
:10166000F0E700BFFFF7A6F9801B642872D8206856
:101670008003F7D50CE0FFF79DF9064605E000BFB3
:10168000FFF798F9801B6428F0D820688003F7D40E
:101690002878800742D5D9F80010484611F00C0F81
:1016A00008D00068C0F3810002280BD1DAF80000EE
:1016B000400207D42068800718D5E868012800D1C7
:1016C00014E01EE1E8680028206817D040F001000F
:1016D0002060FFF76FF9064605E000BFFFF76AF9E3
:1016E000801B0228C2D820688007F7D528692168A6
:1016F00021F0F80141EAC00020600FE020F0010075
:101700002060FFF757F9064605E000BFFFF752F9E2
:10171000801B02281ED820688007F7D4287800078D
:1017200029D5794869696C3000298046016812D052
:1017300041F001010160FFF73DF9064605E000BFF9
:10174000FFF738F9801B022804D8D8F8000080077A
:10175000F6D510E089E021F001010160FFF72AF9D8
:10176000064604E0FFF726F9801B02287DD8D8F84A
:1017700000008007F6D4287840076BD5DFF8888111
:1017800008F13808D8F80000C0000BD4D8F80010D1
:1017900041F08051C8F80010D8F80000012700F08F
:1017A0008050009059480168C90512D401688346E9
:1017B00041F480710160FFF7FDF8064605E000BFC7
:1017C000FFF7F8F8801B64284FD8DBF80000C0054D
:1017D000F6D54D4EA868683601280AD008B105280C
:1017E00011D0306820F001003060306820F0040033
:1017F00002E0306840F001003060A868A0B1FFF757
:10180000D9F883460CE0306840F004003060F0E71F
:10181000FFF7D0F8A0EB0B0141F28830814268D885
:1018200030688007F4D50EE0FFF7C4F8834607E080
:10183000FFF7C0F8A0EB0B0141F28830814258D885
:1018400030688007F4D42FB1D8F8001021F080510F
:10185000C8F80010A869E0B3D9F80010C1F38101FD
:1018600002294ED00228206800E042E020F080707B
:10187000206003D0FFF79EF805463DE0FFF79AF899
:10188000064604E0FFF796F8801B022831D820684E
:101890008001F7D4D5E90921DFF874C0D5E907063E
:1018A00095F830304F0895F82C1030430CEB074575
:1018B00045EA8212104340EA016040EA0370CAF828
:1018C0000000206840F080702060FFF773F8054644
:1018D00005E014E0FFF76EF8401B022809D82068E5
:1018E0008001F7D50BE000BFFFF764F8401B02282A
:1018F00002D90320BDE8F88F20688001F4D40020CD
:10190000F8E70120F6E700000838024000700040C8
:101910000000FFFF2DE9F047040005D094F85D00BA
:101920000025A56218B107E00120BDE8F087204638
:1019300084F85C5000F050F8022284F85D204FF4E7
:10194000E0632068016821F040010160E06898428E
:1019500001D9002101E04FF48051B0F5706F02D041
:10196000984200D0A5624FF00109266B2EB998422B
:1019700001D9226301E0C4F83090D4E90468D4E9C5
:101980000102278B46EA0806A36A104307F4007891
:1019900030432668D4E907C240EA080040EA0C0058
:1019A000CC460427104318433060D4F81880666B87
:1019B000606AE26807EA1847236830433A431043F5
:1019C000084358602068C16921F40061C16125663F
:1019D00084F85DC00020A8E710B586B00446142145
:1019E0006846FEF7D1FC1249206888421DD1114893
:1019F000016841F480510160006800F48050059056
:101A00000C481438016841F00101016000680221AE
:101A1000002200F001000590E020032305248DE85A
:101A20001F0005486946FEF7C7FE06B010BD00005E
:101A30000030014044380240000002402DE9F05FD0
:101A40008B4690F85C1000271D460A9E012992469D
:101A500004464FF001090ED0012084F85C00FEF727
:101A6000A9FF804694F85D00616801280CD0B1F5AB
:101A7000827F07D102E00220BDE8F09FA16809B98A
:101A8000042801D00227FFE0BBF1000F24D0BAF1F7
:101A9000000F21D005B394F85D00042802D0052082
:101AA00084F85D00A4F844500020A5874FF4E0625C
:101AB000C4F838B0C4F840A0E16820669142E06400
:101AC0002065A4F84650E58701D8012D06D9206885
:101AD000416821F4805105E00127D5E02068416884
:101AE00041F48051416020680168490603D40168CF
:101AF00041F040010160E0689042606845D908B15A
:101B0000012D3AD1A06B21680088C860A06B801CB1
:101B1000A063E08F401EE0872FE02068816889077E
:101B20000FD5E18F69B1B9F1010F0AD1A26B4FF066
:101B300000091188C160A06B801CA063E08F401E6B
:101B4000E08720688168C9070FD0B4F8461061B1FA
:101B5000C0684FF00109226C1080206C801C20644A
:101B6000B4F84600401EA4F84600FEF723FFA0EBA1
:101B70000800B04201D3701C74D1E08F0028CCD192
:101B8000B4F846000028C8D175E008B1012D6BD12A
:101B9000E08F21680128A06B07D90088C860A06B7E
:101BA000801CA063E08F801E06E000780873A06BA5
:101BB000401CA063E08F401EE08755E020688168EC
:101BC00089071AD5E18FC1B1B9F1010F15D1E18FA4
:101BD0000129A16B07D90988C160A06B801CA06393
:101BE000E08F801E06E009780173A06B401CA063A3
:101BF000E08F401EE0874FF0000920688168C90728
:101C000028D0B4F8461029B3B4F84610012914D9E5
:101C1000C068216C0880206C801C2064B4F84600E9
:101C2000801EA4F84600B4F84600012810D82068A9
:101C3000416841F4805141600AE0007B216C0870EA
:101C4000206C401C2064B4F84600401EA4F84600F6
:101C50004FF00109FEF7AEFEA0EB0800B04202D340
:101C6000701C01D018E0BEB1E08F0028A6D1B4F8F6
:101C700046000028A2D142463146204600F0C4FE6C
:101C800010B1202020660127012084F85D0000218A
:101C9000384684F85C10EFE60327F5E77047704795
:101CA0007047000070B590F83C20012A24D0134CF6
:101CB000012580F83C50022280F83D2002685368DC
:101CC000A242966802D00E4CA24203D14C6823F483
:101CD000700323430C6823F0700389681C4354602D
:101CE000002326F0800602683143916080F83D5061
:101CF00080F83C30184670BD022070BD00000140E5
:101D00000004014010B5040003D094F83D0010B168
:101D100007E0012010BD002084F83C00204600F0C0
:101D20000CF8022084F83D002068211D00F0BEFF61
:101D3000012084F83D00002010BD70470168094A69
:101D4000CB6843F00103CB60016888681040062827
:101D500006D0B0F5803F03D0086840F0010008606D
:101D600000207047070001002DE9F04104000D46F6
:101D700003D094F83D0018B108E00120BDE8F081DF
:101D8000002084F83C00204600F042F81F4A022060
:101D900084F83D0020688168114081602068211D21
:101DA00000F084FF226840F20336AF6940F60C4C25
:101DB0002B684FF2F00EA86891680B439169B1430C
:101DC00041EA07210843D5E9031720EA0C00D5E9C9
:101DD000076C20EA0E00D2F820E03F0140EA062618
:101DE00068686D69314347EA0C37936023680F4395
:101DF00001229F612EF0AA0141EA051321681843D0
:101E0000086284F83D200020B8E70000F8BFFEFF1C
:101E100070B586B0044614216846FEF7B5FA3E4810
:101E20000021246803253C4A10380223B4F1804F76
:101E30001ED03A4EB44234D1146844F00204146007
:101E4000126802F002020592026842F00402026087
:101E5000006800F004000590C0200090CDE9013139
:101E6000CDE903132E486946FEF7A6FC06B070BD07
:101E7000146844F001041460126802F00102059233
:101E8000026842F001020260006800F00100059063
:101E900001200095CDE90131CDE9031021486946C3
:101EA000E2E7214EB44219D1146844F008041460EA
:101EB000126802F008020592026842F08002026095
:101EC000006800F0800005904FF440600090CDE97C
:101ED0000131CDE9031315486946C5E7144A944218
:101EE000C4D10D4A121D146844F002041460126833
:101EF00002F002020592026842F4807202600068F9
:101F000000F48070059060200090CDE90131CDE9AA
:101F1000031508486946A7E740380240000400401E
:101F20000008024000000240000C0040001C02407B
:101F30000004014000200240704770B5044600686C
:101F400000250169C943890715D4C168C9438907B8
:101F500011D4EA1E0261012121772068806980077F
:101F6000204602D0FFF7E8FF04E000F0A7F8204683
:101F700000F0A5F8257720680169C943490717D4FF
:101F8000C168C943490713D402216FF004020261FA
:101F900021772068806910F4407F204602D0FFF747
:101FA000CBFF04E000F08AF8204600F088F825779F
:101FB00020680169C943090716D4C168C9430907E4
:101FC00012D404216FF00802026121772068C069F1
:101FD0008007204602D0FFF7AFFF04E000F06EF864
:101FE000204600F06CF8257720680169C943C906CE
:101FF00017D4C168C943C90613D408216FF0100271
:10200000026121772068C06910F4407F204602D029
:10201000FFF792FF04E000F051F8204600F04FF87F
:10202000257720680169C943C90708D1C168C94338
:10203000C90704D1891E0161204600F041F82068DB
:102040000169C943090609D4C168C943090605D411
:102050006FF0800101612046FFF721FE20680169D1
:10206000C943C90509D4C168C943090605D46FF439
:10207000807101612046FFF711FE20680169C943A4
:10208000490609D4C168C943490605D46FF0400127
:102090000161204600F01EF820680169C9438906E5
:1020A0000BD4C168C943890607D46FF020010161D0
:1020B0002046BDE87040FFF7F3BD70BD7047704724
:1020C00000680349884201D1FEF712BE7047000044
:1020D000000001407047FEE701688A69D243920719
:1020E00001D400228A6200688169C943C90703D00C
:1020F000816941F001018161704700002DE9F041E3
:102100000446006890460E468069C043C00635D438
:102110000025202720688069C043800616D5701CE2
:10212000F8D0FEF747FCA0EB0800B04201D8002E23
:10213000F0D1606C84F8405040F02000606484F876
:10214000417084F842500120BDE8F08121681020E0
:10215000C8612068C7612046FFF7BEFF20680849B4
:1021600042680A404260606C40F00400606484F899
:10217000417084F8425084F84050E4E70020E3E7DF
:1021800000E800FE70B50068C1F30901074E41EA9E
:102190000241049C4FF480654268194305EA545596
:1021A0003543AA4321430A43426070BDFF63FF03E6
:1021B0002DE9F0411D4617460E460446DDF818800D
:1021C00008E0681C06D0FEF7F5FBA0EB0800A8426B
:1021D0000BD855B12068806936EA000013D0002082
:1021E000B842EED00020BDE8F081626C002084F897
:1021F0004000202142F02002626484F8411084F8FB
:1022000042000120EFE70120EAE770B516460D46CF
:1022100004460DE0324629462046FFF76FFF08B11D
:10222000012070BDFEF7C6FB801BA84207D835B160
:1022300020688069C0438006ECD4002070BD626CC9
:10224000002084F84000202142F02002626484F8DB
:10225000411084F84200E3E770B516460D46044687
:102260000FE0324629462046FFF748FF08B101201B
:1022700070BD681C05D0FEF79DFB801BA84207D8E7
:1022800035B120688069C0438007EAD4002070BD62
:10229000626C002084F84000202142F02002626439
:1022A00084F8411084F84200E1E7130141711209FA
:1022B0008271C37100F028B841F0300141711309F7
:1022C00083711201C27100F01FB841F060034371C5
:1022D00082710021C17100F017B870B5154604462F
:1022E0000F2201604121FFF7F0FF45F00401204675
:1022F000BDE87040AFF3008041F0700141710022F1
:102300008271C271AFF3008038B5202101714FF4A2
:102310007A720092421D046803232046FEF702FCF5
:1023200038BD00002DE9F04F87B014216846FEF754
:102330002BF88648016841F020010160016801F036
:1023400020010591016841F480710160016801F488
:1023500080710591016841F080010160016801F020
:1023600080010591016841F001010160016801F0FF
:1023700001010591016841F004010160016801F06B
:1023800004010591016841F002010160016801F05A
:1023900002010591016841F400710160016801F4D6
:1023A00000710591016841F008010160016801F0C8
:1023B00008010591016841F040010160016801F0E8
:1023C00040010591016841F48061016000680022CC
:1023D000DFF87CB14FF4E04100F48060059058468E
:1023E000FEF7E2FA5B4800223821FEF7DDFA4FF4EF
:1023F0008056594800223146FEF7D6FA4FF4E0776E
:10240000564800223946FEF7CFFA4FF4E0685448A8
:1024100000224146FEF7C8FA4FF4C0595148002245
:102420004946FEF7C1FA504800220121FEF7BCFAE6
:102430004FF4064A4D4800225146FEF7B5FA4C4883
:102440000022C021FEF7B0FA00246946B8010090CE
:102450000120CDE9010458460394FEF7ADF9382078
:10246000009001206946CDE901043A480394FEF743
:10247000A3F910253F48CDE9005469460294FEF7C0
:102480009BF938486946CDE900540294FEF794F967
:1024900004206946CDE900042F480294FEF78CF928
:1024A000E8026946CDE9000458460294FEF784F933
:1024B00003206946CDE9000428480294FEF77CF920
:1024C00001200096CDE90104234869460394FEF7F4
:1024D00073F901200097CDE901042048694603946F
:1024E000FEF76AF90121CDF80080CDE901141C48FE
:1024F00069460394FEF760F90121CDF80090CDE91B
:102500000114184869460394FEF756F90120014664
:102510008DE81300144869460394FEF74DF9012134
:10252000CDF800A0CDE90114104869460394FEF7E8
:1025300043F9C02001218DE813000D48694603943A
:10254000FEF73AF907B0BDE8F08F000030380240DE
:102550000020024000140240000402400024024017
:102560000000024000080240000C02400018024037
:1025700000280240001C02400E48002110B50C4CFF
:1025800001230D4A0460C0E90121C0E90331416122
:102590008161C1610162FEF769FA06480021FEF718
:1025A0000FFABDE8104003480021FEF735BA0000DD
:1025B00000540040880000200D0300600E480021F8
:1025C00010B50C4C01230D4A0460C0E90121C0E99B
:1025D000033141618161C1610162FEF747FA06483A
:1025E0000021FEF7EDF9BDE8104003480021FEF799
:1025F00013BA000000580040D40000200D03006012
:1026000070B510484FF4407500210D4C4FF48276A0
:102610001823C0E9021501616215E0E805460725A7
:10262000082680E80E00C1600161C0E90515C0E917
:1026300007160448FFF76EF9A014606070BD000033
:10264000003001402001002030B58DB024216846C3
:10265000FDF79AFE1148002401214FF6FF730994FB
:1026600003228D070A940B94C0E90054C0E9024389
:10267000046184610092CDE9014103940494CDE9A1
:102680000541694607940894FFF76EFB034809A9C2
:1026900009940B94FFF706FB0DB030BD84010020B8
:1026A00030B58DB024216846FDF76EFE1248002437
:1026B0004FF6FF730F4D099401210A9403220B94E6
:1026C000C0E90054C0E90243046184610092CDE98D
:1026D000014103940494CDE90541694607940894A7
:1026E000FFF742FB044809A909940B94FFF7DAFAB3
:1026F0000DB030BD00040040C401002030B58DB0E5
:1027000024216846FDF740FE124800244FF6FF736F
:102710000F4D099401210A9403220B94C0E900543F
:10272000C0E90243046184610092CDE90141039450
:102730000494CDE90541694607940894FFF714FB1A
:10274000044809A909940B94FFF7ACFA0DB030BD09
:10275000000C00400402002010B58CB02421684613
:10276000FDF712FE13480024114A4FF6FF73099437
:1027700001210A940B94026003224460C0E90243E1
:102780000461446184610092CDE9014103940494A1
:10279000CDE90541694607940894FFF7E5FA054835
:1027A00009A909940A940B94FFF77CFA0CB010BDA8
:1027B0000004014044020020FEE7000070B504461A
:1027C00090F87A000D4600B3DFED140A9FED141A5D
:1027D00004F1400020EE200AC0EE010AC4ED1C0AFC
:1027E00094ED060AFDF7BCFFF0EE400A84ED1D0AE9
:1027F00094ED1C0A204600F069F894ED090A294678
:102800002046BDE8704000F036B894F86C102846B9
:10281000BDE870400022FFF748BD00000000C04640
:1028200063141D4380F87A100029B0F85810436DE6
:1028300003D001221846FEF7B7B80022FAE70000DD
:102840009FED060A80F86C10114680F87A2080ED22
:102850001C0A80ED1D0AFFF7E5BF00000000000024
:10286000436E0129B0F8681003D001221846FEF724
:102870009BB80022FAE770B504460D462DED028B99
:10288000B0EE408AC06DB5EEC08AB4F86010F1EECB
:1028900010FA05DB0122FEF787F8BCEEC80A06E055
:1028A0000022FEF781F8B0EEC80ABCEEC00A10EEB6
:1028B000100A82B2A4F8782094F86C102846BDEC77
:1028C000028BBDE87040FFF7F7BC704790F83010FE
:1028D000012904D0C0ED0A0A80ED090A704730EEE4
:1028E000601AD0ED0B1A90ED012A80ED070A90EDE9
:1028F000050A41EE021A80ED081AC0ED0B1AF4EE3B
:10290000C01AF1EE10FA09DCB1EE400AF4EEC01A7A
:10291000F1EE10FA02D390ED0B0A01E080ED0B0A04
:1029200090ED003AD0ED0A2A90ED022A01EE030A5A
:1029300030EEE21AD0ED031A01EE020A80ED090A28
:10294000B4EEE10AF1EE10FA02DDC0ED091A08E07A
:1029500090ED041AB4EEC10AF1EE10FA01D280ED46
:10296000091AC0ED0A0A70470FB41C2270B505A9F8
:1029700004460C9DFDF7EFFC9FED070A84F83050EC
:1029800084ED080A84ED090A84ED0A0A84ED0B0A35
:1029900070BC5DF814FB00000000000000F080FE39
:1029A00000F092FE00211E22084600F06BFF062078
:1029B00000F05CFE022000F054FF012000F042FF16
:1029C00001220E485102FDF7EFFF0D481E21FDF7D1
:1029D000DBFC0C4C00F074FE607000F071FE4006F1
:1029E00007D50849064800F0F3FE00F051FE00F05C
:1029F00032FE102000F09AFFECE7000000180240C1
:102A00008402002000000020F8B515460E4604465A
:102A10000B464FF4C0510092002200F019F888B91B
:102A20000022334680212046009500F05CF848B92A
:102A3000002233464FF4C0612046009500F008F8AC
:102A4000002804D0206E40F0200020660320F8BD4E
:102A50002DE9F0474FF4C0681D4617460E46DDF8D5
:102A6000209004460CE0464501D107B9007B681C64
:102A700006D0FDF79FFFA0EB0900A84208D23DB1A8
:102A8000206881683140B942EDD10020BDE8F0876F
:102A90002068416821F0E00141606068B0F5827F04
:102AA0000BD1A068B0F5004F02D0B0F5806F04D113
:102AB0002068016821F040010160A06AB0F5005F64
:102AC00009D12068016821F4005101602068016883
:102AD00041F400510160012184F85D10002084F868
:102AE0005C000320D2E72DE9F0411D4617460E4653
:102AF0000446DDF8188008E0681C06D0FDF75AFF90
:102B0000A0EB0800A8420BD255B12068806836EAD5
:102B1000000030D00020B842EED10020BDE8F081A6
:102B20002068416821F0E00141606068B0F5827F73
:102B30000BD1A068B0F5004F02D0B0F5806F04D182
:102B40002068016821F040010160A06AB0F5005FD3
:102B500009D12068016821F40051016020680168F2
:102B600041F400510160012184F85D10002084F8D7
:102B70005C000320D2E70120CDE70000502010B513
:102B800072B680F31188BFF34F8FBFF36F8F62B6B9
:102B900001F01AFC18B104494FF080500860002081
:102BA00080F3118810BD000004ED00E030B5B7B02F
:102BB000342124A8FDF7E8FB142131A8FDF7E4FB3C
:102BC00090216846FDF7E0FB1E48016841F0805106
:102BD0000160006800F0805036901B48016841F4A5
:102BE0004041016000680224042300F44040369014
:102BF00001202C93D82582050104CDE92A42CDE994
:102C00002D542F94CDE9240124A8FEF7E5FCFEF70E
:102C100019F9E2024FF4A0510025CDE9341231AA8E
:102C20000F20072182E8310031A8FEF7DFFB4FF4C7
:102C3000404019951A9500906846FEF739F937B06B
:102C400030BD00004038024000700040104A30B5EE
:102C50001048146800210F4B44F4700414600833CA
:102C600005680D4A0D4C45F00105056019600368C3
:102C7000051D1340074A03600C322C600568E3050C
:102C8000034C25F480250560803C1160236030BD35
:102C900088ED00E000380240FFFFF6FE103000240F
:102CA0000148FFF74AB90000E0040020F0B5274BC7
:102CB0004FF0804E264D02689842264E264F274CF4
:102CC00009D0704507D0A84205D0B04203D0B84221
:102CD00001D0A04205D1D1F804C022F070024CEA24
:102CE000020298421BD0704519D0A84217D0B042BA
:102CF00015D0B84213D0A04211D0194DA8420ED021
:102D0000184DA8420BD0184DA84208D0174DA84224
:102D100005D0174DA84202D0164DA84203D1CD6868
:102D200022F440722A434D6922F080022A43026055
:102D300098428A68C2620A68826201D0A04201D1C8
:102D40000969016301214161F0BD000000000140FB
:102D50000004004000080040000C00400004014056
:102D6000004001400044014000480140001800407C
:102D7000001C004000200040FEE703B40198410021
:102D8000009850EAC12018BF04204A0D18BF40F037
:102D9000010040F2FF72B2EB515F08BF40F0020049
:102DA000012808BF052002B07047090700284FEA34
:102DB000116104DB00F1E02080F80014704700F09E
:102DC0000F0000F1E02080F8141D704700000000A3
:102DD00010B529499FED261B2DED020B84B00598F7
:102DE00020F000408842D8BF9DED040B2DDD234923
:102DF000884209D1049840B94FF0010000F044FB2B
:102E000000F01AFB06B010BD05DB9DED040B30EEA3
:102E1000000B06B010BD68469DED040B00F088F86D
:102E200010F0030004BF9DED021B9DED000B0CD0C4
:102E300001280ED09DED021B9DED000B022810D045
:102E4000012000F0A5FA06B010BD00F0F9F906B0B7
:102E500010BD9DED021B9DED000B012000F098FAC6
:102E600001E000F0EDF906B0B1EE400B10BD00003E
:102E70000000000000000000FB21E93F0000F07F9F
:102E800010B529499FED261B2DED020B84B0059846
:102E900020F000408842DCBF00209DED040B2EDDB9
:102EA0002249884209D1049840B94FF0010000F04E
:102EB000EBFA00F0C1FA06B010BD05DB9DED040B86
:102EC00030EE000B06B010BD68469DED040B00F01F
:102ED0002FF810F003000DD0012814D09DED021B37
:102EE0009DED000B022816D000F0AAF906B0B1EE55
:102EF000400B10BD9DED021B9DED000B012000F06D
:102F000047FA06B010BD9DED021B9DED000B00F0D1
:102F100097F906B010BD012000F03AFAE6E700008C
:102F20000000000000000000FB21E93F0000F07FEE
:102F30002DE9F14F04462DED020B2DED048B94B0DD
:102F40009FED9D0B80ED020B199E9D4826F00045DC
:102F500085420ADC9DED180B002084ED000B14B0B7
:102F6000BDEC048B03B0BDE8F08F96489FED969BB7
:102F70009FED978BA84225DD97489FED991B9FED0C
:102F80009A2B9DED180B002E0DDD30EE490B85427E
:102F900012BF30EE480B30EE410B30EE420B84EDA9
:102FA000000B0120DBE730EE090B854212BF30EE4B
:102FB000080B30EE010B30EE020B84ED000B4FF0EE
:102FC000FF30CCE78A48A84253DB9DED180B51EC4B
:102FD000100B00F05FFA41EC100BB0EE401B9FEDC0
:102FE000862B9FED870B290DDFF81CC201EE020B2B
:102FF0000120FDEEC00B10EE903A00EE903AB8EED4
:10300000E02BB0EE410B02EE490B22EE081BFC4414
:10301000032830EE411B84ED001B1DD011EE902AD9
:1030200000EB4015113DC2F30A528A1A954213DA99
:103030000CEB0012B0EE403B92ED000B401C20EE7A
:10304000021B33EE410B33EE403B33EE411B92ED5E
:10305000023B12EE031BDBE7002EA8BF1846BFF6AB
:103060007EAF94ED000B5842B1EE400B84ED000BA7
:1030700075E7C6F3130040F4801EC6F30A50A0F2B1
:10308000F530471100F01F05C5F12000DDF860B0F4
:10309000139000200890099005200DF1080C5B4961
:1030A000002D07EB0002794408BF51F8221009D027
:1030B00051F8223001EB8201AB404A68139922FAA1
:1030C00001F11943A1FB0E26A1FB0B131A449A42EE
:1030D00034BF0123002303EB06080CEB8003D3E984
:1030E00001A60E448E4234BF0121002192448A443D
:1030F00011B1924502D903E0924501D2012100E0CD
:103100000021C3E901A641444CF82010011EA0F1A2
:103110000100C4DC04989DED050A00F10050810F08
:1031200004989FED3B4B800001EE100ADDED060A8E
:103130009DED072AB8EEC13BB8EE401BB8EE600B20
:10314000B8EE422B002021EE041B9FED334B20EE06
:10315000040B9FED334B22EE042B30EE024B34EE8A
:10316000014B34EE034B8DED004B00909DED004B79
:10317000199834EE433B10F0004F33EE411B31EE13
:10318000400B32EE401B9DED000B9FED272B20EEF8
:10319000020B9FED272B01EE020B9DED001B9FED17
:1031A000262B01EE020B1CBF4942B1EE400B84ED11
:1031B000000B0846D3E600000000000000000000FD
:1031C000FB21E93F7CD9024000004054FB21F93F3C
:1031D0003163621A61B4D03DFB21F93F0000000069
:1031E0000000601A61B4D03D7370032E8A19A33BAE
:1031F000FB2139410000000083C8C96D305FE43F06
:10320000000000000000E03FCE1500006615000041
:10321000000000000000103E000000000000103C14
:10322000000000000000103A3326A611460B113CA6
:10323000182D4454FB21F93D00000054FB21F93DB9
:1032400010B52DED040B2DED068B82B0B0EE41AB29
:1032500009989FED299B20F00044B4F1795F0FDAC3
:103260009DED080BBDEEC00B10EE100A002801BF4B
:10327000B0EE490B02B0BDEC068B04B008BF10BD28
:103280009DED080B1E48062120EE008BB0EE480B8A
:10329000784400F045F820EE080B9DED081B1C4813
:1032A000844228EE000B01EE4A0B9FED171B28EE1F
:1032B000011BBCBF31EE400B39EE400B16DB15484D
:1032C000A042BCBF9FED142B8DED002B06DBA4F5B7
:1032D00000100190002000909DED002B31EE421B6C
:1032E00039EE422B31EE400B32EE400B02B0BDEC1A
:1032F000068B04B010BD0000000000000000F03F8D
:103300001C13000000000000000000000000E03F6F
:103310003333D33F0000E93F000000000000D23FFC
:10332000491E00EBC102B0EE401B92ED000B31F0E4
:1033300006020DD0491E00EBC102B0EE403B92EDFB
:10334000002B31F00602B0EE420B03EE010BF1D17F
:10335000022914D004290AD0062918BF704790ED1D
:103360000A2B00EE012B90ED080B02EE010B90ED05
:10337000062B00EE012B90ED040B02EE010B90EDFD
:10338000022B00EE012B90ED000B02EE010B7047BB
:1033900031B504462DED040B2DED068BB0EE419BAF
:1033A00007989DED060B20F00040B0F1795F0DDA33
:1033B00051EC100BFFF7E1FC042808BF00F048F8BF
:1033C0009DED060BBDEC068B05B030BD20EE008BED
:1033D0001348052128EE00ABB0EE480B7844FFF708
:1033E0009FFF9FED111B8CB19FED112B29EE022B3E
:1033F0000AEE402B9DED060B18EE029B0AEE419B58
:1034000030EE490BBDEC068B05B030BD08EE001B5D
:103410009DED060B0AEE010BBDEC068B05B030BD31
:10342000C812000000000000495555555555C5BF4C
:10343000000000000000E03F9FED031B81EE010B48
:1034400070470000000000000000000000000000C5
:103450009FED030B20EE000B704700000000000002
:10346000000000000000001002E008C8121F08C1A0
:10347000002AFAD170477047002001E001C1121FF5
:10348000002AFBD170470000014908607047000026
:103490008400002082B0CDE9000121F000400190BD
:1034A0009DED000B02B051EC100B70470078C0F39B
:1034B000820000EE100AB8EE400A7047EFF3058074
:1034C000002800D0012070472DED048B8AB0FDF755
:1034D00017FCFFF76BFBFEF725FFFFF791F8FFF7EF
:1034E0004BF8FFF76BF8FFF7AFF8FFF7D9F8FFF7E6
:1034F00005F9FFF731F99FED478BB0EE480BFFF769
:10350000BFFCB7EEC00B454C84ED000AB0EE480B93
:10351000FFF75EFCB7EEC00B9FED418A9FED419B2C
:10352000B1EE400A84ED010A84ED028AB0EE490B47
:10353000FFF7A6FCB7EEC00B84ED030AB0EE490B13
:10354000FFF746FCB7EEC00B9FED389BB1EE400A8B
:1035500084ED040A84ED058AB0EE490BFFF790FC78
:10356000B7EEC00B84ED060AB0EE490BFFF730FC56
:10357000B7EEC00B9FED2F9BB1EE400A84ED070A1A
:1035800084ED088AB0EE490BFFF77AFCB7EEC00B6A
:1035900084ED090AB0EE490BFFF71AFCB7EEC00B39
:1035A0004FF40056254D4FF48058B1EE400A84ED9B
:1035B0000A0A84ED0B8A0024770041462846FCF76E
:1035C0001FFF31462846FCF71BFF39462846FCF70B
:1035D00017FF6420FDF7DEF8641CE4B20A2CECD37C
:1035E000174914226846FCF7B6FE0021684600F031
:1035F000BCF9144C142212491431A06005A8FCF740
:10360000AAFE002105A800F0B0F9E06000F09CF9E6
:10361000FEE700000000004052C1F03FB40200206D
:10362000CDCC2CC0000000C0C3260240000000C06A
:10363000C32602C00000004052C1F0BF002002407B
:103640006C45000800000020842801464FF000006F
:1036500000D0C81C7047072010B500F0D7F840F024
:103660007001BDE81040072000F034B910B50528FE
:10367000044601D9002106E0012000F0C7F801212D
:10368000A14020EA0101BDE81040012000F022B96C
:10369000FF21E22000F01EB9FF21E12000F01AB95D
:1036A00010B5064C012291022046FDF77DF900225B
:1036B00020466115BDE81040FDF776B900180240BC
:1036C000072000F0A3B800000821002010B500F08A
:1036D00001F93F21012000F0FDF80321022000F054
:1036E000F9F80321084600F0F5F80321042000F062
:1036F000F1F80221052000F0EDF80E21062000F07F
:10370000E9F80021072000F0E5F80021112000F081
:10371000E1F80021122000F0DDF80021132000F074
:10372000D9F80021142000F0D5F80021152000F070
:10373000D1F80021162000F0CDF800211C2000F067
:10374000C9F800211D2000F0C5F8FFF7A1FFFFF721
:10375000A3FFFFF780FF01220248BDE8104091025D
:10376000FDF722B90018024001B582B04FF47A701B
:103770000123009001AA034802A9FEF75FF99DF812
:1037800004000EBD200100202DE9F041DFF83C804F
:103790004FF4806615460C460022074631464046E7
:1037A000FDF702F93846FFF7DFFF04E0FF20FFF7DF
:1037B000DBFF04F8010B681EC5B2F7D23146404664
:1037C000BDE8F0410122FDF7EFB80000001802400B
:1037D00070B50D460646072000F018F8C0F3420405
:1037E000062C0CD20848005D00F010F8021E28706C
:1037F00003D061203146FFF7C7FF204670BD00208F
:103800002870FF2070BD00005C45000870B50C4EAC
:103810004FF480650022044629463046FDF7C4F87F
:1038200004F01F00FFF7A0FFFF20FFF79DFF01221C
:10383000044629463046FDF7B7F8204670BD000023
:103840000018024010B504460020FFF7DFFF04F027
:10385000010120F001000143BDE81040002000F00C
:1038600039B810B504460020FFF7D0FF022C06D06F
:1038700020F00201BDE81040002000F02BB840F01D
:103880000201F7E72DE9F04117460E4605460220F2
:10389000FFF7BCFF0124AC40204300F03F010220B1
:1038A00000F018F80A4807F03F01405D00F012F8F8
:1038B0000120FFF7ABFF012E06D020EA0401BDE88E
:1038C000F041012000F006B80443E1B2F7E7000040
:1038D0005C4500082DE9F041134E4FF4806500224D
:1038E0000F46044629463046FDF75EF8202C06D2E6
:1038F00004F01F0040F02000FFF736FF0AE02046EA
:10390000FFF732FFE12C08D0E22C06D0E32C04D0E4
:10391000FF2C02D03846FFF727FF29463046BDE886
:10392000F0410122FDF740B80018024010B500B97F
:10393000012000F0CBFB002010BD10B501B9012122
:1039400000F0ECFB002010BD10B500F033FC0020AF
:1039500010BD10B5FFF7B2FD18B1BDE8104000F082
:103960002BBDBDE8104000F021BD3EB50D4604461C
:10397000B0F90800FFF768FE02A92B46CDE9000167
:10398000228AD4E9001092B200F0E4FC012801D0B0
:1039900000203EBD02983EBD2DE9F041184C0F4677
:1039A000054666692068001D00F09EFA38B9226855
:1039B0000121A06992F82C2091408843A061681CE5
:1039C00007D137B12168BDE8F0410E48091D00F06C
:1039D000C4BA20683544B5424560216805D2A06864
:1039E000091DBDE8F04100F0A0BA6068091D00F0B3
:1039F0009CFA206B854200D22563BDE8F08100006F
:103A000024000020FC0500202DE9F041054600F0CF
:103A1000B1FA2E4C2E4F2069401C2061206810B155
:103A2000E06940B32DE025602069012829D10026F6
:103A300006EB860007EB800000F069FA761C072E83
:103A4000F6D323488C3000F062FA2148A03000F011
:103A50005EFA1F48B43000F05AFA1D48C83000F032
:103A600056FA1B48DC3000F052FA19488C3060607E
:103A70001430A06005E0E86A2168C96A814200D874
:103A800025600120E16A491CE162E96AA269884077
:103A90001043A06101EB8100291D07EB800000F0BD
:103AA0005CFA00F08BFAE06900280CD02068E96A23
:103AB000C06A884207D207494FF080500860BFF3C0
:103AC0004F8FBFF36F8FBDE8F0810000240000200E
:103AD0002005002004ED00E010B50446006B00F066
:103AE00083FA2046BDE8104000F07EBA11484FF43A
:103AF000705110B5420706D00E49C01D20F00700D6
:103B0000411AC1F570510C4C002301440839A4F14D
:103B1000100221F00701C4E900030C1A11604B6088
:103B20000B60C0E9001494604FF000415460D16014
:103B300010BD00001006002070000020144E4FF051
:103B40008058144CDFF85090A6F1C80712E000BF6F
:103B500000F010FAF068C568281D00F0C5F920696A
:103B6000401E2061E068401EE06000F027FA284611
:103B7000FFF7B2FFE0680028EAD138680128F9D9D8
:103B8000C9F80080BFF34F8FBFF36F8FF2E70000DB
:103B9000E80500202400002004ED00E02DE9F047B6
:103BA0009A4681466FF00303DDE9098403EB820244
:103BB000089D206B104420F00706700709D05020A4
:103BC00072B680F31188BFF34F8FBFF36F8F62B669
:103BD000FEE723180A5C83F834200A5C12B1401C0B
:103BE0001028F6D3002784F84370072D00D306254C
:103BF000E562201DC4E9115700F094F904F11800A2
:103C000000F090F9E764C5F10700A06184F85070F6
:103C10005246246149463046646200F0C9F8B8F162
:103C2000000F206001D0C8F80040BDE8F087000018
:103C300030B5114900E011460A688242FBD34B6857
:103C40005C18844203D14468084623444B604368AF
:103C50001D18954209D1084C103C2468A24209D095
:103C600052681A4442600A6812680260814200D0B9
:103C7000086030BD0460F9E7700000200648416824
:103C8000096829B14168C968C96849680163704712
:103C90004FF0FF31FAE70000240000200A48406896
:103CA000401C4FF0500072B680F3118805D0BFF36E
:103CB0004F8FBFF36F8F62B6FEE7BFF34F8FBFF337
:103CC0006F8F62B6FEE70000780000202DE9F0411A
:103CD0000027044600F0A6FA344E306808B9FFF712
:103CE00005FFF06804424FD1E4B30834600710D0F8
:103CF00004F00700C0F108000444600709D0502018
:103D000072B680F31188BFF34F8FBFF36F8F62B627
:103D1000FEE73CB37068844236D824481030014630
:103D20000D6801E028460D466968A14202D2296863
:103D30000029F7D131688D4226D0076829680160D3
:103D400008376868011B102911D9281942070AD0C1
:103D5000502072B680F31188BFF34F8FBFF36F8F7F
:103D600062B6FEE710E041606C60FFF761FF6968D2
:103D70007068401A7060B268904200D2B060002053
:103D8000F2681143C5E9000100F084FB780709D00F
:103D9000502072B680F31188BFF34F8FBFF36F8F3F
:103DA00062B6FEE73846BDE8F08100006000002002
:103DB00070B5041F094E231F4FF0807521F00101DB
:103DC00025601C1F1960A0F120010B1F26604438DC
:103DD0000A606FF002051D6070BD00009D3C000888
:103DE000F0B5437804799FED390A1D0604F0C0044C
:103DF00003F07F0343EA440301EE103ADFED340A97
:103E0000F8EE411A02D581EE801A01E081EEA01A87
:103E1000304C84ED001A83781D06057903F07F038A
:103E200005F0300543EAC50306D500EE903AF8EEFA
:103E3000600A80EE801A05E000EE103AB8EE400A03
:103E400080EE201A84ED011AC37800791D0602D590
:103E5000DFED210A01E0DFED210A00F00F00214D26
:103E600060F3DF1300EE103A5FF00000B8EE401A86
:103E700081EE200ADFED1A0A84ED020A00EB40060B
:103E80000023B0EE600A05EB860600BF06EB830C4C
:103E900004EB83079CED001AD7ED001A5B1CDBB224
:103EA00001EE210A032BF1D3B5EEC00AF1EE10FAB0
:103EB00001D8012300E0002301EB80061354401CCD
:103EC000C0B2042886ED000AD8D3F0BD0000C8C2F5
:103ED0000000C842D404002000007AC400007A44E4
:103EE00000000000B4020020D0E9013201699A60AC
:103EF000D0E901235A604A68824201D182684A604F
:103F0000002202610868401E0860086870474FF090
:103F1000FF3300F108010022C0E901130260C16013
:103F20000161704700210161704730B50B685A1C70
:103F300002D000F1080202E0026904E0224654685F
:103F400025689D42FAD953684B6099608A60516038
:103F500008610168491C016030BD42684A6093688D
:103F60008B6093685960916008610168491C016029
:103F700070470000502072B680F31188BFF34F8F56
:103F8000BFF36F8F0B4962B64868401C4860012838
:103F90000ED10948006810F0FF0F09D0502072B60A
:103FA00080F31188BFF34F8FBFF36F8F62B6FEE7C8
:103FB000704700007800002004ED00E009494868DF
:103FC00028B1401E486001D180F31188704750200D
:103FD00072B680F31188BFF34F8FBFF36F8F62B655
:103FE000FEE700007800002070B500282BD0164DA9
:103FF000A0F108046068E968084209D1502072B64F
:1040000080F31188BFF34F8FBFF36F8F62B6FEE767
:1040100022684AB1502072B680F31188BFF34F8FE7
:10402000BFF36F8F62B6FEE78843606000F0FAF876
:1040300060686968084468602046FFF7F9FDBDE8DC
:10404000704000F027BA70BD600000204FF0E02003
:10405000002101614FF47A728161072303490968E5
:10406000B1FBF2F1491E4161036170471400002069
:1040700010B5FCF729F91349102810D300F1E020FE
:104080000A7890F8F003904209D2502072B680F37B
:104090001188BFF34F8FBFF36F8F62B6FEE70A48F8
:1040A0008968006800F4E060884209D9502072B63F
:1040B00080F31188BFF34F8FBFF36F8F62B6FEE7B7
:1040C00010BD0000780000200CED00E0020010B5EB
:1040D00016D01048806B48B1502072B680F311881A
:1040E000BFF34F8FBFF36F8F62B6FEE700F09AF811
:1040F00000211046FFF750FC00F0CCF9002807D152
:1041000005494FF080500860BFF34F8FBFF36F8FAA
:1041100010BD00002400002004ED00E070B5040094
:104120000D460DD0B5B1214A906BE8B1502072B662
:1041300080F31188BFF34F8FBFF36F8F62B6FEE736
:10414000502072B680F31188BFF34F8FBFF36F8F8B
:1041500062B6FEE7502072B680F31188BFF34F8F2E
:10416000BFF36F8F62B6FEE700F05CF82368526918
:104170005919934204D98B420AD9914202D807E0D7
:104180008B42FAD9881A21600021FFF705FC00E074
:10419000216000F07FF9002807D105494FF08050D9
:1041A0000860BFF34F8FBFF36F8F70BD24000020F6
:1041B00004ED00E0174818A11CB500248022234616
:1041C000CDE90040164800F0C5F801280BD0401C8E
:1041D0001ED1502072B680F31188BFF34F8FBFF30A
:1041E0006F8F62B6FEE7502072B680F31188BFF37E
:1041F0004F8FBFF36F8F62B606484FF0FF323438EF
:1042000001210263C1614461BDE81C4000F042B875
:104210001CBD00005800002049444C45000000002F
:104220003D3B00080248816B491C816370470000D8
:10423000240000201548816B11B1012141627047B3
:104240000021416212498269B2FA82F2C2F11F0270
:1042500002EB820251F822306BB101EB820101F1D5
:1042600008034A6852684A609A4201D152684A601B
:10427000D16801607047502072B680F31188BFF397
:104280004F8FBFF36F8F62B6FEE70000240000205F
:10429000200500202B49FF201CB50A7801920870E8
:1042A00008788DF800009DF800209DF8000002F0CD
:1042B000F002824209D0502072B680F31188BFF319
:1042C0004F8FBFF36F8F62B6FEE79DF80020072087
:1042D0001D4C02F050022270A06005E09DF8002005
:1042E00052008DF80020401E9DF800201206F5D4E3
:1042F0000328A06009D0502072B680F31188BFF364
:104300004F8FBFF36F8F62B6FEE74FF44070A0602F
:10431000019808700D48016841F47001016001685E
:1043200041F070410160FFF791FE00206060FBF7F3
:1043300091FF0748016841F040410160FBF776FFBB
:1043400000201CBD00E400E07800002020ED00E02B
:1043500034EF00E02DE9FF5F994616468A46834612
:104360009000DDE90E87FFF7B1FC05001AD054205C
:10437000FFF7ACFC040012D000212563CDE90087D3
:104380004B463246CDE9024151465846FFF706FCFE
:104390002046FFF739FB012004B0BDE8F09F284616
:1043A000FFF722FE4FF0FF30F6E7000001484069BA
:1043B000704700002400002010B5FFF759FE0148A7
:1043C000406910BD240000202DE9F0412F4CA06B66
:1043D000002740B1206A401C2062606A00B10127BA
:1043E0003846BDE8F0816669761C666115D1606863
:1043F000006848B1502072B680F31188BFF34F8F28
:10440000BFF36F8F62B6FEE76068A1686160A0606D
:10441000A06A401CA062FFF731FCDFF87480206BBB
:10442000864209D36068006880B16068C068C5686A
:10443000686886420DD220632068C06A00EB800164
:1044400058F821000128C8D90127C6E74FF0FF30EE
:10445000F1E7281DFFF748FDA86A18B105F118001B
:10446000FFF742FDE86A0121A26981401143A16181
:1044700000EB800108EB8100291DFFF76EFD20682D
:10448000E96AC06A8142CDD30127CBE7240000202E
:10449000200500202DE9F0472D4DA86B002426466D
:1044A00038B1FFF767FDA86B401EA863A86B50B139
:1044B00049E0502072B680F31188BFF34F8FBFF3ED
:1044C0006F8F62B6FEE7234F01202969D9B3A7F1A8
:1044D000B40980463868E8B1F868C46804F1180087
:1044E000FFF702FD201DFFF7FFFCE16AAA6908FA49
:1044F00001F01043A86101EB810109EB8100211D4E
:10450000FFF72BFD2968E06AC96A8842E2D3C5F843
:104510002480DFE70CB1FFF7B1FB2C6A44B14746BA
:10452000FFF752FF00B16F62641EF9D100202862CC
:10453000686A40B1084901264FF080500860BFF317
:104540004F8FBFF36F8FFFF739FD3046BDE8F0871F
:1045500024000020D405002004ED00E01112131403
:1045600015160A0B0C0D0E0F10000000D0460008A7
:1045700009040008010000000000000080000000A5
:10458000DC4600089D290008000000000000000033
:104590008000000000000000000000000102030491
:1045A00006070809000000000102030400000000E3
:1045B0004C5555555555A53F7751C1166CC156BF41
:1045C0009015CB19A001FA3EAD529C804F7E92BE51
:1045D000C4B1B4BD9EEE213ED43888BEE9FAA8BD70
:1045E00000004054FB21F93F3163621A61B4D03DB1
:1045F0000000601A61B4D03D7370032E8A19A33B8A
:104600000000002E8A19A33BC14920259A837B39DB
:1046100000000000000000006E83F9A22915444E3E
:10462000D15727FCC0DD34F5999562DB4190433CBE
:10463000AB6351FE61C5BBDE3A6E24B7E0D24D429A
:10464000EA2E49061C92D1091CEB1DFE3EA729B19A
:10465000F53582E88444BB2E26709CE9417E5FB428
:1046600039D69139F43953838B5F849C3B28F9BD4B
:10467000FF97F81F0F9805DE8B112FEF1F6D0A5A59
:10468000CF7E366DB709CB27663F464F2DEA5F9E3A
:10469000C7BA27757BF1E5EBF739073DEA92528AF5
:1046A000B15FFB6B085D8D1FA6F810111111813FE2
:1046B000D561C119A0012ABF7DFEB157E31DC73ED8
:1046C000EB9C2B8AE6E55ABE7CD5CF5A3AD9E53D1C
:1046D00064726976655461736B000000726164698D
:1046E0006F5461736B000000084700080000002051
:1046F0008800000068340008904700088800002007
:104700008845000078340008000000000000000028
:104710000000000000000000000000000024F40081
:104720000100000010000000000000000000000078
:104730000000000000000000000000000000000079
:104740000000000000000000000000000000000069
:104750000000000000000000000000000000000059
:104760000000000000000000000000000000000049
:104770000000000000000000000000000000000039
:1047800000000000AAAAAAAA000000000000000081
:04000005080001F9F5
:00000001FF
