:020000040800F2
:10000000400700200D0200089D1B0008471700084C
:10001000C91A00081D030008091E0008000000009E
:10002000000000000000000000000000131D000898
:100030001F030008000000009F1B0008151D00089A
:1000400027020008270200082702000827020008EC
:1000500027020008270200082702000827020008DC
:1000600027020008270200082702000827020008CC
:1000700027020008270200082702000827020008BC
:1000800027020008270200082702000827020008AC
:10009000270200082702000827020008270200089C
:1000A000270200082702000827020008270200088C
:1000B000270200082702000827020008270200087C
:1000C000270200082702000827020008270200086C
:1000D000270200082702000827020008270200085C
:1000E000270200082702000827020008270200084C
:1000F000270200082702000827020008270200083C
:10010000270200082702000827020008270200082B
:10011000270200082702000827020008270200081B
:10012000270200082702000827020008270200080B
:1001300027020008270200082702000827020008FB
:1001400027020008270200082702000827020008EB
:1001500027020008270200082702000827020008DB
:1001600027020008270200082702000827020008CB
:1001700027020008270200082702000800000000EC
:1001800027020008270200082702000827020008AB
:10019000270200082702000827020008270200089B
:1001A000270200082702000827020008270200088B
:1001B000270200082702000827020008270200087B
:1001C000270200082702000800000000270200089C
:1001D000270200082702000827020008270200085B
:1001E000270200082702000827020008270200084B
:1001F0002702000827020008DFF80CD000F07AF888
:10020000004800473D250008400700200648804779
:1002100006480047FEE7FEE7FEE7FEE7FEE7FEE7EB
:10022000FEE7FEE7FEE7FEE7B51D0008F90100085E
:100230002DE9F05F0546002092469B46884606461B
:10024000814640241BE0284641464746224600F0AE
:1002500041F853465A46C01A914110D311461846E8
:10026000224600F028F82D1A67EB01084F46224677
:100270000120002100F01FF817EB00094E41201E5D
:10028000A4F10104DFDC484631462A464346BDE876
:10029000F09FD2B201E000F8012B491EFBD270475B
:1002A0000022F6E710B513460A4604461946FFF742
:1002B000F0FF204610BD202A04DB203A00FA02F1AC
:1002C000002070479140C2F1200320FA03F3194344
:1002D00090407047202A04DB203A21FA02F00021E6
:1002E000704721FA02F3D040C2F120029140084346
:1002F00019467047064C074D06E0E06840F00103E0
:1003000094E8070098471034AC42F6D3FFF778FF23
:10031000482C0008682C000800F000B9FEE7704780
:1003200070B5044600F006F90546601C02D004488A
:100330000078044400F0FEF8401BA042FAD370BDE0
:100340000C0000202DE9F84FDFF89CE100224FF06F
:1003500001084FF0030B4FF00F0A00BF0B6808FABB
:1003600002F42340A34271D14D68022D01D0122D19
:100370000FD1D5080E69570700EB8505A9462D6AF0
:10038000FF0E0AFA07FCBE4025EA0C052E43C9F809
:1003900020600F79550006680BFA05FC07F003078B
:1003A00026EA0C06AF40374307604E68012E05D0A1
:1003B000022E03D0112E01D0122E0ED18668CF68E6
:1003C00026EA0C06AF403743876046680F79A6439C
:1003D000C7F30017974037434760C4688E6824EA24
:1003E0000C04AE402643C6604C68E40075D53F4C13
:1003F000256845F480452560246822F003069507AA
:1004000004F4804400943A4C2D0F2644D6F8084852
:10041000DFF8E0C00AFA05F7604524EA070401D1D5
:1004200000272EE0344FB84201D1012729E0334F95
:10043000B84201D1022724E0314FB84201D103274D
:100440001FE0304FB84202D104271AE045E02E4F9A
:10045000B84201D1052714E02C4FB84201D106273C
:100460000FE02B4FB84201D107270AE0294FB842CD
:1004700001D1082705E0284FB84201D1092700E043
:100480000A27AF4027437546C6F808784E68DEF85D
:100490000040F60324EA030400D51C43124E2C60EE
:1004A000361D4D683468AD0324EA030400D51C43AF
:1004B0000D4F346008374D683C68ED0224EA0304B0
:1004C00000D51C43084D3C600C354E682C68B602C4
:1004D00024EA030400D51C432C60521C102AFFF4AC
:1004E0003DAFBDE8F88F0000003C014044380240B9
:1004F00000300140000002400004024000080240B9
:10050000000C02400010024000140240001802409B
:10051000001C02400020024000240240426931EAEF
:10052000020200D10904816170470AB181617047FC
:100530000904FBE701488068704700000C000020B8
:1005400030B590F84120202A24D190F84020012A8B
:1005500020D0012380F84030242280F8412020233D
:1005600000240268156825F0010515600268156809
:1005700025F480551560026815680D431560016803
:100580000A6842F001020A6080F8413080F8404079
:10059000002030BD022030BD30B590F84120202A27
:1005A00022D190F84020012A1ED0012380F840304B
:1005B000242280F84120202400250268136823F0BB
:1005C000010313600268136823F4706343EA012196
:1005D000116001680A6842F001020A6080F8414037
:1005E00080F84050002030BD022030BD70B50400BE
:1005F00004D094F84100002510B106E0012070BD40
:10060000204684F8405000F0DFF8242084F84100B0
:100610002068016821F001010160D4E9001020F098
:10062000706008612068816821F400418160E068A1
:1006300021680128A06806D040F404408860E06882
:10064000022803D006E040F40040F7E721684FF4A9
:100650000060486020212068114A436813434360CA
:100660002068C26822F40042C26054F8106B0DCCBE
:10067000104340EA0320F06054F81C3CD4E9000227
:100680001043186054F81C0D026842F00102026029
:10069000656484F84110256384F84250002070BDE1
:1006A000008000022DE9F84F044690F841001F46F3
:1006B0009046DDF828A08B4620287ED194F8400093
:1006C00001287AD0012084F84000FFF733FF01228F
:1006D000064619230090D103204601F0A1F8E0BBA3
:1006E0000025212184F84110102084F8420065641F
:1006F0006785618DFF2732484FF00079C4F8248068
:10070000FF294FF08078656303D927853A4600902A
:1007100039E0618D218500903AE05946204601F08C
:1007200069F813E001F0D0F8B8B9606A2168007880
:100730008862606A401C6062608D401E6085208D0A
:10074000401E80B22085618D01B168B1608D324656
:10075000514600282046E5D100E002E001F08DF886
:10076000D0B10120BDE8F88F0022534680212046F9
:10077000009601F055F80028F3D1608DFF2804D9C8
:1007800027853A4600954346C7E7608D208500954A
:100790004B4694F82820C0E720682021094AC1610F
:1007A000206843681340436084F8411084F8425045
:1007B000002084F84050D5E7FFE70220D2E7000090
:1007C0000020008000E800FE10B586B00446142129
:1007D0006846FFF765FD1249206888421DD111481F
:1007E000016841F00201016000681221012200F05D
:1007F00002000590C020032304248DE81F000A484E
:100800006946FFF79FFD07481030016841F4001169
:100810000160006800F40010059006B010BD0000F3
:100820000054004030380240000402400248816811
:1008300002781144816070470C000020032010B53D
:1008400000F060F8002000F005F800F023F8002028
:1008500010BD000070B50D4D04464FF47A700C4A7F
:1008600029781268B0FBF1F0B2FBF0F000F058FF0D
:1008700048B9102C07D200222146501E00F022F861
:1008800000206C6070BD012070BD00000C000020D5
:10089000080000200A4808B5016841F08051016055
:1008A000006800F0805000900548001D016841F488
:1008B00080410160006800F48040009008BD0000A5
:1008C000403802400E4BF0B41B680D46C3F30223C0
:1008D000C3F10706042E00D90426191D072901D2E9
:1008E000002300E0DB1E012404FA06F19C40491EAF
:1008F0002940641E994014402143F0BC01F09DBA88
:100900000CED00E0064900F0070210B54FF6FF04B9
:100910000868044B204040EA02201843086010BDDC
:100920000CED00E00000FA051848F8B5016841F048
:10093000805101600068164C00F0805000902068E3
:1009400040F480302060FFF7F5FD4FF47A760546DD
:1009500005E000BFFFF7EEFD401BB0420FD8606816
:10096000C003F7D5206840F400302060FFF7E2FDB7
:10097000054606E0FFF7DEFD401BB04201D903202B
:10098000F8BD60688003F5D50020F8BD403802400E
:10099000007000402DE9F84F04460078DFF82494F9
:1009A0004FF000063746C0070ED0D9F8001021F4EA
:1009B0000001C9F80010D9F80010626B1143C9F8A2
:1009C0000010606B00B90126FE4D206884350003DD
:1009D0000ED5E16B286820F4401008432860E06BD6
:1009E000B0F5801F01D010B102E0012600E0012720
:1009F00020684FF4800BC0020CD5216C286820F4CD
:100A0000400008432860206C584501D1012601E0D0
:100A100000B901272068C10100D50126800666D5EE
:100A2000E8483830016841F0805101600068DFF823
:100A300098A300F080500090DAF8001041F4807123
:100A4000CAF80010FFF776FD804605E0FFF772FD5B
:100A5000A0EB080064287DD8DAF80000C005F5D5C1
:100A6000DFF8608308F16808D8F8000010F44070DF
:100A70002AD0218E01F44071814225D0D8F800108F
:100A8000D8F8002021F4407142F48032C8F80020E8
:100A9000D8F8002022F48032C8F80020C8F80010EE
:100AA000D8F80000C0070FD0FFF744FD824607E0EA
:100AB000FFF740FDA0EB0A0141F288308142CAD81D
:100AC000D8F800008007F3D5206BC0F3012103297B
:100AD0007ED0D9F8001021F4F811C9F80010228E48
:100AE000D8F80010C2F30B021143C8F800102078A8
:100AF000C00607D5286820F0807028602868A16BA0
:100B0000084328602188AF488830490405D5626EC3
:100B1000016821F44031114301602188090405D5A1
:100B2000A26E016821F44021114301602168C903CC
:100B300005D5E26E016821F440111143016021687E
:100B4000890305D5226F016821F44001114301603A
:100B5000217800E034E1490605D5626C016821F096
:100B60000301114301602178090605D5A26C0168D3
:100B700021F00C01114301602188C90505D5E26C03
:100B8000016821F03001114301602188890505D5F4
:100B9000226D016821F0C0011143016021884905DF
:100BA00005D5626D016821F440711143016021880F
:100BB000090505D5A26D016821F44061114301606A
:100BC0002188C90407D5E26D016821F4405100E095
:100BD0005FE0114301602188890405D5226E016818
:100BE00021F44041114301602168490205D5A26FFB
:100BF000016821F080611143016021684FF0006AB3
:100C0000890209D5E26F016821F00061114301609A
:100C1000E16F514500D1012721680A0700D501275E
:100C2000490305D5626F016821F0407111430160ED
:100C30002168090206D5D4F88020016821F080518E
:100C4000114301602168490106D5D4F88420016868
:100C500021F00051114301602068000106D5D4F84D
:100C60008810286820F00070084328602068C000C1
:100C700006D5D4F88C10286820F0806008432860DE
:100C8000DFF84891012E0ED02068B0F1007F0AD025
:100C90008FE04F4AD9F80030104023F4F812024395
:100CA000C9F800201BE7D9F800004E4620F080600C
:100CB000C9F80000FFF73EFC804605E0FFF73AFC6C
:100CC000A0EB080064287BD830680001F6D42178B6
:100CD0003C487C30C90712D0616B81B9237A6268C5
:100CE0000168D0F800C09201C1F3014142EA01421B
:100CF000CCF3036142EA016141EA037101602168BA
:100D00000A0303D5E26BB2F5801F04D0C9021AD5DD
:100D1000216C594517D16368016894F80CC00268CA
:100D20009B01C1F3014143EA0141C2F3027241EA6E
:100D30000C6141EA027101602968626A21F01F01B9
:100D4000521E114329602168C90110D5238A6268A7
:100D50000168D0F800C09201C1F3036142EA034286
:100D600042EA0162CCF3027142EA0171016021683A
:100D700089010CD56168228A237B94F808C0890117
:100D800041EA024141EA036141EA0C7101603168C4
:100D9000B04641F080613160FFF7CCFB064604E0CD
:100DA000FFF7C8FB801B64280AD8D8F800000001B0
:100DB000F6D5E7B3D9F800004E4620F0805009E0A0
:100DC0007BE000000838024000700040003802401C
:100DD000FFFCFF0FC9F80000FFF7ACFB074604E07B
:100DE000FFF7A8FBC01B642867D83068C0438000A9
:100DF000F6D5216835480A0301D5E26B1AB1C9025C
:100E00001DD5216CD9B963690168277E02689B01F1
:100E1000C1F3014143EA0143C2F3027143EA0762AD
:100E200042EA0171016029686FF0FF0300E04BE0C6
:100E3000A26A21F4F85103EB0222114329602168D0
:100E4000890212D5E16F51450FD1238C6269016887
:100E500007689201C1F3036142EA034242EA016278
:100E6000C7F3027142EA017101602178090716D5C2
:100E700061690268D0F800C08B01277FC2F303626A
:100E8000CCF3014143EA014141EA026141EA0771C1
:100E900001602868E16A20F4403008432860306827
:100EA00040F080503060FFF745FB044608E000BF8B
:100EB000FFF740FB001B642802D90320BDE8F88F30
:100EC0003068C0438000F3D40020F7E78838024040
:100ED0002DE9F04705000F4663D0444E306800F01E
:100EE0000F00B84209D2306820F00F00384330605C
:100EF000306800F00F00B84253D128683C4C81079D
:100F000012D5400703D5206840F4E05020602878CF
:100F1000000703D5206840F460402060A96820687D
:100F200020F0F000084320602878C0072AD030491C
:100F300068680839012810D00968022810D089078C
:100F400000292EDA216821F0030101432160FFF717
:100F5000F1FA804641F288390DE009688903EFE72C
:100F60008901EDE7FFF7E6FAA0EB0801494502D950
:100F70000320BDE8F0876868216801F00C01B1EB3F
:100F8000800FEFD1306800F00F00B8420BD9306805
:100F900020F00F0038433060306800F00F00B84296
:100FA00001D00120E5E72878400705D5E9682068E9
:100FB00020F4E050084320602878000706D528690F
:100FC000216821F4604141EAC000206000F016F879
:100FD0002168084AC1F30311515CC8400649086002
:100FE0000020FFF737FC0020C3E70000003C024070
:100FF00008380240112B000808000020154910B5E0
:101000001548096811F00C0213D04110042A0FD0C2
:10101000082A0ED10F4C241F2268236802F03F02D9
:101020005B0207D52068C0F38810A0FB010106E031
:10103000084610BD2168C1F38811A1FB00010023FF
:10104000FFF7F6F82168C1F30141491C4900B0FBE4
:10105000F1F010BD083802400024F4002DE9F84FEB
:1010600005004FF000076ED02878DFF82093A9F133
:10107000040AC007AAF104044CD0D9F8001048466D
:10108000C1F38101012908D00068C0F38100022862
:101090000AD1DAF80000400206D52068800339D56D
:1010A00068680028DFD035E06868B0F5803F0BD075
:1010B00010B1B0F5A02F11D0206820F4803020604E
:1010C000206820F4802002E0206840F48030206016
:1010D000686890B1FFF72EFA06460AE0206840F4EF
:1010E00080202060F0E700BFFFF724FA801B64280F
:1010F00072D820688003F7D50CE0FFF71BFA06468C
:1011000005E000BFFFF716FA801B6428F0D82068BE
:101110008003F7D42878800742D5D9F800104846D4
:1011200011F00C0F08D00068C0F3810002280BD129
:10113000DAF80000400207D42068800718D5E86874
:10114000012800D114E01EE1E8680028206817D0CB
:1011500040F001002060FFF7EDF9064605E000BF12
:10116000FFF7E8F9801B0228C2D820688007F7D56E
:101170002869216821F0F80141EAC00020600FE0F1
:1011800020F001002060FFF7D5F9064605E000BF1A
:10119000FFF7D0F9801B02281ED820688007F7D4FB
:1011A0002878000729D5794869696C30002980467C
:1011B000016812D041F001010160FFF7BBF906465A
:1011C00005E000BFFFF7B6F9801B022804D8D8F865
:1011D00000008007F6D510E089E021F001010160F0
:1011E000FFF7A8F9064604E0FFF7A4F9801B0228E0
:1011F0007DD8D8F800008007F6D4287840076BD552
:10120000DFF8888108F13808D8F80000C0000BD456
:10121000D8F8001041F08051C8F80010D8F800004C
:10122000012700F08050009059480168C90512D488
:101230000168834641F480710160FFF77BF906463F
:1012400005E000BFFFF776F9801B64284FD8DBF874
:101250000000C005F6D54D4EA868683601280AD0B2
:1012600008B1052811D0306820F0010030603068E6
:1012700020F0040002E0306840F001003060A8680F
:10128000A0B1FFF757F983460CE0306840F0040046
:101290003060F0E7FFF74EF9A0EB0B0141F2883028
:1012A000814268D830688007F4D50EE0FFF742F934
:1012B000834607E0FFF73EF9A0EB0B0141F28830CF
:1012C000814258D830688007F4D42FB1D8F8001084
:1012D00021F08051C8F80010A869E0B3D9F80010D7
:1012E000C1F3810102294ED00228206800E042E0CB
:1012F00020F08070206003D0FFF71CF905463DE028
:10130000FFF718F9064604E0FFF714F9801B0228DE
:1013100031D820688001F7D4D5E90921DFF874C0FD
:10132000D5E9070695F830304F0895F82C10304372
:101330000CEB074545EA8212104340EA016040EA9F
:101340000370CAF80000206840F080702060FFF74A
:10135000F1F8054605E014E0FFF7ECF8401B022821
:1013600009D820688001F7D50BE000BFFFF7E2F84D
:10137000401B022802D90320BDE8F88F20688001B5
:10138000F4D40020F8E70120F6E700000838024016
:10139000007000400000FFFF2DE9F047040005D079
:1013A00094F85D000025A56218B107E00120BDE8B2
:1013B000F087204684F85C5000F050F8022284F850
:1013C0005D204FF4E0632068016821F04001016076
:1013D000E068984201D9002101E04FF48051B0F556
:1013E000706F02D0984200D0A5624FF00109266BC1
:1013F0002EB9984201D9226301E0C4F83090D4E9B3
:101400000468D4E90102278B46EA0806A36A104360
:1014100007F4007830432668D4E907C240EA0800A0
:1014200040EA0C00CC460427104318433060D4F83F
:101430001880666B606AE26807EA184723683043E1
:101440003A431043084358602068C16921F40061A1
:10145000C161256684F85DC00020A8E710B586B09C
:10146000044614216846FEF71BFF12492068884293
:101470001DD11148016841F480510160006800F4F9
:10148000805005900C481438016841F0010101605A
:1014900000680221002200F001000590E0200323F3
:1014A00005248DE81F0005486946FEF74BFF06B08E
:1014B00010BD0000003001404438024000000240EE
:1014C0002DE9F05F8B4690F85C1000271D460A9EC0
:1014D0000129924604464FF001090ED0012084F8FC
:1014E0005C00FFF727F8804694F85D0061680128EA
:1014F0000CD0B1F5827F07D102E00220BDE8F09F59
:10150000A16809B9042801D00227FFE0BBF1000F50
:1015100024D0BAF1000F21D005B394F85D0004285F
:1015200002D0052084F85D00A4F844500020A5876F
:101530004FF4E062C4F838B0C4F840A0E168206617
:101540009142E0642065A4F84650E58701D8012D5A
:1015500006D92068416821F4805105E00127D5E0D3
:101560002068416841F48051416020680168490663
:1015700003D4016841F040010160E0689042606876
:1015800045D908B1012D3AD1A06B21680088C86007
:10159000A06B801CA063E08F401EE0872FE02068D6
:1015A000816889070FD5E18F69B1B9F1010F0AD1BF
:1015B000A26B4FF000091188C160A06B801CA06372
:1015C000E08F401EE08720688168C9070FD0B4F81B
:1015D000461061B1C0684FF00109226C1080206C88
:1015E000801C2064B4F84600401EA4F84600FEF7B4
:1015F000A1FFA0EB0800B04201D3701C74D1E08FB2
:101600000028CCD1B4F846000028C8D175E008B154
:10161000012D6BD1E08F21680128A06B07D90088CC
:10162000C860A06B801CA063E08F801E06E000787D
:101630000873A06B401CA063E08F401EE08755E05C
:101640002068816889071AD5E18FC1B1B9F1010F0E
:1016500015D1E18F0129A16B07D90988C160A06B61
:10166000801CA063E08F801E06E009780173A06BE8
:10167000401CA063E08F401EE0874FF00009206807
:101680008168C90728D0B4F8461029B3B4F84610C9
:10169000012914D9C068216C0880206C801C20644A
:1016A000B4F84600801EA4F84600B4F846000128AD
:1016B00010D82068416841F4805141600AE0007B05
:1016C000216C0870206C401C2064B4F84600401E59
:1016D000A4F846004FF00109FEF72CFFA0EB08002C
:1016E000B04202D3701C01D018E0BEB1E08F0028D8
:1016F000A6D1B4F846000028A2D142463146204681
:1017000000F04EFA10B1202020660127012084F855
:101710005D000021384684F85C10EFE60327F5E70A
:10172000401EB0F1807F10B501D3012010BD4FF0F5
:10173000E02460610F21601700F07FFB0020A061B2
:101740000721216110BDFEE701688A69D243920733
:1017500001D400228A6200688169C943C90703D0A5
:10176000816941F001018161704700002DE9F0417C
:101770000446006890460E468069C043C00635D4D2
:101780000025202720688069C043800616D5701C7C
:10179000F8D0FEF7CFFEA0EB0800B04201D8002E33
:1017A000F0D1606C84F8405040F02000606484F810
:1017B000417084F842500120BDE8F081216810207A
:1017C000C8612068C7612046FFF7BEFF206808494E
:1017D00042680A404260606C40F00400606484F833
:1017E000417084F8425084F84050E4E70020E3E779
:1017F00000E800FE70B50068C1F30901074E41EA38
:101800000241049C4FF480654268194305EA54552F
:101810003543AA4321430A43426070BDFF63FF037F
:101820002DE9F0411D4617460E460446DDF81880A6
:1018300008E0681C06D0FEF77DFEA0EB0800A84279
:101840000BD855B12068806936EA000013D000201B
:10185000B842EED00020BDE8F081626C002084F830
:101860004000202142F02002626484F8411084F894
:1018700042000120EFE70120EAE770B516460D4669
:1018800004460DE0324629462046FFF76FFF08B1B7
:10189000012070BDFEF74EFE801BA84207D835B16F
:1018A00020688069C0438006ECD4002070BD626C63
:1018B000002084F84000202142F02002626484F875
:1018C000411084F84200E3E770B516460D46044621
:1018D0000FE0324629462046FFF748FF08B10120B5
:1018E00070BD681C05D0FEF725FE801BA84207D8F6
:1018F00035B120688069C0438007EAD4002070BDFC
:10190000626C002084F84000202142F020026264D2
:1019100084F8411084F84200E1E713014171120993
:101920008271C37100F01FB841F06003437182718E
:101930000021C17100F017B870B5154604460F229A
:1019400001604121FFF7F0FF45F004012046BDE8AA
:101950007040AFF3008041F070014171002282714C
:10196000C271AFF3008038B5202101714FF47A7253
:101970000092421D046803232046FEF793FE38BD03
:101980002DE9F04387B014216846FEF789FC28480A
:10199000016841F480710160016801F48071059172
:1019A000016841F080010160016801F0800105914A
:1019B000016841F001010160016801F00101059138
:1019C000016841F040010160016801F040010591AA
:1019D000016841F00201016000684FF4E046DFF861
:1019E0005480002200F00200314605904046FEF788
:1019F0009CFDDFF844904FF4C0670022394648460A
:101A0000FEF793FD00240096012569464046CDE986
:101A100001540394FEF796FC00976946CDE9015402
:101A200048460394FEF78EFC07B0BDE8F083000043
:101A30003038024000200240001802400E480021C9
:101A400010B50C4C01230D4A0460C0E90121C0E926
:101A5000033141618161C1610162FEF7C7FD064842
:101A60000021FEF76DFDBDE8104003480021FEF7A0
:101A700093BD000000540040200000200D030060D2
:101A800070B510484FF4407500210D4C4FF482762C
:101A90001823C0E9021501616215E0E80546072533
:101AA000082680E80E00C1600161C0E90515C0E9A3
:101AB00007160448FFF770FCA014606070BD0000BA
:101AC000003001406C000020FEE700009FED050A99
:101AD00080F8722080F8641080ED1A0A80ED1B0AED
:101AE00070470000000000000B4690F8721071B1C2
:101AF000B7EEC00A9FED092BB3EE011B194620EE8D
:101B0000020B80EE012BB7EEC20B00F00BB890F881
:101B1000641000221846FFF700BF0000000000001C
:101B20000080494070B504460D462DED048BB0EEA3
:101B3000408A406DB5EEC08AB4F85810F1EE10FA44
:101B40009FED149B05DB0122FEF7EFFCBCEEC80AFB
:101B500006E00022FEF7E9FCB0EEC80ABCEEC00ABF
:101B600010EE100A80B200EE100AB8EE400B20EE24
:101B7000090BBCEEC00B10EE100A82B2A4F8702064
:101B800094F864102846BDEC048BBDE87040FFF764
:101B9000C4BE00008E736A6851FB403F70477047B7
:101BA000F8B515460E4604460B464FF4C051009258
:101BB000002200F019F888B900223346802120461F
:101BC000009500F05CF848B9002233464FF4C0613C
:101BD0002046009500F008F8002804D0206E40F060
:101BE000200020660320F8BD2DE9F0474FF4C068BF
:101BF0001D4617460E46DDF8209004460CE046458B
:101C000001D107B9007B681C06D0FEF793FCA0EB5E
:101C10000900A84208D23DB1206881683140B9422C
:101C2000EDD10020BDE8F0872068416821F0E00197
:101C300041606068B0F5827F0BD1A068B0F5004FBD
:101C400002D0B0F5806F04D12068016821F0400116
:101C50000160A06AB0F5005F09D12068016821F435
:101C6000005101602068016841F4005101600121C8
:101C700084F85D10002084F85C000320D2E72DE991
:101C8000F0411D4617460E460446DDF8188008E070
:101C9000681C06D0FEF74EFCA0EB0800A8420BD251
:101CA00055B12068806836EA000030D00020B84284
:101CB000EED10020BDE8F0812068416821F0E0010C
:101CC00041606068B0F5827F0BD1A068B0F5004F2D
:101CD00002D0B0F5806F04D12068016821F0400186
:101CE0000160A06AB0F5005F09D12068016821F4A5
:101CF000005101602068016841F400510160012138
:101D000084F85D10002084F85C000320D2E70120F5
:101D1000CDE77047FEF78ABD30B5B7B0342124A8AF
:101D2000FEF7BEFA142131A8FEF7BAFA90216846F0
:101D3000FEF7B6FA1D48016841F080510160006865
:101D400000F0805036901A48016841F4404101602B
:101D500000680123022400F44040369098050421D5
:101D6000D822CDE92A402CA81D0480E816002F9423
:101D700024A8CDE92435FFF771F9FEF7D5FDE1027E
:101D80004FF4A05031ABCDE934010F22002583E898
:101D90003400072131A8FFF79BF8600319950090E4
:101DA0006846FEF7F7FD37B030BD0000403802400E
:101DB00000700040104A30B51048146800210F4BE5
:101DC00044F470041460083305680D4A0D4C45F066
:101DD0000105056019600368051D1340074A03608B
:101DE0000C322C600568E305034C25F48025056062
:101DF000803C1160236030BD88ED00E00038024077
:101E0000FFFFF6FE10300024FEE703B40198410006
:101E1000009850EAC12018BF04204A0D18BF40F0B6
:101E2000010040F2FF72B2EB515F08BF40F00200C8
:101E3000012808BF052002B07047090700284FEAB3
:101E4000116104DB00F1E02080F80014704700F01D
:101E50000F0000F1E02080F8141D70470000000022
:101E600010B529499FED261B2DED020B84B0059876
:101E700020F000408842D8BF9DED040B2DDD2349A2
:101E8000884209D1049840B94FF0010000F044FBAA
:101E900000F01AFB06B010BD05DB9DED040B30EE23
:101EA000000B06B010BD68469DED040B00F088F8ED
:101EB00010F0030004BF9DED021B9DED000B0CD044
:101EC00001280ED09DED021B9DED000B022810D0C5
:101ED000012000F0A5FA06B010BD00F0F9F906B037
:101EE00010BD9DED021B9DED000B012000F098FA46
:101EF00001E000F0EDF906B0B1EE400B10BD0000BE
:101F00000000000000000000FB21E93F0000F07F1E
:101F100010B529499FED261B2DED020B84B00598C5
:101F200020F000408842DCBF00209DED040B2EDD38
:101F30002249884209D1049840B94FF0010000F0CD
:101F4000EBFA00F0C1FA06B010BD05DB9DED040B05
:101F500030EE000B06B010BD68469DED040B00F09E
:101F60002FF810F003000DD0012814D09DED021BB6
:101F70009DED000B022816D000F0AAF906B0B1EED4
:101F8000400B10BD9DED021B9DED000B012000F0EC
:101F900047FA06B010BD9DED021B9DED000B00F051
:101FA00097F906B010BD012000F03AFAE6E700000C
:101FB0000000000000000000FB21E93F0000F07F6E
:101FC0002DE9F14F04462DED020B2DED048B94B05D
:101FD0009FED9D0B80ED020B199E9D4826F000455C
:101FE00085420ADC9DED180B002084ED000B14B037
:101FF000BDEC048B03B0BDE8F08F96489FED969B37
:102000009FED978BA84225DD97489FED991B9FED8B
:102010009A2B9DED180B002E0DDD30EE490B8542FD
:1020200012BF30EE480B30EE410B30EE420B84ED28
:10203000000B0120DBE730EE090B854212BF30EECA
:10204000080B30EE010B30EE020B84ED000B4FF06D
:10205000FF30CCE78A48A84253DB9DED180B51ECCA
:10206000100B00F05FFA41EC100BB0EE401B9FED3F
:10207000862B9FED870B290DDFF81CC201EE020BAA
:102080000120FDEEC00B10EE903A00EE903AB8EE53
:10209000E02BB0EE410B02EE490B22EE081BFC4494
:1020A000032830EE411B84ED001B1DD011EE902A59
:1020B00000EB4015113DC2F30A528A1A954213DA19
:1020C0000CEB0012B0EE403B92ED000B401C20EEFA
:1020D000021B33EE410B33EE403B33EE411B92EDDE
:1020E000023B12EE031BDBE7002EA8BF1846BFF62B
:1020F0007EAF94ED000B5842B1EE400B84ED000B27
:1021000075E7C6F3130040F4801EC6F30A50A0F230
:10211000F530471100F01F05C5F12000DDF860B073
:10212000139000200890099005200DF1080C5B49E0
:10213000002D07EB0002794408BF51F8221009D0A6
:1021400051F8223001EB8201AB404A68139922FA20
:1021500001F11943A1FB0E26A1FB0B131A449A426D
:1021600034BF0123002303EB06080CEB8003D3E903
:1021700001A60E448E4234BF0121002192448A44BC
:1021800011B1924502D903E0924501D2012100E04C
:102190000021C3E901A641444CF82010011EA0F122
:1021A0000100C4DC04989DED050A00F10050810F88
:1021B00004989FED3B4B800001EE100ADDED060A0E
:1021C0009DED072AB8EEC13BB8EE401BB8EE600BA0
:1021D000B8EE422B002021EE041B9FED334B20EE86
:1021E000040B9FED334B22EE042B30EE024B34EE0A
:1021F000014B34EE034B8DED004B00909DED004BF9
:10220000199834EE433B10F0004F33EE411B31EE92
:10221000400B32EE401B9DED000B9FED272B20EE77
:10222000020B9FED272B01EE020B9DED001B9FED96
:10223000262B01EE020B1CBF4942B1EE400B84ED90
:10224000000B0846D3E6000000000000000000007C
:10225000FB21E93F7CD9024000004054FB21F93FBB
:102260003163621A61B4D03DFB21F93F00000000E8
:102270000000601A61B4D03D7370032E8A19A33B2D
:10228000FB2139410000000083C8C96D305FE43F85
:10229000000000000000E03FB60A00004E0A000007
:1022A000000000000000103E000000000000103C94
:1022B000000000000000103A3326A611460B113C26
:1022C000182D4454FB21F93D00000054FB21F93D39
:1022D00010B52DED040B2DED068B82B0B0EE41ABA9
:1022E00009989FED299B20F00044B4F1795F0FDA43
:1022F0009DED080BBDEEC00B10EE100A002801BFCB
:10230000B0EE490B02B0BDEC068B04B008BF10BDA7
:102310009DED080B1E48062120EE008BB0EE480B09
:10232000784400F045F820EE080B9DED081B1C4892
:10233000844228EE000B01EE4A0B9FED171B28EE9E
:10234000011BBCBF31EE400B39EE400B16DB1548CC
:10235000A042BCBF9FED142B8DED002B06DBA4F536
:1023600000100190002000909DED002B31EE421BEB
:1023700039EE422B31EE400B32EE400B02B0BDEC99
:10238000068B04B010BD0000000000000000F03F0C
:102390000408000000000000000000000000E03F12
:1023A0003333D33F0000E93F000000000000D23F7C
:1023B000491E00EBC102B0EE401B92ED000B31F064
:1023C00006020DD0491E00EBC102B0EE403B92ED7B
:1023D000002B31F00602B0EE420B03EE010BF1D1FF
:1023E000022914D004290AD0062918BF704790ED9D
:1023F0000A2B00EE012B90ED080B02EE010B90ED85
:10240000062B00EE012B90ED040B02EE010B90ED7C
:10241000022B00EE012B90ED000B02EE010B70473A
:1024200031B504462DED040B2DED068BB0EE419B2E
:1024300007989DED060B20F00040B0F1795F0DDAB2
:1024400051EC100BFFF7E1FC042808BF00F048F83E
:102450009DED060BBDEC068B05B030BD20EE008B6C
:102460001348052128EE00ABB0EE480B7844FFF787
:102470009FFF9FED111B8CB19FED112B29EE022BBD
:102480000AEE402B9DED060B18EE029B0AEE419BD7
:1024900030EE490BBDEC068B05B030BD08EE001BDD
:1024A0009DED060B0AEE010BBDEC068B05B030BDB1
:1024B000B007000000000000495555555555C5BFEF
:1024C000000000000000E03F9FED031B81EE010BC8
:1024D0007047000000000000000000000000000045
:1024E0009FED030B20EE000B704700000000000082
:1024F000000000000000001002E008C8121F08C120
:10250000002AFAD170477047002001E001C1121F74
:10251000002AFBD1704700000149086070470000A5
:102520001800002082B0CDE9000121F000400190A8
:102530009DED000B02B051EC100B70472DED048B9C
:1025400084B0FEF77BF9FFF7E7FBFFF719FAFFF717
:1025500097FAFFF773FA9FED678BB0EE480BFFF722
:10256000D7FC664C84ED000BB0EE480BFFF778FC0F
:102570009FED638BB1EE400B9FED639B84ED020BEF
:1025800084ED048BB0EE490BFFF7C2FC84ED060B23
:10259000B0EE490BFFF764FCB1EE400B9FED5C9B86
:1025A00084ED080B84ED0A8BB0EE490BFFF7B0FC0D
:1025B00084ED0C0BB0EE490BFFF752FCB1EE400B73
:1025C0009FED559B84ED0E0B84ED108BB0EE490B07
:1025D000FFF79EFC84ED120BB0EE490BFFF740FCB9
:1025E000B1EE400B84ED140B84ED168B00F0C4F8B3
:1025F00000F0D6F800211822084600F0AFF90620B6
:1026000000F09FF8022000F098F9012000F086F910
:10261000012243485102FDF788FF1821A4F1400030
:10262000FDF73EFE02226846A4F1F001FFF784F9AF
:10263000002268461146FFF770F904F16005002496
:102640000122214604EB4400C0EB441005EB80005E
:10265000FFF73CFA641CE4B2042CF1D3314E0024A1
:102660004FF480594FF400574FF4804849463046A4
:10267000FDF752FE39463046FDF74EFE41463046E4
:10268000FDF74AFE6420FDF74BFE641CE4B20A2C01
:10269000ECD31A4E244F203E00F07EF8787000F004
:1026A0007BF84006F8D515481F49403800F0FCF883
:1026B00000F059F800F03AF810491B4A2039921CF2
:1026C000A1F1200000F09EF95FF0000406EBC401C8
:1026D00004EB440091ED000BC0EB44106946B7EEEB
:1026E000C00B05EB8000FFF7FFF9641CE4B2042C7B
:1026F000ECD3D1E7182D4454FB21E9BF1001002091
:10270000F4346090F469B5BF8744E74A1857E63F50
:10271000F65B8A41358C03405E3855297A6A0F4052
:10272000001802400020024000000020072010B5E1
:1027300000F0D8F840F07001BDE81040072000F02C
:1027400035B910B50528044601D9002106E001205D
:1027500000F0C8F80121A14020EA0101BDE81040C5
:10276000012000F023B9FF21E22000F01FB9FF2172
:10277000E12000F01BB9000010B5064C01229102C7
:102780002046FDF7D2FE002220466115BDE810402C
:10279000FDF7CBBE00180240072000F0A3B80000F0
:1027A0000821002010B500F001F93F21012000F0C0
:1027B000FDF80321022000F0F9F80321084600F09B
:1027C000F5F80321042000F0F1F80221052000F0C3
:1027D000EDF80E21062000F0E9F80021072000F0B6
:1027E000E5F80021112000F0E1F80021122000F0AE
:1027F000DDF80021132000F0D9F80021142000F0AA
:10280000D5F80021152000F0D1F80021162000F0A5
:10281000CDF800211C2000F0C9F800211D2000F097
:10282000C5F8FFF7A0FFFFF7A2FFFFF77FFF012228
:102830000248BDE810409102FDF777BE0018024043
:1028400001B582B04FF47A700123009001AA0348C9
:1028500002A9FEF735FE9DF804000EBD6C000020B5
:102860002DE9F041DFF83C804FF4806615460C46B8
:102870000022074631464046FDF757FE3846FFF72F
:10288000DFFF04E0FF20FFF7DBFF04F8010B681E09
:10289000C5B2F7D231464046BDE8F0410122FDF70E
:1028A00044BE00000018024070B50D4606460720E1
:1028B00000F018F8C0F34204062C0CD20848005D62
:1028C00000F010F8021E287003D061203146FFF797
:1028D000C7FF204670BD00202870FF2070BD00009B
:1028E000042B000870B50C4E4FF48065002204469E
:1028F00029463046FDF719FE04F01F00FFF7A0FF40
:10290000FF20FFF79DFF0122044629463046FDF7D0
:102910000CFE204670BD00000018024010B50446B1
:102920000020FFF7DFFF04F0010120F00100014368
:10293000BDE81040002000F039B810B50446002072
:10294000FFF7D0FF022C06D020F00201BDE81040B6
:10295000002000F02BB840F00201F7E72DE9F0412C
:1029600017460E4605460220FFF7BCFF0124AC4087
:10297000204300F03F01022000F018F80A4807F059
:102980003F01405D00F012F80120FFF7ABFF012E80
:1029900006D020EA0401BDE8F041012000F006B8AD
:1029A0000443E1B2F7E70000042B00082DE9F041F1
:1029B000134E4FF4806500220F46044629463046E8
:1029C000FDF7B3FD202C06D204F01F0040F02000DC
:1029D000FFF736FF0AE02046FFF732FFE12C08D070
:1029E000E22C06D0E32C04D0FF2C02D03846FFF7AF
:1029F00027FF29463046BDE8F0410122FDF795BD8D
:102A000000180240F0B5437887B09FED350B9FED7D
:102A1000361B1C0603F07F0302EE103AB8EE423B71
:102A200002D583EE002B01E083EE012B8DED002B10
:102A300083781C0603F07F0302EE103AB8EE423BA7
:102A400002D583EE002B01E083EE012B8DED022BEE
:102A5000C078030600F07F0006D501EE100AB8EE3C
:102A6000411B81EE002B05E000EE100AB8EE400B92
:102A700080EE012B204D5FF000009FED1D3B6C466A
:102A80008DED042B00EB40060023B0EE430B05EB6D
:102A9000C60600BF06EBC30C04EBC3079CED001B8E
:102AA00097ED002B5B1CDBB201EE020B032BF1D385
:102AB000B5EEC00BF1EE10FA01D8012300E00023BF
:102AC0009FED0E1B01EBC006135480EE012B401C42
:102AD000C0B2042886ED002BD4D307B0F0BD0000AF
:102AE000000000000000594000000000000059C034
:102AF0000000000000000000100100201A271792BB
:102B0000BF15903F1112131415160A0B0C0D0E0F62
:102B10001000000000000000000102030406070886
:102B200009000000000000004C5555555555A53FC3
:102B30007751C1166CC156BF9015CB19A001FA3E52
:102B4000AD529C804F7E92BEC4B1B4BD9EEE213E7C
:102B5000D43888BEE9FAA8BD00004054FB21F93FF3
:102B60003163621A61B4D03D0000601A61B4D03D97
:102B70007370032E8A19A33B0000002E8A19A33B11
:102B8000C14920259A837B39000000000000000025
:102B90006E83F9A22915444ED15727FCC0DD34F5C8
:102BA000999562DB4190433CAB6351FE61C5BBDE4E
:102BB0003A6E24B7E0D24D42EA2E49061C92D10962
:102BC0001CEB1DFE3EA729B1F53582E88444BB2EDF
:102BD00026709CE9417E5FB439D69139F43953832C
:102BE0008B5F849C3B28F9BDFF97F81F0F9805DE8B
:102BF0008B112FEF1F6D0A5ACF7E366DB709CB2789
:102C0000663F464F2DEA5F9EC7BA27757BF1E5EB1D
:102C1000F739073DEA92528AB15FFB6B085D8D1F61
:102C2000A6F810111111813FD561C119A0012ABF69
:102C30007DFEB157E31DC73EEB9C2B8AE6E55ABEED
:102C40007CD5CF5A3AD9E53D682C00080000002019
:102C50001C000000F8240008842C00081C00002040
:102C60002407000008250008000000000000000004
:102C70000024F4000100000010000000000000002B
:042C80000000000050
:04000005080001F9F5
:00000001FF
