:020000040800F2
:10000000E80400200D0200086F17000823160008FE
:100010006D1700081D030008DD190008000000002E
:10002000000000000000000000000000E5180008CB
:100030001F0300080000000071170008E7180008FF
:1000400027020008270200082702000827020008EC
:1000500027020008270200082702000827020008DC
:1000600027020008270200082702000827020008CC
:1000700027020008270200082702000827020008BC
:1000800027020008270200082702000827020008AC
:10009000270200082702000827020008270200089C
:1000A000270200082702000827020008270200088C
:1000B000270200082702000827020008270200087C
:1000C000270200082702000827020008270200086C
:1000D000270200082702000827020008270200085C
:1000E000270200082702000827020008270200084C
:1000F000270200082702000827020008270200083C
:10010000270200082702000827020008270200082B
:10011000270200082702000827020008270200081B
:10012000270200082702000827020008270200080B
:1001300027020008270200082702000827020008FB
:1001400027020008270200082702000827020008EB
:1001500027020008270200082702000827020008DB
:1001600027020008270200082702000827020008CB
:1001700027020008270200082702000800000000EC
:1001800027020008270200082702000827020008AB
:10019000270200082702000827020008270200089B
:1001A000270200082702000827020008270200088B
:1001B000270200082702000827020008270200087B
:1001C000270200082702000800000000270200089C
:1001D000270200082702000827020008270200085B
:1001E000270200082702000827020008270200084B
:1001F0002702000827020008DFF80CD000F07AF888
:1002000000480047211A0008E804002006488047FB
:1002100006480047FEE7FEE7FEE7FEE7FEE7FEE7EB
:10022000FEE7FEE7FEE7FEE789190008F90100088E
:100230002DE9F05F0546002092469B46884606461B
:10024000814640241BE0284641464746224600F0AE
:1002500041F853465A46C01A914110D311461846E8
:10026000224600F028F82D1A67EB01084F46224677
:100270000120002100F01FF817EB00094E41201E5D
:10028000A4F10104DFDC484631462A464346BDE876
:10029000F09FD2B201E000F8012B491EFBD270475B
:1002A0000022F6E710B513460A4604461946FFF742
:1002B000F0FF204610BD202A04DB203A00FA02F1AC
:1002C000002070479140C2F1200320FA03F3194344
:1002D00090407047202A04DB203A21FA02F00021E6
:1002E000704721FA02F3D040C2F120029140084346
:1002F00019467047064C074D06E0E06840F00103E0
:1003000094E8070098471034AC42F6D3FFF778FF23
:10031000C41D0008E41D000800F000B9FEE77047A6
:1003200070B5044600F006F90546601C02D004488A
:100330000078044400F0FEF8401BA042FAD370BDE0
:10034000080000202DE9F84FDFF89CE100224FF073
:1003500001084FF0030B4FF00F0A00BF0B6808FABB
:1003600002F42340A34271D14D68022D01D0122D19
:100370000FD1D5080E69570700EB8505A9462D6AF0
:10038000FF0E0AFA07FCBE4025EA0C052E43C9F809
:1003900020600F79550006680BFA05FC07F003078B
:1003A00026EA0C06AF40374307604E68012E05D0A1
:1003B000022E03D0112E01D0122E0ED18668CF68E6
:1003C00026EA0C06AF403743876046680F79A6439C
:1003D000C7F30017974037434760C4688E6824EA24
:1003E0000C04AE402643C6604C68E40075D53F4C13
:1003F000256845F480452560246822F003069507AA
:1004000004F4804400943A4C2D0F2644D6F8084852
:10041000DFF8E0C00AFA05F7604524EA070401D1D5
:1004200000272EE0344FB84201D1012729E0334F95
:10043000B84201D1022724E0314FB84201D103274D
:100440001FE0304FB84202D104271AE045E02E4F9A
:10045000B84201D1052714E02C4FB84201D106273C
:100460000FE02B4FB84201D107270AE0294FB842CD
:1004700001D1082705E0284FB84201D1092700E043
:100480000A27AF4027437546C6F808784E68DEF85D
:100490000040F60324EA030400D51C43124E2C60EE
:1004A000361D4D683468AD0324EA030400D51C43AF
:1004B0000D4F346008374D683C68ED0224EA0304B0
:1004C00000D51C43084D3C600C354E682C68B602C4
:1004D00024EA030400D51C432C60521C102AFFF4AC
:1004E0003DAFBDE8F88F0000003C014044380240B9
:1004F00000300140000002400004024000080240B9
:10050000000C02400010024000140240001802409B
:10051000001C02400020024000240240426931EAEF
:10052000020200D10904816170470AB181617047FC
:100530000904FBE7014880687047000008000020BC
:1005400030B590F84120202A24D190F84020012A8B
:1005500020D0012380F84030242280F8412020233D
:1005600000240268156825F0010515600268156809
:1005700025F480551560026815680D431560016803
:100580000A6842F001020A6080F8413080F8404079
:10059000002030BD022030BD30B590F84120202A27
:1005A00022D190F84020012A1ED0012380F840304B
:1005B000242280F84120202400250268136823F0BB
:1005C000010313600268136823F4706343EA012196
:1005D000116001680A6842F001020A6080F8414037
:1005E00080F84050002030BD022030BD70B50400BE
:1005F00004D094F84100002510B106E0012070BD40
:10060000204684F8405000F04DF8242084F8410042
:100610002068016821F001010160D4E9001020F098
:10062000706008612068816821F400418160E068A1
:1006300021680128A06806D040F404408860E06882
:10064000022803D006E040F40040F7E721684FF4A9
:100650000060486020212068114A436813434360CA
:100660002068C26822F40042C26054F8106B0DCCBE
:10067000104340EA0320F06054F81C3CD4E9000227
:100680001043186054F81C0D026842F00102026029
:10069000656484F84110256384F84250002070BDE1
:1006A0000080000210B586B0044614216846FFF7AA
:1006B000F7FD1249206888421DD11148016841F0B8
:1006C0000201016000681221012200F00200059081
:1006D000C020032304248DE81F000A486946FFF761
:1006E00031FE07481030016841F4001101600068D4
:1006F00000F40010059006B010BD0000005400404A
:1007000030380240000402400248816802781144F7
:100710008160704708000020032010B500F060F8E9
:10072000002000F005F800F023F8002010BD0000C4
:1007300070B50D4D04464FF47A700C4A2978126852
:10074000B0FBF1F0B2FBF0F000F058FF48B9102C0C
:1007500007D200222146501E00F022F800206C60D3
:1007600070BD012070BD00000800002004000020C2
:100770000A4808B5016841F080510160006800F046
:10078000805000900548001D016841F480410160DF
:10079000006800F48040009008BD0000403802402E
:1007A0000E4BF0B41B680D46C3F30223C3F10706DA
:1007B000042E00D90426191D072901D2002300E0C8
:1007C000DB1E012404FA06F19C40491E2940641EE8
:1007D000994014402143F0BC01F001B90CED00E058
:1007E000064900F0070210B54FF6FF040868044BF5
:1007F000204040EA02201843086010BD0CED00E0E4
:100800000000FA051848F8B5016841F08051016010
:100810000068164C00F080500090206840F4803052
:100820002060FFF787FE4FF47A76054605E000BFAB
:10083000FFF780FE401BB0420FD86068C003F7D5B9
:10084000206840F400302060FFF774FE054606E0A3
:10085000FFF770FE401BB04201D90320F8BD60686D
:100860008003F5D50020F8BD4038024000700040FC
:100870002DE9F84F04460078DFF824944FF0000685
:100880003746C0070ED0D9F8001021F40001C9F88E
:100890000010D9F80010626B1143C9F80010606BAA
:1008A00000B90126FE4D2068843500030ED5E16BAA
:1008B000286820F4401008432860E06BB0F5801FE2
:1008C00001D010B102E0012600E0012720684FF4BA
:1008D000800BC0020CD5216C286820F4400008432E
:1008E0002860206C584501D1012601E000B901279C
:1008F0002068C10100D50126800666D5E848383059
:10090000016841F0805101600068DFF898A300F0B1
:1009100080500090DAF8001041F48071CAF800109D
:10092000FFF708FE804605E0FFF704FEA0EB080095
:1009300064287DD8DAF80000C005F5D5DFF86083BB
:1009400008F16808D8F8000010F440702AD0218E11
:1009500001F44071814225D0D8F80010D8F8002069
:1009600021F4407142F48032C8F80020D8F8002009
:1009700022F48032C8F80020C8F80010D8F800002F
:10098000C0070FD0FFF7D6FD824607E0FFF7D2FD84
:10099000A0EB0A0141F288308142CAD8D8F80000A1
:1009A0008007F3D5206BC0F3012103297ED0D9F84D
:1009B000001021F4F811C9F80010228ED8F80010A8
:1009C000C2F30B021143C8F800102078C00607D507
:1009D000286820F0807028602868A16B0843286090
:1009E0002188AF488830490405D5626E016821F43A
:1009F0004031114301602188090405D5A26E0168C8
:100A000021F44021114301602168C90305D5E26E3C
:100A1000016821F44011114301602168890305D563
:100A2000226F016821F4400111430160217800E048
:100A300034E1490605D5626C016821F003011143D8
:100A400001602178090605D5A26C016821F00C012E
:100A5000114301602188C90505D5E26C016821F0C8
:100A60003001114301602188890505D5226D016897
:100A700021F0C001114301602188490505D5626D4F
:100A8000016821F44071114301602188090505D5F1
:100A9000A26D016821F44061114301602188C904FD
:100AA00007D5E26D016821F4405100E05FE0114399
:100AB00001602188890405D5226E016821F4404136
:100AC000114301602168490205D5A26F016821F038
:100AD00080611143016021684FF0006A890209D5E5
:100AE000E26F016821F0006111430160E16F51453F
:100AF00000D1012721680A0700D50127490305D540
:100B0000626F016821F040711143016021680902A0
:100B100006D5D4F88020016821F08051114301608E
:100B20002168490106D5D4F88420016821F00051DC
:100B3000114301602068000106D5D4F888102868A8
:100B400020F00070084328602068C00006D5D4F863
:100B50008C10286820F0806008432860DFF84891F6
:100B6000012E0ED02068B0F1007F0AD08FE04F4AEE
:100B7000D9F80030104023F4F8120243C9F80020DD
:100B80001BE7D9F800004E4620F08060C9F800004D
:100B9000FFF7D0FC804605E0FFF7CCFCA0EB080097
:100BA00064287BD830680001F6D421783C487C303A
:100BB000C90712D0616B81B9237A62680168D0F8E5
:100BC00000C09201C1F3014142EA0142CCF303614A
:100BD00042EA016141EA0371016021680A0303D519
:100BE000E26BB2F5801F04D0C9021AD5216C5945B9
:100BF00017D16368016894F80CC002689B01C1F3C7
:100C0000014143EA0141C2F3027241EA0C6141EA47
:100C1000027101602968626A21F01F01521E1143AE
:100C200029602168C90110D5238A62680168D0F85B
:100C300000C09201C1F3036142EA034242EA016249
:100C4000CCF3027142EA01710160216889010CD57F
:100C50006168228A237B94F808C0890141EA024135
:100C600041EA036141EA0C7101603168B04641F02C
:100C700080613160FFF75EFC064604E0FFF75AFC36
:100C8000801B64280AD8D8F800000001F6D5E7B325
:100C9000D9F800004E4620F0805009E07BE00000CB
:100CA000083802400070004000380240FFFCFF0F8F
:100CB000C9F80000FFF73EFC074604E0FFF73AFCE6
:100CC000C01B642867D83068C0438000F6D521680F
:100CD00035480A0301D5E26B1AB1C9021DD5216C52
:100CE000D9B963690168277E02689B01C1F301419C
:100CF00043EA0143C2F3027143EA076242EA017127
:100D0000016029686FF0FF0300E04BE0A26A21F464
:100D1000F85103EB0222114329602168890212D5A0
:100D2000E16F51450FD1238C626901680768920118
:100D3000C1F3036142EA034242EA0162C7F302716E
:100D400042EA017101602178090716D561690268DC
:100D5000D0F800C08B01277FC2F30362CCF30141BE
:100D600043EA014141EA026141EA077101602868F2
:100D7000E16A20F4403008432860306840F0805039
:100D80003060FFF7D7FB044608E000BFFFF7D2FB57
:100D9000001B642802D90320BDE8F88F3068C043E7
:100DA0008000F3D40020F7E7883802402DE9F047AF
:100DB00005000F4663D0444E306800F00F00B84283
:100DC00009D2306820F00F0038433060306800F0FE
:100DD0000F00B84253D128683C4C810712D5400718
:100DE00003D5206840F4E05020602878000703D540
:100DF000206840F460402060A968206820F0F0007E
:100E0000084320602878C0072AD03049686808392C
:100E1000012810D00968022810D0890700292EDA8D
:100E2000216821F0030101432160FFF783FB804625
:100E300041F288390DE009688903EFE78901EDE7A0
:100E4000FFF778FBA0EB0801494502D90320BDE874
:100E5000F0876868216801F00C01B1EB800FEFD1D9
:100E6000306800F00F00B8420BD9306820F00F0056
:100E700038433060306800F00F00B84201D00120E4
:100E8000E5E72878400705D5E968206820F4E050B8
:100E9000084320602878000706D52869216821F4D6
:100EA000604141EAC000206000F016F82168084A5D
:100EB000C1F30311515CC840064908600020FFF7E8
:100EC00037FC0020C3E70000003C02400838024025
:100ED000B11D000804000020154910B51548096827
:100EE00011F00C0213D04110042A0FD0082A0ED1A1
:100EF0000F4C241F2268236802F03F025B0207D5D3
:100F00002068C0F38810A0FB010106E0084610BD70
:100F10002168C1F38811A1FB00010023FFF788F9C4
:100F20002168C1F30141491C4900B0FBF1F010BD3B
:100F3000083802400024F4002DE9F84F05004FF076
:100F400000076ED02878DFF82093A9F1040AC007C3
:100F5000AAF104044CD0D9F800104846C1F381012D
:100F6000012908D00068C0F3810002280AD1DAF80C
:100F70000000400206D52068800339D56868002843
:100F8000DFD035E06868B0F5803F0BD010B1B0F528
:100F9000A02F11D0206820F480302060206820F439
:100FA000802002E0206840F480302060686890B1C2
:100FB000FFF7C0FA06460AE0206840F4802020606F
:100FC000F0E700BFFFF7B6FA801B642872D82068EC
:100FD0008003F7D50CE0FFF7ADFA064605E000BF49
:100FE000FFF7A8FA801B6428F0D820688003F7D4A4
:100FF0002878800742D5D9F80010484611F00C0F28
:1010000008D00068C0F3810002280BD1DAF8000094
:10101000400207D42068800718D5E868012800D16D
:1010200014E01EE1E8680028206817D040F00100B5
:101030002060FFF77FFA064605E000BFFFF77AFA67
:10104000801B0228C2D820688007F7D5286921684C
:1010500021F0F80141EAC00020600FE020F001001B
:101060002060FFF767FA064605E000BFFFF762FA67
:10107000801B02281ED820688007F7D42878000734
:1010800029D5794869696C3000298046016812D0F9
:1010900041F001010160FFF74DFA064605E000BF8F
:1010A000FFF748FA801B022804D8D8F80000800710
:1010B000F6D510E089E021F001010160FFF73AFA6E
:1010C000064604E0FFF736FA801B02287DD8D8F8E0
:1010D00000008007F6D4287840076BD5DFF88881B8
:1010E00008F13808D8F80000C0000BD4D8F8001078
:1010F00041F08051C8F80010D8F80000012700F036
:101100008050009059480168C90512D4016883468F
:1011100041F480710160FFF70DFA064605E000BF5B
:10112000FFF708FA801B64284FD8DBF80000C005E1
:10113000F6D54D4EA868683601280AD008B10528B2
:1011400011D0306820F001003060306820F00400D9
:1011500002E0306840F001003060A868A0B1FFF7FD
:10116000E9F983460CE0306840F004003060F0E7B5
:10117000FFF7E0F9A0EB0B0141F28830814268D81B
:1011800030688007F4D50EE0FFF7D4F9834607E016
:10119000FFF7D0F9A0EB0B0141F28830814258D81B
:1011A00030688007F4D42FB1D8F8001021F08051B6
:1011B000C8F80010A869E0B3D9F80010C1F38101A4
:1011C00002294ED00228206800E042E020F0807022
:1011D000206003D0FFF7AEF905463DE0FFF7AAF91E
:1011E000064604E0FFF7A6F9801B022831D82068E4
:1011F0008001F7D4D5E90921DFF874C0D5E90706E5
:1012000095F830304F0895F82C1030430CEB07451B
:1012100045EA8212104340EA016040EA0370CAF8CE
:101220000000206840F080702060FFF783F90546D9
:1012300005E014E0FFF77EF9401B022809D820687A
:101240008001F7D50BE000BFFFF774F9401B0228BF
:1012500002D90320BDE8F88F20688001F4D4002073
:10126000F8E70120F6E7000008380240007000406F
:101270000000FFFF2DE9F047040005D094F85D0061
:101280000025A56218B107E00120BDE8F0872046DF
:1012900084F85C5000F050F8022284F85D204FF48E
:1012A000E0632068016821F040010160E068984235
:1012B00001D9002101E04FF48051B0F5706F02D0E8
:1012C000984200D0A5624FF00109266B2EB99842D2
:1012D00001D9226301E0C4F83090D4E90468D4E96C
:1012E0000102278B46EA0806A36A104307F4007838
:1012F00030432668D4E907C240EA080040EA0C00FF
:10130000CC460427104318433060D4F81880666B2D
:10131000606AE26807EA1847236830433A4310439B
:10132000084358602068C16921F40061C1612566E5
:1013300084F85DC00020A8E710B586B004461421EB
:101340006846FEF7ADFF1249206888421DD111485A
:10135000016841F480510160006800F480500590FC
:101360000C481438016841F0010101600068022155
:10137000002200F001000590E020032305248DE801
:101380001F0005486946FEF7DDFF06B010BD0000EE
:101390000030014044380240000002402DE9F05F77
:1013A0008B4690F85C1000271D460A9E0129924644
:1013B00004464FF001090ED0012084F85C00FFF7CD
:1013C000B9F8804694F85D00616801280CD0B1F549
:1013D000827F07D102E00220BDE8F09FA16809B931
:1013E000042801D00227FFE0BBF1000F24D0BAF19E
:1013F000000F21D005B394F85D00042802D0052029
:1014000084F85D00A4F844500020A5874FF4E06202
:10141000C4F838B0C4F840A0E16820669142E064A6
:101420002065A4F84650E58701D8012D06D920682B
:10143000416821F4805105E00127D5E0206841682A
:1014400041F48051416020680168490603D4016875
:1014500041F040010160E0689042606845D908B100
:10146000012D3AD1A06B21680088C860A06B801C58
:10147000A063E08F401EE0872FE020688168890725
:101480000FD5E18F69B1B9F1010F0AD1A26B4FF00D
:1014900000091188C160A06B801CA063E08F401E12
:1014A000E08720688168C9070FD0B4F8461061B1A1
:1014B000C0684FF00109226C1080206C801C2064F1
:1014C000B4F84600401EA4F84600FFF733F8A0EB3E
:1014D0000800B04201D3701C74D1E08F0028CCD139
:1014E000B4F846000028C8D175E008B1012D6BD1D1
:1014F000E08F21680128A06B07D90088C860A06B25
:10150000801CA063E08F801E06E000780873A06B4B
:10151000401CA063E08F401EE08755E02068816892
:1015200089071AD5E18FC1B1B9F1010F15D1E18F4A
:101530000129A16B07D90988C160A06B801CA06339
:10154000E08F801E06E009780173A06B401CA06349
:10155000E08F401EE0874FF0000920688168C907CE
:1015600028D0B4F8461029B3B4F84610012914D98C
:10157000C068216C0880206C801C2064B4F8460090
:10158000801EA4F84600B4F84600012810D8206850
:10159000416841F4805141600AE0007B216C087091
:1015A000206C401C2064B4F84600401EA4F846009D
:1015B0004FF00109FEF7BEFFA0EB0800B04202D3D6
:1015C000701C01D018E0BEB1E08F0028A6D1B4F89D
:1015D00046000028A2D142463146204600F0C9F814
:1015E00010B1202020660127012084F85D00002131
:1015F000384684F85C10EFE60327F5E7401EB0F1AB
:10160000807F10B501D3012010BD4FF0E024606150
:101610000F21601700F0E3F90020A061072121618C
:1016200010BDFEE72DE9F04387B014216846FEF7B0
:1016300037FE2848016841F480710160016801F4B7
:1016400080710591016841F080010160016801F03D
:1016500080010591016841F001010160016801F01C
:1016600001010591016841F040010160016801F04C
:1016700040010591016841F00201016000684FF4EA
:10168000E046DFF85480002200F002003146059069
:101690004046FEF74AFFDFF844904FF4C06700224F
:1016A00039464846FEF741FF002400960125694669
:1016B0004046CDE901540394FEF744FE0097694685
:1016C000CDE9015448460394FEF73CFE07B0BDE85F
:1016D000F083000030380240002002400018024031
:1016E0000E48002110B50C4C01230D4A0460C0E9DE
:1016F0000121C0E9033141618161C1610162FEF7ED
:1017000075FF06480021FEF71BFFBDE810400348A7
:101710000021FEF741BF00000054004014000020EB
:101720000D03006070B510484FF4407500210D4C5A
:101730004FF482761823C0E9021501616215E0E8D2
:1017400005460725082680E80E00C1600161C0E952
:101750000515C0E907160448FFF78CFDA01460606A
:1017600070BD00000030014060000020FEE77047BF
:101770007047F8B515460E4604460B464FF4C05167
:101780000092002200F019F888B900223346802127
:101790002046009500F05CF848B9002233464FF42B
:1017A000C0612046009500F008F8002804D0206EA3
:1017B00040F0200020660320F8BD2DE9F0474FF4EB
:1017C000C0681D4617460E46DDF8209004460CE022
:1017D000464501D107B9007B681C06D0FEF7AAFE7A
:1017E000A0EB0900A84208D23DB1206881683140D1
:1017F000B942EDD10020BDE8F0872068416821F0B2
:10180000E00141606068B0F5827F0BD1A068B0F55F
:10181000004F02D0B0F5806F04D12068016821F03C
:1018200040010160A06AB0F5005F09D1206801683D
:1018300021F4005101602068016841F40051016009
:10184000012184F85D10002084F85C000320D2E7B9
:101850002DE9F0411D4617460E460446DDF8188076
:1018600008E0681C06D0FEF765FEA0EB0800A84261
:101870000BD255B12068806836EA000030D00020D5
:10188000B842EED10020BDE8F0812068416821F027
:10189000E00141606068B0F5827F0BD1A068B0F5CF
:1018A000004F02D0B0F5806F04D12068016821F0AC
:1018B00040010160A06AB0F5005F09D120680168AD
:1018C00021F4005101602068016841F40051016079
:1018D000012184F85D10002084F85C000320D2E729
:1018E0000120CDE77047FEF70FBF000030B5B7B05D
:1018F000342124A8FEF7D4FC142131A8FEF7D0FC33
:1019000090216846FEF7CCFC1D48016841F08051EB
:101910000160006800F0805036901A48016841F478
:101920004041016000680123022400F440403690E9
:1019300098050421D822CDE92A402CA81D0480E86E
:1019400016002F9424A8CDE92435FFF7F5FAFEF709
:1019500059FFE1024FF4A05031ABCDE934010F2221
:10196000002583E83400072131A8FFF71FFA600340
:10197000199500906846FEF77BFF37B030BD000038
:101980004038024000700040104A30B510481468DA
:1019900000210F4B44F470041460083305680D4AAD
:1019A0000D4C45F00105056019600368051D1340E5
:1019B000074A03600C322C600568E305034C25F4EC
:1019C00080250560803C1160236030BD88ED00E01B
:1019D00000380240FFFFF6FE10300024FEE7090742
:1019E00000284FEA116104DB00F1E02080F80014C8
:1019F000704700F00F0000F1E02080F8141D7047E0
:101A000002E008C8121F08C1002AFAD170477047C7
:101A1000002001E001C1121F002AFBD17047000025
:101A2000FEF77AFEFFF762FFFFF7FCFDFFF77AFE95
:101A3000FFF756FE00F070F800F082F8002118223F
:101A4000084600F05BF9062000F04BF8022000F099
:101A500044F9012000F032F9012218485102FEF742
:101A600064FD17481821FEF71BFC4FF40056154D76
:101A7000002477004FF4805828464146FEF74CFC7E
:101A800031462846FEF748FC39462846FEF744FC16
:101A90000A20FEF745FC641CE4B20A2CECD30A4C85
:101AA00000F04AF8607000F047F84006F8D50649A3
:101AB000034800F0C9F800F026F8F1E700180240EA
:101AC000C40000200020024000000020072010B5C4
:101AD00000F0D8F840F07001BDE81040072000F099
:101AE00035B910B50528044601D9002106E00120CA
:101AF00000F0C8F80121A14020EA0101BDE8104032
:101B0000012000F023B9FF21E22000F01FB9FF21DE
:101B1000E12000F01BB9000010B5064C0122910233
:101B20002046FEF702FD002220466115BDE8104068
:101B3000FEF7FBBC00180240072000F0A3B800002D
:101B40000821002010B500F001F93F21012000F02C
:101B5000FDF80321022000F0F9F80321084600F007
:101B6000F5F80321042000F0F1F80221052000F02F
:101B7000EDF80E21062000F0E9F80021072000F022
:101B8000E5F80021112000F0E1F80021122000F01A
:101B9000DDF80021132000F0D9F80021142000F016
:101BA000D5F80021152000F0D1F80021162000F012
:101BB000CDF800211C2000F0C9F800211D2000F004
:101BC000C5F8FFF7A0FFFFF7A2FFFFF77FFF012295
:101BD0000248BDE810409102FEF7A7BC0018024081
:101BE00001B582B04FF47A700123009001AA034836
:101BF00002A9FFF7D3FB9DF804000EBD6000002092
:101C00002DE9F041DFF83C804FF4806615460C4624
:101C10000022074631464046FEF787FC3846FFF76C
:101C2000DFFF04E0FF20FFF7DBFF04F8010B681E75
:101C3000C5B2F7D231464046BDE8F0410122FEF779
:101C400074BC00000018024070B50D46064607201F
:101C500000F018F8C0F34204062C0CD20848005DCE
:101C600000F010F8021E287003D061203146FFF703
:101C7000C7FF204670BD00202870FF2070BD000007
:101C8000A41D000870B50C4E4FF480650022044678
:101C900029463046FEF749FC04F01F00FFF7A0FF7D
:101CA000FF20FFF79DFF0122044629463046FEF73C
:101CB0003CFC204670BD00000018024010B50446F0
:101CC0000020FFF7DFFF04F0010120F001000143D5
:101CD000BDE81040002000F039B810B504460020DF
:101CE000FFF7D0FF022C06D020F00201BDE8104023
:101CF000002000F02BB840F00201F7E72DE9F04199
:101D000017460E4605460220FFF7BCFF0124AC40F3
:101D1000204300F03F01022000F018F80A4807F0C5
:101D20003F01405D00F012F80120FFF7ABFF012EEC
:101D300006D020EA0401BDE8F041012000F006B819
:101D40000443E1B2F7E70000A41D00082DE9F041CB
:101D5000134E4FF4806500220F4604462946304654
:101D6000FEF7E3FB202C06D204F01F0040F0200019
:101D7000FFF736FF0AE02046FFF732FFE12C08D0DC
:101D8000E22C06D0E32C04D0FF2C02D03846FFF71B
:101D900027FF29463046BDE8F0410122FEF7C5BBCA
:101DA000001802401112131415160A0B0C0D0E0F19
:101DB00010000000000000000001020304060708F4
:101DC00009000000E41D00080000002014000000CD
:101DD000001A0008F81D000814000020D4040000B8
:101DE000101A0008000000000024F40001000000A8
:081DF0001000000000000000DB
:04000005080001F9F5
:00000001FF
