:020000040800F2
:10000000380400200D0200081F0600087D020008C9
:100010001D060008790200086D07000800000000B6
:100020000000000000000000000000004906000879
:100030007B02000800000000210600084B060008B3
:1000400027020008270200082702000827020008EC
:1000500027020008270200082702000827020008DC
:1000600027020008270200082702000827020008CC
:1000700027020008270200082702000827020008BC
:1000800027020008270200082702000827020008AC
:10009000270200082702000827020008270200089C
:1000A000270200082702000827020008270200088C
:1000B000270200082702000827020008270200087C
:1000C000270200082702000827020008270200086C
:1000D000270200082702000827020008270200085C
:1000E000270200082702000827020008270200084C
:1000F000270200082702000827020008270200083C
:10010000270200082702000827020008270200082B
:10011000270200082702000827020008270200081B
:10012000270200082702000827020008270200080B
:1001300027020008270200082702000827020008FB
:1001400027020008270200082702000827020008EB
:1001500027020008270200082702000827020008DB
:1001600027020008270200082702000827020008CB
:1001700027020008270200082702000800000000EC
:1001800027020008270200082702000827020008AB
:10019000270200082702000827020008270200089B
:1001A000270200082702000827020008270200088B
:1001B000270200082702000827020008270200087B
:1001C000270200082702000800000000270200089C
:1001D000270200082702000827020008270200085B
:1001E000270200082702000827020008270200084B
:1001F0002702000827020008DFF80CD000F02AF8D8
:10020000004800478D070008380400200648804752
:1002100006480047FEE7FEE7FEE7FEE7FEE7FEE7EB
:10022000FEE7FEE7FEE7FEE719070008F901000810
:10023000D2B201E000F8012B491EFBD27047002228
:10024000F6E710B513460A4604461946FFF7F0FFD5
:10025000204610BD064C074D06E0E06840F0010363
:1002600094E8070098471034AC42F6D3FFF7C8FF74
:10027000B80C0008D80C0008FEE77047FEE7000045
:10028000044908B50A6802430A6009680140009100
:1002900008BD000030380240044908B50A6802432E
:1002A0000A6009680140009108BD0000443802401E
:1002B000F0B50A6803240F2592FAA2F2B2FA82F38B
:1002C0007EE001269E40324079D092FAA2FC076877
:1002D00092FAA2F6BCFA8CFCB6FA86FE4E684FEA99
:1002E0004C0C4FEA4E0E04FA0CFC06FA0EF627EA06
:1002F0000C07374307604E68012E01D0022E15D13E
:1003000092FAA2FC876892FAA2F6BCFA8CFCB6FAC2
:1003100086FE8E684FEA4C0C4FEA4E0E04FA0CFC37
:1003200006FA0EF627EA0C073743876092FAA2F620
:10033000C76892FAA2FCB6FA86F6BCFA8CFE4FEABF
:10034000460C0E694FEA4E0E04FA0CFC06FA0EF645
:1003500027EA0C073743C7604E68022E2FD192FA66
:10036000A2F6B6FA86F6082E14D292FAA2F7066A18
:1003700092FAA2F2B7FA87F7B2FA82FC4A69BF0092
:100380004FEA8C0C05FA07F7BE4302FA0CF216434B
:10039000066214E0466A120A92FAA2F792FAA2FCE6
:1003A0004A69B7FA87F7BCFA8CFCBF004FEA8C0C9D
:1003B00005FA07F7BE4302FA0CF2164346625B1CCD
:1003C0000A6832FA03F67FF47CAF4A68012A01D04A
:1003D000022A06D143680A68C968934351430B4314
:1003E00043600020F0BD4FF47A724FF0E021B0FB83
:1003F000F2F000230522401E48618B610A617047BC
:1004000070B503680122C3F3801333BBD1E9002424
:10041000D1E9033622433343D1E905541A43036833
:100420002A43D1E9076522434FF6BF743243A34301
:100430002A431A430260426840F604734C698D688F
:100440009A4342EA14422A4342600A6AB2F5005FC4
:1004500002D1898C89B201610022C16921F4006155
:10046000C161104670BD000001490860704700007E
:10047000100000204FF0E02108B5421C0A690092EC
:1004800000D0401C0A69D20300D5401E0028F9D1D3
:1004900008BD00002DE9F04F87B018216846FFF72E
:1004A000CEFE4FF48070FFF7EBFE8020FFF7E8FEF2
:1004B0000120FFF7E5FE4020FFF7E2FE254EF103A5
:1004C000B16108144FF400584104B1618104B16175
:1004D0004FF48049204F41034FF4007AB961810302
:1004E0004FF4806BB96100240090012569463046C5
:1004F000CDE9015403940494FFF7DAFECDF80080AF
:100500006946CDE90154304603940494FFF7D0FEC8
:10051000CDF800906946CDE9015430460394049427
:10052000FFF7C6FECDF800A06946CDE90154384674
:1005300003940494FFF7BCFECDF800B06946CDE902
:100540000154384603940494FFF7B2FE07B0BDE8A7
:10055000F08F000000200240001802402DE9F04317
:1005600091B0282106A8FFF76AFE18216846FFF718
:1005700066FE4FF480584046FFF78EFE0120FFF7DD
:100580007FFE0225DFF88C90002469460527202095
:10059000CDE9000503264846CDE90264CDE90447CC
:1005A000FFF786FE40206946CDE90005CDE90264EB
:1005B000CDE904474846FFF77BFE80206946CDE938
:1005C0000005CDE90264CDE904474846FFF770FE17
:1005D0004FF482702A0231020725CDE90640CDE9A9
:1005E00008141823CDE90A42CDE90C34CDE90E45B3
:1005F000094C06A92046FFF703FF606820F01000B1
:100600006060606840F008006060C4F8048011B069
:10061000BDE8F0830000024000300140FEE7704773
:1006200070470268C2F3801262B18268C2F340026E
:10063000002AFAD00173816811F0010FFBD0C06865
:10064000C0B2704700207047704770472C4810B503
:10065000016821F00F0141F007010160006829499C
:10066000086840F4404008600A68274842F4803235
:100670000A60016841F4803101600168C1F34041C2
:100680000029FAD0204A2149121D214C1368234029
:1006900019431160016841F0807101600168C1F384
:1006A00040610029FAD018480830016821F0F001B3
:1006B0000160016821F4E05141F4A051016001683A
:1006C00021F4604141F400410160016821F003011F
:1006D00041F002010160016801F00C010829FAD122
:1006E0000C4C2046FFF77FFE4FF0E021086940F0F8
:1006F000040008612046BDE81040FFF7B5BE0000C9
:10070000003C0240007000400038024004364000C7
:100710000080BCFF00E6DF0C104A30B510481468BA
:1007200000210F4B44F470041460083305680D4A2F
:100730000D4C45F00105056019600368051D134067
:10074000074A03600C322C600568E305034C25F46E
:1007500080250560803C1160236030BD88ED00E09D
:1007600000380240FFFFF6FE10300024FEE702E0F2
:1007700008C8121F08C1002AFAD17047704700202C
:1007800001E001C1121F002AFBD17047554808B58E
:10079000016841F080510160006800F080500090D5
:1007A0004FF48040FFF778FD4F484FF6FF01006897
:1007B0004E4A08404C4940F4407010430860FFF72F
:1007C00045FFFFF767FEFFF7C9FE00F0E1F8484874
:1007D000016841F04001016000F0EEF800211822AC
:1007E000084600F0F7F9062000F0B7F8022000F004
:1007F000E0F9012000F0CEF900F084F83D49E7224D
:10080000486005213B480830FFF712FD39490020B8
:10081000083100F06FF9384C6015A0611821374895
:10082000FFF70DFD364FA014B8614FF0C04BC7F86D
:1008300018B00A20FFF71EFE4FF40059C7F81890B1
:100840004FF0A048C7F818800A20FFF713FE4FF4B6
:100850008040B8610A20FFF70DFE4FF0E04AC7F86C
:1008600018A04FF0007600BF00F09FF80028FBD1E1
:100870002049224800F00EF900F081F84FF400758D
:10088000A6616420FFF7F6FD002000F083F91B4805
:10089000182100F0DDF9A56100F084F88006FBD591
:1008A00000F050F800F06FF8A661012000F072F936
:1008B000A5614FF48050B861C7F818B00A20FFF75F
:1008C000D9FDC7F81890C7F818800A20FFF7D2FDA5
:1008D0004FF48040B8610A20FFF7CCFDC7F818A09C
:1008E000C2E70000403802400CED00E00000FA05CD
:1008F00000300140000000200018024014000020D9
:10090000002002401CB50DA405222146302000F035
:1009100089F905226946102000F0A2F800206946F6
:1009200014F8013B0A5C934201D000201CBD401C1E
:10093000C0B20528F4D301201CBD00006E5246321F
:1009400034000000072010B500F0C2F840F070013C
:10095000BDE81040072000F081B910B50528044615
:1009600001D9002106E0012000F0B2F80121A140E8
:1009700020EA0101BDE81040012000F06FB9FF211D
:10098000E22000F06BB9FF21E12000F067B9000020
:1009900003484FF480618161C903816170470000A1
:1009A00000180240072000F093B8172010B500F09F
:1009B0008FF800F0030010BD0821002010B500F0F2
:1009C0004DF93F21012000F049F90321022000F0F8
:1009D00045F90321084600F041F90321042000F005
:1009E0003DF90221052000F039F90E21062000F022
:1009F00035F90021072000F031F90021112000F025
:100A00002DF90021122000F029F90021132000F017
:100A100025F90021142000F021F90021152000F013
:100A20001DF90021162000F019F900211C2000F00A
:100A300015F900211D2000F011F9FFF7A0FFFFF7C5
:100A4000A2FFFFF77FFF02494FF48060886110BD6D
:100A50000018024001460148FFF7E3BD00300140A5
:100A60002DE9F0410A4E0D464FF0806114460F14F7
:100A7000B161FFF7EFFF04E0FF20FFF7EBFF05F8A0
:100A8000010B601EC4B2F7D2B761BDE8F08100006F
:100A90000018024070B50D460646072000F018F811
:100AA000C0F34204062C0CD20848005D00F010F898
:100AB000021E287003D061203146FFF7D1FF204687
:100AC00070BD00202870FF2070BD0000A80C000839
:100AD00070B5074C4FF080610D14A16100F01F004C
:100AE000FFF7B8FFFF20FFF7B5FFA56170BD00005D
:100AF000001802402DE9F047244F0728244D4FF0FD
:100B000080694FF480680E4631D2DFE800F00419A6
:100B10003232323238000320FFF7DAFF401CC5F8CA
:100B20001890C4B22644387840F02000FFF792FFB6
:100B300016F80109FFF78EFF601EC4B2F8D214E068
:100B40000320FFF7C5FF401CC5F81890C4B2264427
:100B5000787840F02000FFF77DFF00BF16F801090C
:100B6000FFF778FF601EC4B2F8D2C5F81880BDE860
:100B7000F0873178385CBDE8F04700F06FB8314657
:100B8000BDE8F0470522302000F04CB8AE0C00085C
:100B90000018024010B504460020FFF799FF04F04A
:100BA000010120F001000143BDE81040002000F0E9
:100BB00055B810B504460020FFF78AFF022C06D076
:100BC00020F00201BDE81040002000F047B840F0DE
:100BD0000201F7E72DE9F04117460E4605460220CF
:100BE000FFF776FF0124AC40204300F03F010220D4
:100BF00000F034F80A4807F03F01405D00F02EF89D
:100C00000120FFF765FF012E06D020EA0401BDE8B0
:100C1000F041012000F022B80443E1B2F7E7000000
:100C2000A80C00082DE9F041084E0D464FF08061F8
:100C300014460F14B16101E015F8010BFFF70AFF2C
:100C4000601EC4B2F8D2B761BDE8F081001802405E
:100C50000A460146A020FFF7E5BF00002DE9F0415C
:100C6000104D04464FF080600F460614A861202CFA
:100C700006D204F01F0040F02000FFF7EBFE0AE070
:100C80002046FFF7E7FEE12C08D0E22C06D0E32C4B
:100C900004D0FF2C02D03846FFF7DCFEAE61BDE881
:100CA000F0810000001802401112131415160A0BEF
:100CB0000C0D0E0F10000000D80C000800000020E2
:100CC000140000006E070008EC0C0008140000205F
:100CD000240400007E07000800000000000000005F
:0C0CE00000000000000000000024F400F0
:04000005080001F9F5
:00000001FF
